{
	"contracts/VC/CredentialRegistry.sol": {
		"CredentialRegistry": {
			"abi": [
				{
					"inputs": [],
					"stateMutability": "nonpayable",
					"type": "constructor"
				},
				{
					"inputs": [],
					"name": "AccessControlBadConfirmation",
					"type": "error"
				},
				{
					"inputs": [
						{
							"internalType": "address",
							"name": "account",
							"type": "address"
						},
						{
							"internalType": "bytes32",
							"name": "neededRole",
							"type": "bytes32"
						}
					],
					"name": "AccessControlUnauthorizedAccount",
					"type": "error"
				},
				{
					"anonymous": false,
					"inputs": [
						{
							"indexed": true,
							"internalType": "bytes32",
							"name": "credentialHash",
							"type": "bytes32"
						},
						{
							"indexed": false,
							"internalType": "address",
							"name": "by",
							"type": "address"
						},
						{
							"indexed": false,
							"internalType": "address",
							"name": "id",
							"type": "address"
						},
						{
							"indexed": false,
							"internalType": "uint256",
							"name": "iat",
							"type": "uint256"
						}
					],
					"name": "CredentialRegistered",
					"type": "event"
				},
				{
					"anonymous": false,
					"inputs": [
						{
							"indexed": true,
							"internalType": "bytes32",
							"name": "credentialHash",
							"type": "bytes32"
						},
						{
							"indexed": false,
							"internalType": "address",
							"name": "by",
							"type": "address"
						},
						{
							"indexed": false,
							"internalType": "uint256",
							"name": "date",
							"type": "uint256"
						}
					],
					"name": "CredentialRevoked",
					"type": "event"
				},
				{
					"anonymous": false,
					"inputs": [
						{
							"indexed": true,
							"internalType": "bytes32",
							"name": "role",
							"type": "bytes32"
						},
						{
							"indexed": true,
							"internalType": "bytes32",
							"name": "previousAdminRole",
							"type": "bytes32"
						},
						{
							"indexed": true,
							"internalType": "bytes32",
							"name": "newAdminRole",
							"type": "bytes32"
						}
					],
					"name": "RoleAdminChanged",
					"type": "event"
				},
				{
					"anonymous": false,
					"inputs": [
						{
							"indexed": true,
							"internalType": "bytes32",
							"name": "role",
							"type": "bytes32"
						},
						{
							"indexed": true,
							"internalType": "address",
							"name": "account",
							"type": "address"
						},
						{
							"indexed": true,
							"internalType": "address",
							"name": "sender",
							"type": "address"
						}
					],
					"name": "RoleGranted",
					"type": "event"
				},
				{
					"anonymous": false,
					"inputs": [
						{
							"indexed": true,
							"internalType": "bytes32",
							"name": "role",
							"type": "bytes32"
						},
						{
							"indexed": true,
							"internalType": "address",
							"name": "account",
							"type": "address"
						},
						{
							"indexed": true,
							"internalType": "address",
							"name": "sender",
							"type": "address"
						}
					],
					"name": "RoleRevoked",
					"type": "event"
				},
				{
					"anonymous": false,
					"inputs": [
						{
							"indexed": false,
							"internalType": "address",
							"name": "issuer",
							"type": "address"
						},
						{
							"indexed": false,
							"internalType": "bool",
							"name": "exits",
							"type": "bool"
						},
						{
							"components": [
								{
									"internalType": "bytes32",
									"name": "r",
									"type": "bytes32"
								},
								{
									"internalType": "bytes32",
									"name": "s",
									"type": "bytes32"
								},
								{
									"internalType": "uint8",
									"name": "v",
									"type": "uint8"
								}
							],
							"indexed": false,
							"internalType": "struct ICredentialRegistry.Signature",
							"name": "signature",
							"type": "tuple"
						}
					],
					"name": "SignatureRegistered",
					"type": "event"
				},
				{
					"inputs": [],
					"name": "DEFAULT_ADMIN_ROLE",
					"outputs": [
						{
							"internalType": "bytes32",
							"name": "",
							"type": "bytes32"
						}
					],
					"stateMutability": "view",
					"type": "function"
				},
				{
					"inputs": [],
					"name": "ISSUER_ROLE",
					"outputs": [
						{
							"internalType": "bytes32",
							"name": "",
							"type": "bytes32"
						}
					],
					"stateMutability": "view",
					"type": "function"
				},
				{
					"inputs": [
						{
							"internalType": "bytes32",
							"name": "",
							"type": "bytes32"
						},
						{
							"internalType": "address",
							"name": "",
							"type": "address"
						}
					],
					"name": "credentials",
					"outputs": [
						{
							"internalType": "address",
							"name": "issuer",
							"type": "address"
						},
						{
							"internalType": "address",
							"name": "subject",
							"type": "address"
						},
						{
							"internalType": "uint256",
							"name": "validFrom",
							"type": "uint256"
						},
						{
							"internalType": "uint256",
							"name": "validTo",
							"type": "uint256"
						},
						{
							"internalType": "bool",
							"name": "status",
							"type": "bool"
						}
					],
					"stateMutability": "view",
					"type": "function"
				},
				{
					"inputs": [
						{
							"internalType": "bytes32",
							"name": "_credentialHash",
							"type": "bytes32"
						},
						{
							"internalType": "address",
							"name": "issuer",
							"type": "address"
						}
					],
					"name": "exist",
					"outputs": [
						{
							"internalType": "bool",
							"name": "exists",
							"type": "bool"
						}
					],
					"stateMutability": "view",
					"type": "function"
				},
				{
					"inputs": [
						{
							"internalType": "bytes32",
							"name": "digest",
							"type": "bytes32"
						},
						{
							"internalType": "uint8",
							"name": "v",
							"type": "uint8"
						},
						{
							"internalType": "bytes32",
							"name": "r",
							"type": "bytes32"
						},
						{
							"internalType": "bytes32",
							"name": "s",
							"type": "bytes32"
						}
					],
					"name": "getIssuer",
					"outputs": [
						{
							"internalType": "address",
							"name": "issuer",
							"type": "address"
						}
					],
					"stateMutability": "pure",
					"type": "function"
				},
				{
					"inputs": [
						{
							"internalType": "bytes32",
							"name": "role",
							"type": "bytes32"
						}
					],
					"name": "getRoleAdmin",
					"outputs": [
						{
							"internalType": "bytes32",
							"name": "",
							"type": "bytes32"
						}
					],
					"stateMutability": "view",
					"type": "function"
				},
				{
					"inputs": [
						{
							"internalType": "bytes32",
							"name": "_credentialHash",
							"type": "bytes32"
						},
						{
							"internalType": "address",
							"name": "_issuer",
							"type": "address"
						}
					],
					"name": "getSigners",
					"outputs": [
						{
							"internalType": "uint8",
							"name": "signers",
							"type": "uint8"
						}
					],
					"stateMutability": "view",
					"type": "function"
				},
				{
					"inputs": [
						{
							"internalType": "bytes32",
							"name": "role",
							"type": "bytes32"
						},
						{
							"internalType": "address",
							"name": "account",
							"type": "address"
						}
					],
					"name": "grantRole",
					"outputs": [],
					"stateMutability": "nonpayable",
					"type": "function"
				},
				{
					"inputs": [
						{
							"internalType": "bytes32",
							"name": "role",
							"type": "bytes32"
						},
						{
							"internalType": "address",
							"name": "account",
							"type": "address"
						}
					],
					"name": "hasRole",
					"outputs": [
						{
							"internalType": "bool",
							"name": "",
							"type": "bool"
						}
					],
					"stateMutability": "view",
					"type": "function"
				},
				{
					"inputs": [
						{
							"internalType": "bytes32",
							"name": "_credentialHash",
							"type": "bytes32"
						},
						{
							"internalType": "address",
							"name": "_issuer",
							"type": "address"
						},
						{
							"internalType": "bytes",
							"name": "_signature",
							"type": "bytes"
						}
					],
					"name": "isSigner",
					"outputs": [
						{
							"internalType": "bool",
							"name": "",
							"type": "bool"
						}
					],
					"stateMutability": "view",
					"type": "function"
				},
				{
					"inputs": [
						{
							"internalType": "address",
							"name": "issuer",
							"type": "address"
						},
						{
							"internalType": "address",
							"name": "_subject",
							"type": "address"
						},
						{
							"internalType": "bytes32",
							"name": "_credentialHash",
							"type": "bytes32"
						},
						{
							"internalType": "uint256",
							"name": "_from",
							"type": "uint256"
						},
						{
							"internalType": "uint256",
							"name": "_exp",
							"type": "uint256"
						},
						{
							"internalType": "bytes",
							"name": "signature",
							"type": "bytes"
						}
					],
					"name": "registerCredential",
					"outputs": [
						{
							"internalType": "bool",
							"name": "",
							"type": "bool"
						}
					],
					"stateMutability": "nonpayable",
					"type": "function"
				},
				{
					"inputs": [
						{
							"internalType": "bytes32",
							"name": "_credentialHash",
							"type": "bytes32"
						},
						{
							"internalType": "address",
							"name": "issuer",
							"type": "address"
						},
						{
							"internalType": "bytes",
							"name": "signature",
							"type": "bytes"
						}
					],
					"name": "registerSignature",
					"outputs": [
						{
							"internalType": "bool",
							"name": "",
							"type": "bool"
						}
					],
					"stateMutability": "nonpayable",
					"type": "function"
				},
				{
					"inputs": [
						{
							"internalType": "bytes32",
							"name": "role",
							"type": "bytes32"
						},
						{
							"internalType": "address",
							"name": "callerConfirmation",
							"type": "address"
						}
					],
					"name": "renounceRole",
					"outputs": [],
					"stateMutability": "nonpayable",
					"type": "function"
				},
				{
					"inputs": [
						{
							"internalType": "bytes32",
							"name": "_credentialHash",
							"type": "bytes32"
						}
					],
					"name": "revokeCredential",
					"outputs": [
						{
							"internalType": "bool",
							"name": "",
							"type": "bool"
						}
					],
					"stateMutability": "nonpayable",
					"type": "function"
				},
				{
					"inputs": [
						{
							"internalType": "bytes32",
							"name": "role",
							"type": "bytes32"
						},
						{
							"internalType": "address",
							"name": "account",
							"type": "address"
						}
					],
					"name": "revokeRole",
					"outputs": [],
					"stateMutability": "nonpayable",
					"type": "function"
				},
				{
					"inputs": [
						{
							"internalType": "address",
							"name": "issuer",
							"type": "address"
						},
						{
							"internalType": "bytes32",
							"name": "_credentialHash",
							"type": "bytes32"
						}
					],
					"name": "status",
					"outputs": [
						{
							"internalType": "bool",
							"name": "",
							"type": "bool"
						}
					],
					"stateMutability": "view",
					"type": "function"
				},
				{
					"inputs": [
						{
							"internalType": "bytes4",
							"name": "interfaceId",
							"type": "bytes4"
						}
					],
					"name": "supportsInterface",
					"outputs": [
						{
							"internalType": "bool",
							"name": "",
							"type": "bool"
						}
					],
					"stateMutability": "view",
					"type": "function"
				},
				{
					"inputs": [
						{
							"internalType": "address",
							"name": "issuer",
							"type": "address"
						},
						{
							"internalType": "address",
							"name": "signer",
							"type": "address"
						}
					],
					"name": "verifyIssuer",
					"outputs": [
						{
							"internalType": "bool",
							"name": "isValid",
							"type": "bool"
						}
					],
					"stateMutability": "pure",
					"type": "function"
				}
			],
			"devdoc": {
				"errors": {
					"AccessControlBadConfirmation()": [
						{
							"details": "The caller of a function is not the expected one. NOTE: Don't confuse with {AccessControlUnauthorizedAccount}."
						}
					],
					"AccessControlUnauthorizedAccount(address,bytes32)": [
						{
							"details": "The `account` is missing a role."
						}
					]
				},
				"events": {
					"RoleAdminChanged(bytes32,bytes32,bytes32)": {
						"details": "Emitted when `newAdminRole` is set as ``role``'s admin role, replacing `previousAdminRole` `DEFAULT_ADMIN_ROLE` is the starting admin for all roles, despite {RoleAdminChanged} not being emitted signaling this."
					},
					"RoleGranted(bytes32,address,address)": {
						"details": "Emitted when `account` is granted `role`. `sender` is the account that originated the contract call, an admin role bearer except when using {AccessControl-_setupRole}."
					},
					"RoleRevoked(bytes32,address,address)": {
						"details": "Emitted when `account` is revoked `role`. `sender` is the account that originated the contract call:   - if using `revokeRole`, it is the admin role bearer   - if using `renounceRole`, it is the role bearer (i.e. `account`)"
					}
				},
				"kind": "dev",
				"methods": {
					"getRoleAdmin(bytes32)": {
						"details": "Returns the admin role that controls `role`. See {grantRole} and {revokeRole}. To change a role's admin, use {_setRoleAdmin}."
					},
					"grantRole(bytes32,address)": {
						"details": "Grants `role` to `account`. If `account` had not been already granted `role`, emits a {RoleGranted} event. Requirements: - the caller must have ``role``'s admin role. May emit a {RoleGranted} event."
					},
					"hasRole(bytes32,address)": {
						"details": "Returns `true` if `account` has been granted `role`."
					},
					"renounceRole(bytes32,address)": {
						"details": "Revokes `role` from the calling account. Roles are often managed via {grantRole} and {revokeRole}: this function's purpose is to provide a mechanism for accounts to lose their privileges if they are compromised (such as when a trusted device is misplaced). If the calling account had been revoked `role`, emits a {RoleRevoked} event. Requirements: - the caller must be `callerConfirmation`. May emit a {RoleRevoked} event."
					},
					"revokeRole(bytes32,address)": {
						"details": "Revokes `role` from `account`. If `account` had been granted `role`, emits a {RoleRevoked} event. Requirements: - the caller must have ``role``'s admin role. May emit a {RoleRevoked} event."
					},
					"supportsInterface(bytes4)": {
						"details": "See {IERC165-supportsInterface}."
					}
				},
				"version": 1
			},
			"evm": {
				"assembly": "    /* \"contracts/VC/CredentialRegistry.sol\":198:5676  contract CredentialRegistry is ICredentialRegistry, AccessControl {... */\n  mstore(0x40, 0x80)\n    /* \"contracts/VC/CredentialRegistry.sol\":423:550  constructor() {... */\n  callvalue\n  dup1\n  iszero\n  tag_1\n  jumpi\n  0x00\n  dup1\n  revert\ntag_1:\n  pop\n    /* \"contracts/VC/CredentialRegistry.sol\":501:543  _grantRole(DEFAULT_ADMIN_ROLE, msg.sender) */\n  tag_4\n    /* \"@openzeppelin/contracts/access/AccessControl.sol\":2232:2236  0x00 */\n  0x00\n    /* \"contracts/VC/CredentialRegistry.sol\":512:530  DEFAULT_ADMIN_ROLE */\n  dup1\n  shl\n    /* \"contracts/VC/CredentialRegistry.sol\":532:542  msg.sender */\n  caller\n    /* \"contracts/VC/CredentialRegistry.sol\":501:511  _grantRole */\n  shl(0x20, tag_5)\n    /* \"contracts/VC/CredentialRegistry.sol\":501:543  _grantRole(DEFAULT_ADMIN_ROLE, msg.sender) */\n  0x20\n  shr\n  jump\t// in\ntag_4:\n  pop\n    /* \"contracts/VC/CredentialRegistry.sol\":198:5676  contract CredentialRegistry is ICredentialRegistry, AccessControl {... */\n  jump(tag_6)\n    /* \"@openzeppelin/contracts/access/AccessControl.sol\":6179:6495  function _grantRole(bytes32 role, address account) internal virtual returns (bool) {... */\ntag_5:\n    /* \"@openzeppelin/contracts/access/AccessControl.sol\":6256:6260  bool */\n  0x00\n    /* \"@openzeppelin/contracts/access/AccessControl.sol\":6277:6299  hasRole(role, account) */\n  tag_8\n    /* \"@openzeppelin/contracts/access/AccessControl.sol\":6285:6289  role */\n  dup4\n    /* \"@openzeppelin/contracts/access/AccessControl.sol\":6291:6298  account */\n  dup4\n    /* \"@openzeppelin/contracts/access/AccessControl.sol\":6277:6284  hasRole */\n  shl(0x20, tag_9)\n    /* \"@openzeppelin/contracts/access/AccessControl.sol\":6277:6299  hasRole(role, account) */\n  0x20\n  shr\n  jump\t// in\ntag_8:\n    /* \"@openzeppelin/contracts/access/AccessControl.sol\":6272:6489  if (!hasRole(role, account)) {... */\n  tag_10\n  jumpi\n    /* \"@openzeppelin/contracts/access/AccessControl.sol\":6347:6351  true */\n  0x01\n    /* \"@openzeppelin/contracts/access/AccessControl.sol\":6315:6321  _roles */\n  0x00\n    /* \"@openzeppelin/contracts/access/AccessControl.sol\":6315:6327  _roles[role] */\n  dup1\n    /* \"@openzeppelin/contracts/access/AccessControl.sol\":6322:6326  role */\n  dup6\n    /* \"@openzeppelin/contracts/access/AccessControl.sol\":6315:6327  _roles[role] */\n  dup2\n  mstore\n  0x20\n  add\n  swap1\n  dup2\n  mstore\n  0x20\n  add\n  0x00\n  keccak256\n    /* \"@openzeppelin/contracts/access/AccessControl.sol\":6315:6335  _roles[role].hasRole */\n  0x00\n  add\n    /* \"@openzeppelin/contracts/access/AccessControl.sol\":6315:6344  _roles[role].hasRole[account] */\n  0x00\n    /* \"@openzeppelin/contracts/access/AccessControl.sol\":6336:6343  account */\n  dup5\n    /* \"@openzeppelin/contracts/access/AccessControl.sol\":6315:6344  _roles[role].hasRole[account] */\n  0xffffffffffffffffffffffffffffffffffffffff\n  and\n  0xffffffffffffffffffffffffffffffffffffffff\n  and\n  dup2\n  mstore\n  0x20\n  add\n  swap1\n  dup2\n  mstore\n  0x20\n  add\n  0x00\n  keccak256\n  0x00\n    /* \"@openzeppelin/contracts/access/AccessControl.sol\":6315:6351  _roles[role].hasRole[account] = true */\n  0x0100\n  exp\n  dup2\n  sload\n  dup2\n  0xff\n  mul\n  not\n  and\n  swap1\n  dup4\n  iszero\n  iszero\n  mul\n  or\n  swap1\n  sstore\n  pop\n    /* \"@openzeppelin/contracts/access/AccessControl.sol\":6397:6409  _msgSender() */\n  tag_11\n    /* \"@openzeppelin/contracts/access/AccessControl.sol\":6397:6407  _msgSender */\n  shl(0x20, tag_12)\n    /* \"@openzeppelin/contracts/access/AccessControl.sol\":6397:6409  _msgSender() */\n  0x20\n  shr\n  jump\t// in\ntag_11:\n    /* \"@openzeppelin/contracts/access/AccessControl.sol\":6370:6410  RoleGranted(role, account, _msgSender()) */\n  0xffffffffffffffffffffffffffffffffffffffff\n  and\n    /* \"@openzeppelin/contracts/access/AccessControl.sol\":6388:6395  account */\n  dup3\n    /* \"@openzeppelin/contracts/access/AccessControl.sol\":6370:6410  RoleGranted(role, account, _msgSender()) */\n  0xffffffffffffffffffffffffffffffffffffffff\n  and\n    /* \"@openzeppelin/contracts/access/AccessControl.sol\":6382:6386  role */\n  dup5\n    /* \"@openzeppelin/contracts/access/AccessControl.sol\":6370:6410  RoleGranted(role, account, _msgSender()) */\n  0x2f8788117e7eff1d82e926ec794901d17c78024a50270940304540a733656f0d\n  mload(0x40)\n  mload(0x40)\n  dup1\n  swap2\n  sub\n  swap1\n  log4\n    /* \"@openzeppelin/contracts/access/AccessControl.sol\":6431:6435  true */\n  0x01\n    /* \"@openzeppelin/contracts/access/AccessControl.sol\":6424:6435  return true */\n  swap1\n  pop\n  jump(tag_7)\n    /* \"@openzeppelin/contracts/access/AccessControl.sol\":6272:6489  if (!hasRole(role, account)) {... */\ntag_10:\n    /* \"@openzeppelin/contracts/access/AccessControl.sol\":6473:6478  false */\n  0x00\n    /* \"@openzeppelin/contracts/access/AccessControl.sol\":6466:6478  return false */\n  swap1\n  pop\n    /* \"@openzeppelin/contracts/access/AccessControl.sol\":6179:6495  function _grantRole(bytes32 role, address account) internal virtual returns (bool) {... */\ntag_7:\n  swap3\n  swap2\n  pop\n  pop\n  jump\t// out\n    /* \"@openzeppelin/contracts/access/AccessControl.sol\":2854:2990  function hasRole(bytes32 role, address account) public view virtual returns (bool) {... */\ntag_9:\n    /* \"@openzeppelin/contracts/access/AccessControl.sol\":2931:2935  bool */\n  0x00\n    /* \"@openzeppelin/contracts/access/AccessControl.sol\":2954:2960  _roles */\n  dup1\n    /* \"@openzeppelin/contracts/access/AccessControl.sol\":2954:2966  _roles[role] */\n  0x00\n    /* \"@openzeppelin/contracts/access/AccessControl.sol\":2961:2965  role */\n  dup5\n    /* \"@openzeppelin/contracts/access/AccessControl.sol\":2954:2966  _roles[role] */\n  dup2\n  mstore\n  0x20\n  add\n  swap1\n  dup2\n  mstore\n  0x20\n  add\n  0x00\n  keccak256\n    /* \"@openzeppelin/contracts/access/AccessControl.sol\":2954:2974  _roles[role].hasRole */\n  0x00\n  add\n    /* \"@openzeppelin/contracts/access/AccessControl.sol\":2954:2983  _roles[role].hasRole[account] */\n  0x00\n    /* \"@openzeppelin/contracts/access/AccessControl.sol\":2975:2982  account */\n  dup4\n    /* \"@openzeppelin/contracts/access/AccessControl.sol\":2954:2983  _roles[role].hasRole[account] */\n  0xffffffffffffffffffffffffffffffffffffffff\n  and\n  0xffffffffffffffffffffffffffffffffffffffff\n  and\n  dup2\n  mstore\n  0x20\n  add\n  swap1\n  dup2\n  mstore\n  0x20\n  add\n  0x00\n  keccak256\n  0x00\n  swap1\n  sload\n  swap1\n  0x0100\n  exp\n  swap1\n  div\n  0xff\n  and\n    /* \"@openzeppelin/contracts/access/AccessControl.sol\":2947:2983  return _roles[role].hasRole[account] */\n  swap1\n  pop\n    /* \"@openzeppelin/contracts/access/AccessControl.sol\":2854:2990  function hasRole(bytes32 role, address account) public view virtual returns (bool) {... */\n  swap3\n  swap2\n  pop\n  pop\n  jump\t// out\n    /* \"@openzeppelin/contracts/utils/Context.sol\":656:752  function _msgSender() internal view virtual returns (address) {... */\ntag_12:\n    /* \"@openzeppelin/contracts/utils/Context.sol\":709:716  address */\n  0x00\n    /* \"@openzeppelin/contracts/utils/Context.sol\":735:745  msg.sender */\n  caller\n    /* \"@openzeppelin/contracts/utils/Context.sol\":728:745  return msg.sender */\n  swap1\n  pop\n    /* \"@openzeppelin/contracts/utils/Context.sol\":656:752  function _msgSender() internal view virtual returns (address) {... */\n  swap1\n  jump\t// out\n    /* \"contracts/VC/CredentialRegistry.sol\":198:5676  contract CredentialRegistry is ICredentialRegistry, AccessControl {... */\ntag_6:\n  dataSize(sub_0)\n  dup1\n  dataOffset(sub_0)\n  0x00\n  codecopy\n  0x00\n  return\nstop\n\nsub_0: assembly {\n        /* \"contracts/VC/CredentialRegistry.sol\":198:5676  contract CredentialRegistry is ICredentialRegistry, AccessControl {... */\n      mstore(0x40, 0x80)\n      callvalue\n      dup1\n      iszero\n      tag_1\n      jumpi\n      0x00\n      dup1\n      revert\n    tag_1:\n      pop\n      jumpi(tag_2, lt(calldatasize, 0x04))\n      shr(0xe0, calldataload(0x00))\n      dup1\n      0x87cf356e\n      gt\n      tag_21\n      jumpi\n      dup1\n      0xa217fddf\n      gt\n      tag_22\n      jumpi\n      dup1\n      0xa217fddf\n      eq\n      tag_16\n      jumpi\n      dup1\n      0xca6eec78\n      eq\n      tag_17\n      jumpi\n      dup1\n      0xd547741f\n      eq\n      tag_18\n      jumpi\n      dup1\n      0xd6d76ed5\n      eq\n      tag_19\n      jumpi\n      dup1\n      0xf078e5db\n      eq\n      tag_20\n      jumpi\n      jump(tag_2)\n    tag_22:\n      dup1\n      0x87cf356e\n      eq\n      tag_12\n      jumpi\n      dup1\n      0x9052944e\n      eq\n      tag_13\n      jumpi\n      dup1\n      0x91d14854\n      eq\n      tag_14\n      jumpi\n      dup1\n      0x957839d9\n      eq\n      tag_15\n      jumpi\n      jump(tag_2)\n    tag_21:\n      dup1\n      0x36568abe\n      gt\n      tag_23\n      jumpi\n      dup1\n      0x36568abe\n      eq\n      tag_7\n      jumpi\n      dup1\n      0x448684ac\n      eq\n      tag_8\n      jumpi\n      dup1\n      0x701ee463\n      eq\n      tag_9\n      jumpi\n      dup1\n      0x75130747\n      eq\n      tag_10\n      jumpi\n      dup1\n      0x82aefa24\n      eq\n      tag_11\n      jumpi\n      jump(tag_2)\n    tag_23:\n      dup1\n      0x01ffc9a7\n      eq\n      tag_3\n      jumpi\n      dup1\n      0x06b15df4\n      eq\n      tag_4\n      jumpi\n      dup1\n      0x248a9ca3\n      eq\n      tag_5\n      jumpi\n      dup1\n      0x2f2ff15d\n      eq\n      tag_6\n      jumpi\n    tag_2:\n      0x00\n      dup1\n      revert\n        /* \"@openzeppelin/contracts/access/AccessControl.sol\":2565:2767  function supportsInterface(bytes4 interfaceId) public view virtual override returns (bool) {... */\n    tag_3:\n      tag_24\n      0x04\n      dup1\n      calldatasize\n      sub\n      dup2\n      add\n      swap1\n      tag_25\n      swap2\n      swap1\n      tag_26\n      jump\t// in\n    tag_25:\n      tag_27\n      jump\t// in\n    tag_24:\n      mload(0x40)\n      tag_28\n      swap2\n      swap1\n      tag_29\n      jump\t// in\n    tag_28:\n      mload(0x40)\n      dup1\n      swap2\n      sub\n      swap1\n      return\n        /* \"contracts/VC/CredentialRegistry.sol\":4019:4343  function getSigners(bytes32 _credentialHash, address _issuer) external view returns (uint8 signers){... */\n    tag_4:\n      tag_30\n      0x04\n      dup1\n      calldatasize\n      sub\n      dup2\n      add\n      swap1\n      tag_31\n      swap2\n      swap1\n      tag_32\n      jump\t// in\n    tag_31:\n      tag_33\n      jump\t// in\n    tag_30:\n      mload(0x40)\n      tag_34\n      swap2\n      swap1\n      tag_35\n      jump\t// in\n    tag_34:\n      mload(0x40)\n      dup1\n      swap2\n      sub\n      swap1\n      return\n        /* \"@openzeppelin/contracts/access/AccessControl.sol\":3810:3930  function getRoleAdmin(bytes32 role) public view virtual returns (bytes32) {... */\n    tag_5:\n      tag_36\n      0x04\n      dup1\n      calldatasize\n      sub\n      dup2\n      add\n      swap1\n      tag_37\n      swap2\n      swap1\n      tag_38\n      jump\t// in\n    tag_37:\n      tag_39\n      jump\t// in\n    tag_36:\n      mload(0x40)\n      tag_40\n      swap2\n      swap1\n      tag_41\n      jump\t// in\n    tag_40:\n      mload(0x40)\n      dup1\n      swap2\n      sub\n      swap1\n      return\n        /* \"@openzeppelin/contracts/access/AccessControl.sol\":4226:4362  function grantRole(bytes32 role, address account) public virtual onlyRole(getRoleAdmin(role)) {... */\n    tag_6:\n      tag_42\n      0x04\n      dup1\n      calldatasize\n      sub\n      dup2\n      add\n      swap1\n      tag_43\n      swap2\n      swap1\n      tag_32\n      jump\t// in\n    tag_43:\n      tag_44\n      jump\t// in\n    tag_42:\n      stop\n        /* \"@openzeppelin/contracts/access/AccessControl.sol\":5328:5573  function renounceRole(bytes32 role, address callerConfirmation) public virtual {... */\n    tag_7:\n      tag_45\n      0x04\n      dup1\n      calldatasize\n      sub\n      dup2\n      add\n      swap1\n      tag_46\n      swap2\n      swap1\n      tag_32\n      jump\t// in\n    tag_46:\n      tag_47\n      jump\t// in\n    tag_45:\n      stop\n        /* \"contracts/VC/CredentialRegistry.sol\":1475:1670  function registerSignature(bytes32 _credentialHash, address issuer, bytes calldata signature) external returns (bool){... */\n    tag_8:\n      tag_48\n      0x04\n      dup1\n      calldatasize\n      sub\n      dup2\n      add\n      swap1\n      tag_49\n      swap2\n      swap1\n      tag_50\n      jump\t// in\n    tag_49:\n      tag_51\n      jump\t// in\n    tag_48:\n      mload(0x40)\n      tag_52\n      swap2\n      swap1\n      tag_29\n      jump\t// in\n    tag_52:\n      mload(0x40)\n      dup1\n      swap2\n      sub\n      swap1\n      return\n        /* \"contracts/VC/CredentialRegistry.sol\":4349:5308  function isSigner(bytes32 _credentialHash, address _issuer, bytes memory _signature) external view returns (bool){... */\n    tag_9:\n      tag_53\n      0x04\n      dup1\n      calldatasize\n      sub\n      dup2\n      add\n      swap1\n      tag_54\n      swap2\n      swap1\n      tag_55\n      jump\t// in\n    tag_54:\n      tag_56\n      jump\t// in\n    tag_53:\n      mload(0x40)\n      tag_57\n      swap2\n      swap1\n      tag_29\n      jump\t// in\n    tag_57:\n      mload(0x40)\n      dup1\n      swap2\n      sub\n      swap1\n      return\n        /* \"contracts/VC/CredentialRegistry.sol\":556:1469  function registerCredential(... */\n    tag_10:\n      tag_58\n      0x04\n      dup1\n      calldatasize\n      sub\n      dup2\n      add\n      swap1\n      tag_59\n      swap2\n      swap1\n      tag_60\n      jump\t// in\n    tag_59:\n      tag_61\n      jump\t// in\n    tag_58:\n      mload(0x40)\n      tag_62\n      swap2\n      swap1\n      tag_29\n      jump\t// in\n    tag_62:\n      mload(0x40)\n      dup1\n      swap2\n      sub\n      swap1\n      return\n        /* \"contracts/VC/CredentialRegistry.sol\":270:332  bytes32 public constant ISSUER_ROLE = keccak256(\"ISSUER_ROLE\") */\n    tag_11:\n      tag_63\n      tag_64\n      jump\t// in\n    tag_63:\n      mload(0x40)\n      tag_65\n      swap2\n      swap1\n      tag_41\n      jump\t// in\n    tag_65:\n      mload(0x40)\n      dup1\n      swap2\n      sub\n      swap1\n      return\n        /* \"contracts/VC/CredentialRegistry.sol\":2690:2822  function verifyIssuer(address issuer, address signer) external pure returns (bool isValid){... */\n    tag_12:\n      tag_66\n      0x04\n      dup1\n      calldatasize\n      sub\n      dup2\n      add\n      swap1\n      tag_67\n      swap2\n      swap1\n      tag_68\n      jump\t// in\n    tag_67:\n      tag_69\n      jump\t// in\n    tag_66:\n      mload(0x40)\n      tag_70\n      swap2\n      swap1\n      tag_29\n      jump\t// in\n    tag_70:\n      mload(0x40)\n      dup1\n      swap2\n      sub\n      swap1\n      return\n        /* \"contracts/VC/CredentialRegistry.sol\":5314:5468  function getIssuer(bytes32 digest, uint8 v, bytes32 r, bytes32 s) external pure returns (address issuer){... */\n    tag_13:\n      tag_71\n      0x04\n      dup1\n      calldatasize\n      sub\n      dup2\n      add\n      swap1\n      tag_72\n      swap2\n      swap1\n      tag_73\n      jump\t// in\n    tag_72:\n      tag_74\n      jump\t// in\n    tag_71:\n      mload(0x40)\n      tag_75\n      swap2\n      swap1\n      tag_76\n      jump\t// in\n    tag_75:\n      mload(0x40)\n      dup1\n      swap2\n      sub\n      swap1\n      return\n        /* \"@openzeppelin/contracts/access/AccessControl.sol\":2854:2990  function hasRole(bytes32 role, address account) public view virtual returns (bool) {... */\n    tag_14:\n      tag_77\n      0x04\n      dup1\n      calldatasize\n      sub\n      dup2\n      add\n      swap1\n      tag_78\n      swap2\n      swap1\n      tag_32\n      jump\t// in\n    tag_78:\n      tag_79\n      jump\t// in\n    tag_77:\n      mload(0x40)\n      tag_80\n      swap2\n      swap1\n      tag_29\n      jump\t// in\n    tag_80:\n      mload(0x40)\n      dup1\n      swap2\n      sub\n      swap1\n      return\n        /* \"contracts/VC/CredentialRegistry.sol\":2215:2458  function exist(bytes32 _credentialHash, address issuer) override external view returns (bool exists){... */\n    tag_15:\n      tag_81\n      0x04\n      dup1\n      calldatasize\n      sub\n      dup2\n      add\n      swap1\n      tag_82\n      swap2\n      swap1\n      tag_32\n      jump\t// in\n    tag_82:\n      tag_83\n      jump\t// in\n    tag_81:\n      mload(0x40)\n      tag_84\n      swap2\n      swap1\n      tag_29\n      jump\t// in\n    tag_84:\n      mload(0x40)\n      dup1\n      swap2\n      sub\n      swap1\n      return\n        /* \"@openzeppelin/contracts/access/AccessControl.sol\":2187:2236  bytes32 public constant DEFAULT_ADMIN_ROLE = 0x00 */\n    tag_16:\n      tag_85\n      tag_86\n      jump\t// in\n    tag_85:\n      mload(0x40)\n      tag_87\n      swap2\n      swap1\n      tag_41\n      jump\t// in\n    tag_87:\n      mload(0x40)\n      dup1\n      swap2\n      sub\n      swap1\n      return\n        /* \"contracts/VC/CredentialRegistry.sol\":1676:2209  function revokeCredential(bytes32 _credentialHash) external override returns (bool) {... */\n    tag_17:\n      tag_88\n      0x04\n      dup1\n      calldatasize\n      sub\n      dup2\n      add\n      swap1\n      tag_89\n      swap2\n      swap1\n      tag_38\n      jump\t// in\n    tag_89:\n      tag_90\n      jump\t// in\n    tag_88:\n      mload(0x40)\n      tag_91\n      swap2\n      swap1\n      tag_29\n      jump\t// in\n    tag_91:\n      mload(0x40)\n      dup1\n      swap2\n      sub\n      swap1\n      return\n        /* \"@openzeppelin/contracts/access/AccessControl.sol\":4642:4780  function revokeRole(bytes32 role, address account) public virtual onlyRole(getRoleAdmin(role)) {... */\n    tag_18:\n      tag_92\n      0x04\n      dup1\n      calldatasize\n      sub\n      dup2\n      add\n      swap1\n      tag_93\n      swap2\n      swap1\n      tag_32\n      jump\t// in\n    tag_93:\n      tag_94\n      jump\t// in\n    tag_92:\n      stop\n        /* \"contracts/VC/CredentialRegistry.sol\":2464:2684  function status(address issuer, bytes32 _credentialHash) override external view returns (bool){... */\n    tag_19:\n      tag_95\n      0x04\n      dup1\n      calldatasize\n      sub\n      dup2\n      add\n      swap1\n      tag_96\n      swap2\n      swap1\n      tag_97\n      jump\t// in\n    tag_96:\n      tag_98\n      jump\t// in\n    tag_95:\n      mload(0x40)\n      tag_99\n      swap2\n      swap1\n      tag_29\n      jump\t// in\n    tag_99:\n      mload(0x40)\n      dup1\n      swap2\n      sub\n      swap1\n      return\n        /* \"contracts/VC/CredentialRegistry.sol\":339:416  mapping(bytes32 => mapping(address => CredentialMetadata)) public credentials */\n    tag_20:\n      tag_100\n      0x04\n      dup1\n      calldatasize\n      sub\n      dup2\n      add\n      swap1\n      tag_101\n      swap2\n      swap1\n      tag_32\n      jump\t// in\n    tag_101:\n      tag_102\n      jump\t// in\n    tag_100:\n      mload(0x40)\n      tag_103\n      swap6\n      swap5\n      swap4\n      swap3\n      swap2\n      swap1\n      tag_104\n      jump\t// in\n    tag_103:\n      mload(0x40)\n      dup1\n      swap2\n      sub\n      swap1\n      return\n        /* \"@openzeppelin/contracts/access/AccessControl.sol\":2565:2767  function supportsInterface(bytes4 interfaceId) public view virtual override returns (bool) {... */\n    tag_27:\n        /* \"@openzeppelin/contracts/access/AccessControl.sol\":2650:2654  bool */\n      0x00\n        /* \"@openzeppelin/contracts/access/AccessControl.sol\":2688:2720  type(IAccessControl).interfaceId */\n      0x7965db0b00000000000000000000000000000000000000000000000000000000\n        /* \"@openzeppelin/contracts/access/AccessControl.sol\":2673:2720  interfaceId == type(IAccessControl).interfaceId */\n      not(0xffffffffffffffffffffffffffffffffffffffffffffffffffffffff)\n      and\n        /* \"@openzeppelin/contracts/access/AccessControl.sol\":2673:2684  interfaceId */\n      dup3\n        /* \"@openzeppelin/contracts/access/AccessControl.sol\":2673:2720  interfaceId == type(IAccessControl).interfaceId */\n      not(0xffffffffffffffffffffffffffffffffffffffffffffffffffffffff)\n      and\n      eq\n        /* \"@openzeppelin/contracts/access/AccessControl.sol\":2673:2760  interfaceId == type(IAccessControl).interfaceId || super.supportsInterface(interfaceId) */\n      dup1\n      tag_106\n      jumpi\n      pop\n        /* \"@openzeppelin/contracts/access/AccessControl.sol\":2724:2760  super.supportsInterface(interfaceId) */\n      tag_107\n        /* \"@openzeppelin/contracts/access/AccessControl.sol\":2748:2759  interfaceId */\n      dup3\n        /* \"@openzeppelin/contracts/access/AccessControl.sol\":2724:2747  super.supportsInterface */\n      tag_108\n        /* \"@openzeppelin/contracts/access/AccessControl.sol\":2724:2760  super.supportsInterface(interfaceId) */\n      jump\t// in\n    tag_107:\n        /* \"@openzeppelin/contracts/access/AccessControl.sol\":2673:2760  interfaceId == type(IAccessControl).interfaceId || super.supportsInterface(interfaceId) */\n    tag_106:\n        /* \"@openzeppelin/contracts/access/AccessControl.sol\":2666:2760  return interfaceId == type(IAccessControl).interfaceId || super.supportsInterface(interfaceId) */\n      swap1\n      pop\n        /* \"@openzeppelin/contracts/access/AccessControl.sol\":2565:2767  function supportsInterface(bytes4 interfaceId) public view virtual override returns (bool) {... */\n      swap2\n      swap1\n      pop\n      jump\t// out\n        /* \"contracts/VC/CredentialRegistry.sol\":4019:4343  function getSigners(bytes32 _credentialHash, address _issuer) external view returns (uint8 signers){... */\n    tag_33:\n        /* \"contracts/VC/CredentialRegistry.sol\":4104:4117  uint8 signers */\n      0x00\n        /* \"contracts/VC/CredentialRegistry.sol\":4128:4164  CredentialMetadata memory credential */\n      dup1\n        /* \"contracts/VC/CredentialRegistry.sol\":4167:4178  credentials */\n      0x01\n        /* \"contracts/VC/CredentialRegistry.sol\":4167:4195  credentials[_credentialHash] */\n      0x00\n        /* \"contracts/VC/CredentialRegistry.sol\":4179:4194  _credentialHash */\n      dup6\n        /* \"contracts/VC/CredentialRegistry.sol\":4167:4195  credentials[_credentialHash] */\n      dup2\n      mstore\n      0x20\n      add\n      swap1\n      dup2\n      mstore\n      0x20\n      add\n      0x00\n      keccak256\n        /* \"contracts/VC/CredentialRegistry.sol\":4167:4204  credentials[_credentialHash][_issuer] */\n      0x00\n        /* \"contracts/VC/CredentialRegistry.sol\":4196:4203  _issuer */\n      dup5\n        /* \"contracts/VC/CredentialRegistry.sol\":4167:4204  credentials[_credentialHash][_issuer] */\n      0xffffffffffffffffffffffffffffffffffffffff\n      and\n      0xffffffffffffffffffffffffffffffffffffffff\n      and\n      dup2\n      mstore\n      0x20\n      add\n      swap1\n      dup2\n      mstore\n      0x20\n      add\n      0x00\n      keccak256\n        /* \"contracts/VC/CredentialRegistry.sol\":4128:4204  CredentialMetadata memory credential = credentials[_credentialHash][_issuer] */\n      mload(0x40)\n      dup1\n      0xc0\n      add\n      0x40\n      mstore\n      swap1\n      dup2\n      0x00\n      dup3\n      add\n      0x00\n      swap1\n      sload\n      swap1\n      0x0100\n      exp\n      swap1\n      div\n      0xffffffffffffffffffffffffffffffffffffffff\n      and\n      0xffffffffffffffffffffffffffffffffffffffff\n      and\n      0xffffffffffffffffffffffffffffffffffffffff\n      and\n      dup2\n      mstore\n      0x20\n      add\n      0x01\n      dup3\n      add\n      0x00\n      swap1\n      sload\n      swap1\n      0x0100\n      exp\n      swap1\n      div\n      0xffffffffffffffffffffffffffffffffffffffff\n      and\n      0xffffffffffffffffffffffffffffffffffffffff\n      and\n      0xffffffffffffffffffffffffffffffffffffffff\n      and\n      dup2\n      mstore\n      0x20\n      add\n      0x02\n      dup3\n      add\n      sload\n      dup2\n      mstore\n      0x20\n      add\n      0x03\n      dup3\n      add\n      sload\n      dup2\n      mstore\n      0x20\n      add\n      0x04\n      dup3\n      add\n      dup1\n      sload\n      dup1\n      0x20\n      mul\n      0x20\n      add\n      mload(0x40)\n      swap1\n      dup2\n      add\n      0x40\n      mstore\n      dup1\n      swap3\n      swap2\n      swap1\n      dup2\n      dup2\n      mstore\n      0x20\n      add\n      0x00\n      swap1\n    tag_110:\n      dup3\n      dup3\n      lt\n      iszero\n      tag_111\n      jumpi\n      dup4\n      dup3\n      swap1\n      0x00\n      mstore\n      keccak256(0x00, 0x20)\n      swap1\n      0x03\n      mul\n      add\n      mload(0x40)\n      dup1\n      0x60\n      add\n      0x40\n      mstore\n      swap1\n      dup2\n      0x00\n      dup3\n      add\n      sload\n      dup2\n      mstore\n      0x20\n      add\n      0x01\n      dup3\n      add\n      sload\n      dup2\n      mstore\n      0x20\n      add\n      0x02\n      dup3\n      add\n      0x00\n      swap1\n      sload\n      swap1\n      0x0100\n      exp\n      swap1\n      div\n      0xff\n      and\n      0xff\n      and\n      0xff\n      and\n      dup2\n      mstore\n      pop\n      pop\n      dup2\n      mstore\n      0x20\n      add\n      swap1\n      0x01\n      add\n      swap1\n      jump(tag_110)\n    tag_111:\n      pop\n      pop\n      pop\n      pop\n      dup2\n      mstore\n      0x20\n      add\n      0x05\n      dup3\n      add\n      0x00\n      swap1\n      sload\n      swap1\n      0x0100\n      exp\n      swap1\n      div\n      0xff\n      and\n      iszero\n      iszero\n      iszero\n      iszero\n      dup2\n      mstore\n      pop\n      pop\n      swap1\n      pop\n        /* \"contracts/VC/CredentialRegistry.sol\":4248:4249  0 */\n      0x00\n        /* \"contracts/VC/CredentialRegistry.sol\":4218:4250  credential.subject != address(0) */\n      0xffffffffffffffffffffffffffffffffffffffff\n      and\n        /* \"contracts/VC/CredentialRegistry.sol\":4218:4228  credential */\n      dup2\n        /* \"contracts/VC/CredentialRegistry.sol\":4218:4236  credential.subject */\n      0x20\n      add\n      mload\n        /* \"contracts/VC/CredentialRegistry.sol\":4218:4250  credential.subject != address(0) */\n      0xffffffffffffffffffffffffffffffffffffffff\n      and\n      eq\n        /* \"contracts/VC/CredentialRegistry.sol\":4214:4319  if (credential.subject != address(0)) {... */\n      tag_113\n      jumpi\n        /* \"contracts/VC/CredentialRegistry.sol\":4279:4289  credential */\n      dup1\n        /* \"contracts/VC/CredentialRegistry.sol\":4279:4300  credential.signatures */\n      0x80\n      add\n      mload\n        /* \"contracts/VC/CredentialRegistry.sol\":4279:4307  credential.signatures.length */\n      mload\n        /* \"contracts/VC/CredentialRegistry.sol\":4266:4308  return uint8(credential.signatures.length) */\n      swap2\n      pop\n      pop\n      jump(tag_109)\n        /* \"contracts/VC/CredentialRegistry.sol\":4214:4319  if (credential.subject != address(0)) {... */\n    tag_113:\n        /* \"contracts/VC/CredentialRegistry.sol\":4335:4336  0 */\n      0x00\n        /* \"contracts/VC/CredentialRegistry.sol\":4328:4336  return 0 */\n      swap2\n      pop\n      pop\n        /* \"contracts/VC/CredentialRegistry.sol\":4019:4343  function getSigners(bytes32 _credentialHash, address _issuer) external view returns (uint8 signers){... */\n    tag_109:\n      swap3\n      swap2\n      pop\n      pop\n      jump\t// out\n        /* \"@openzeppelin/contracts/access/AccessControl.sol\":3810:3930  function getRoleAdmin(bytes32 role) public view virtual returns (bytes32) {... */\n    tag_39:\n        /* \"@openzeppelin/contracts/access/AccessControl.sol\":3875:3882  bytes32 */\n      0x00\n        /* \"@openzeppelin/contracts/access/AccessControl.sol\":3901:3907  _roles */\n      dup1\n        /* \"@openzeppelin/contracts/access/AccessControl.sol\":3901:3913  _roles[role] */\n      0x00\n        /* \"@openzeppelin/contracts/access/AccessControl.sol\":3908:3912  role */\n      dup4\n        /* \"@openzeppelin/contracts/access/AccessControl.sol\":3901:3913  _roles[role] */\n      dup2\n      mstore\n      0x20\n      add\n      swap1\n      dup2\n      mstore\n      0x20\n      add\n      0x00\n      keccak256\n        /* \"@openzeppelin/contracts/access/AccessControl.sol\":3901:3923  _roles[role].adminRole */\n      0x01\n      add\n      sload\n        /* \"@openzeppelin/contracts/access/AccessControl.sol\":3894:3923  return _roles[role].adminRole */\n      swap1\n      pop\n        /* \"@openzeppelin/contracts/access/AccessControl.sol\":3810:3930  function getRoleAdmin(bytes32 role) public view virtual returns (bytes32) {... */\n      swap2\n      swap1\n      pop\n      jump\t// out\n        /* \"@openzeppelin/contracts/access/AccessControl.sol\":4226:4362  function grantRole(bytes32 role, address account) public virtual onlyRole(getRoleAdmin(role)) {... */\n    tag_44:\n        /* \"@openzeppelin/contracts/access/AccessControl.sol\":4300:4318  getRoleAdmin(role) */\n      tag_115\n        /* \"@openzeppelin/contracts/access/AccessControl.sol\":4313:4317  role */\n      dup3\n        /* \"@openzeppelin/contracts/access/AccessControl.sol\":4300:4312  getRoleAdmin */\n      tag_39\n        /* \"@openzeppelin/contracts/access/AccessControl.sol\":4300:4318  getRoleAdmin(role) */\n      jump\t// in\n    tag_115:\n        /* \"@openzeppelin/contracts/access/AccessControl.sol\":2464:2480  _checkRole(role) */\n      tag_117\n        /* \"@openzeppelin/contracts/access/AccessControl.sol\":2475:2479  role */\n      dup2\n        /* \"@openzeppelin/contracts/access/AccessControl.sol\":2464:2474  _checkRole */\n      tag_118\n        /* \"@openzeppelin/contracts/access/AccessControl.sol\":2464:2480  _checkRole(role) */\n      jump\t// in\n    tag_117:\n        /* \"@openzeppelin/contracts/access/AccessControl.sol\":4330:4355  _grantRole(role, account) */\n      tag_120\n        /* \"@openzeppelin/contracts/access/AccessControl.sol\":4341:4345  role */\n      dup4\n        /* \"@openzeppelin/contracts/access/AccessControl.sol\":4347:4354  account */\n      dup4\n        /* \"@openzeppelin/contracts/access/AccessControl.sol\":4330:4340  _grantRole */\n      tag_121\n        /* \"@openzeppelin/contracts/access/AccessControl.sol\":4330:4355  _grantRole(role, account) */\n      jump\t// in\n    tag_120:\n      pop\n        /* \"@openzeppelin/contracts/access/AccessControl.sol\":4226:4362  function grantRole(bytes32 role, address account) public virtual onlyRole(getRoleAdmin(role)) {... */\n      pop\n      pop\n      pop\n      jump\t// out\n        /* \"@openzeppelin/contracts/access/AccessControl.sol\":5328:5573  function renounceRole(bytes32 role, address callerConfirmation) public virtual {... */\n    tag_47:\n        /* \"@openzeppelin/contracts/access/AccessControl.sol\":5443:5455  _msgSender() */\n      tag_123\n        /* \"@openzeppelin/contracts/access/AccessControl.sol\":5443:5453  _msgSender */\n      tag_124\n        /* \"@openzeppelin/contracts/access/AccessControl.sol\":5443:5455  _msgSender() */\n      jump\t// in\n    tag_123:\n        /* \"@openzeppelin/contracts/access/AccessControl.sol\":5421:5455  callerConfirmation != _msgSender() */\n      0xffffffffffffffffffffffffffffffffffffffff\n      and\n        /* \"@openzeppelin/contracts/access/AccessControl.sol\":5421:5439  callerConfirmation */\n      dup2\n        /* \"@openzeppelin/contracts/access/AccessControl.sol\":5421:5455  callerConfirmation != _msgSender() */\n      0xffffffffffffffffffffffffffffffffffffffff\n      and\n      eq\n        /* \"@openzeppelin/contracts/access/AccessControl.sol\":5417:5519  if (callerConfirmation != _msgSender()) {... */\n      tag_125\n      jumpi\n        /* \"@openzeppelin/contracts/access/AccessControl.sol\":5478:5508  AccessControlBadConfirmation() */\n      mload(0x40)\n      0x6697b23200000000000000000000000000000000000000000000000000000000\n      dup2\n      mstore\n      0x04\n      add\n      mload(0x40)\n      dup1\n      swap2\n      sub\n      swap1\n      revert\n        /* \"@openzeppelin/contracts/access/AccessControl.sol\":5417:5519  if (callerConfirmation != _msgSender()) {... */\n    tag_125:\n        /* \"@openzeppelin/contracts/access/AccessControl.sol\":5529:5566  _revokeRole(role, callerConfirmation) */\n      tag_126\n        /* \"@openzeppelin/contracts/access/AccessControl.sol\":5541:5545  role */\n      dup3\n        /* \"@openzeppelin/contracts/access/AccessControl.sol\":5547:5565  callerConfirmation */\n      dup3\n        /* \"@openzeppelin/contracts/access/AccessControl.sol\":5529:5540  _revokeRole */\n      tag_127\n        /* \"@openzeppelin/contracts/access/AccessControl.sol\":5529:5566  _revokeRole(role, callerConfirmation) */\n      jump\t// in\n    tag_126:\n      pop\n        /* \"@openzeppelin/contracts/access/AccessControl.sol\":5328:5573  function renounceRole(bytes32 role, address callerConfirmation) public virtual {... */\n      pop\n      pop\n      jump\t// out\n        /* \"contracts/VC/CredentialRegistry.sol\":1475:1670  function registerSignature(bytes32 _credentialHash, address issuer, bytes calldata signature) external returns (bool){... */\n    tag_51:\n        /* \"contracts/VC/CredentialRegistry.sol\":1587:1591  bool */\n      0x00\n        /* \"contracts/VC/CredentialRegistry.sol\":1609:1663  _registerSignature(_credentialHash, issuer, signature) */\n      tag_129\n        /* \"contracts/VC/CredentialRegistry.sol\":1628:1643  _credentialHash */\n      dup6\n        /* \"contracts/VC/CredentialRegistry.sol\":1645:1651  issuer */\n      dup6\n        /* \"contracts/VC/CredentialRegistry.sol\":1653:1662  signature */\n      dup6\n      dup6\n        /* \"contracts/VC/CredentialRegistry.sol\":1609:1627  _registerSignature */\n      tag_130\n        /* \"contracts/VC/CredentialRegistry.sol\":1609:1663  _registerSignature(_credentialHash, issuer, signature) */\n      jump\t// in\n    tag_129:\n        /* \"contracts/VC/CredentialRegistry.sol\":1602:1663  return _registerSignature(_credentialHash, issuer, signature) */\n      swap1\n      pop\n        /* \"contracts/VC/CredentialRegistry.sol\":1475:1670  function registerSignature(bytes32 _credentialHash, address issuer, bytes calldata signature) external returns (bool){... */\n      swap5\n      swap4\n      pop\n      pop\n      pop\n      pop\n      jump\t// out\n        /* \"contracts/VC/CredentialRegistry.sol\":4349:5308  function isSigner(bytes32 _credentialHash, address _issuer, bytes memory _signature) external view returns (bool){... */\n    tag_56:\n        /* \"contracts/VC/CredentialRegistry.sol\":4457:4461  bool */\n      0x00\n        /* \"contracts/VC/CredentialRegistry.sol\":4472:4508  CredentialMetadata memory credential */\n      dup1\n        /* \"contracts/VC/CredentialRegistry.sol\":4511:4522  credentials */\n      0x01\n        /* \"contracts/VC/CredentialRegistry.sol\":4511:4539  credentials[_credentialHash] */\n      0x00\n        /* \"contracts/VC/CredentialRegistry.sol\":4523:4538  _credentialHash */\n      dup7\n        /* \"contracts/VC/CredentialRegistry.sol\":4511:4539  credentials[_credentialHash] */\n      dup2\n      mstore\n      0x20\n      add\n      swap1\n      dup2\n      mstore\n      0x20\n      add\n      0x00\n      keccak256\n        /* \"contracts/VC/CredentialRegistry.sol\":4511:4548  credentials[_credentialHash][_issuer] */\n      0x00\n        /* \"contracts/VC/CredentialRegistry.sol\":4540:4547  _issuer */\n      dup6\n        /* \"contracts/VC/CredentialRegistry.sol\":4511:4548  credentials[_credentialHash][_issuer] */\n      0xffffffffffffffffffffffffffffffffffffffff\n      and\n      0xffffffffffffffffffffffffffffffffffffffff\n      and\n      dup2\n      mstore\n      0x20\n      add\n      swap1\n      dup2\n      mstore\n      0x20\n      add\n      0x00\n      keccak256\n        /* \"contracts/VC/CredentialRegistry.sol\":4472:4548  CredentialMetadata memory credential = credentials[_credentialHash][_issuer] */\n      mload(0x40)\n      dup1\n      0xc0\n      add\n      0x40\n      mstore\n      swap1\n      dup2\n      0x00\n      dup3\n      add\n      0x00\n      swap1\n      sload\n      swap1\n      0x0100\n      exp\n      swap1\n      div\n      0xffffffffffffffffffffffffffffffffffffffff\n      and\n      0xffffffffffffffffffffffffffffffffffffffff\n      and\n      0xffffffffffffffffffffffffffffffffffffffff\n      and\n      dup2\n      mstore\n      0x20\n      add\n      0x01\n      dup3\n      add\n      0x00\n      swap1\n      sload\n      swap1\n      0x0100\n      exp\n      swap1\n      div\n      0xffffffffffffffffffffffffffffffffffffffff\n      and\n      0xffffffffffffffffffffffffffffffffffffffff\n      and\n      0xffffffffffffffffffffffffffffffffffffffff\n      and\n      dup2\n      mstore\n      0x20\n      add\n      0x02\n      dup3\n      add\n      sload\n      dup2\n      mstore\n      0x20\n      add\n      0x03\n      dup3\n      add\n      sload\n      dup2\n      mstore\n      0x20\n      add\n      0x04\n      dup3\n      add\n      dup1\n      sload\n      dup1\n      0x20\n      mul\n      0x20\n      add\n      mload(0x40)\n      swap1\n      dup2\n      add\n      0x40\n      mstore\n      dup1\n      swap3\n      swap2\n      swap1\n      dup2\n      dup2\n      mstore\n      0x20\n      add\n      0x00\n      swap1\n    tag_132:\n      dup3\n      dup3\n      lt\n      iszero\n      tag_133\n      jumpi\n      dup4\n      dup3\n      swap1\n      0x00\n      mstore\n      keccak256(0x00, 0x20)\n      swap1\n      0x03\n      mul\n      add\n      mload(0x40)\n      dup1\n      0x60\n      add\n      0x40\n      mstore\n      swap1\n      dup2\n      0x00\n      dup3\n      add\n      sload\n      dup2\n      mstore\n      0x20\n      add\n      0x01\n      dup3\n      add\n      sload\n      dup2\n      mstore\n      0x20\n      add\n      0x02\n      dup3\n      add\n      0x00\n      swap1\n      sload\n      swap1\n      0x0100\n      exp\n      swap1\n      div\n      0xff\n      and\n      0xff\n      and\n      0xff\n      and\n      dup2\n      mstore\n      pop\n      pop\n      dup2\n      mstore\n      0x20\n      add\n      swap1\n      0x01\n      add\n      swap1\n      jump(tag_132)\n    tag_133:\n      pop\n      pop\n      pop\n      pop\n      dup2\n      mstore\n      0x20\n      add\n      0x05\n      dup3\n      add\n      0x00\n      swap1\n      sload\n      swap1\n      0x0100\n      exp\n      swap1\n      div\n      0xff\n      and\n      iszero\n      iszero\n      iszero\n      iszero\n      dup2\n      mstore\n      pop\n      pop\n      swap1\n      pop\n        /* \"contracts/VC/CredentialRegistry.sol\":4596:4597  0 */\n      0x00\n        /* \"contracts/VC/CredentialRegistry.sol\":4566:4598  credential.subject != address(0) */\n      0xffffffffffffffffffffffffffffffffffffffff\n      and\n        /* \"contracts/VC/CredentialRegistry.sol\":4566:4576  credential */\n      dup2\n        /* \"contracts/VC/CredentialRegistry.sol\":4566:4584  credential.subject */\n      0x20\n      add\n      mload\n        /* \"contracts/VC/CredentialRegistry.sol\":4566:4598  credential.subject != address(0) */\n      0xffffffffffffffffffffffffffffffffffffffff\n      and\n      sub\n        /* \"contracts/VC/CredentialRegistry.sol\":4558:4628  require(credential.subject != address(0), \"Credential doesn't exists\") */\n      tag_135\n      jumpi\n      mload(0x40)\n      0x08c379a000000000000000000000000000000000000000000000000000000000\n      dup2\n      mstore\n      0x04\n      add\n      tag_136\n      swap1\n      tag_137\n      jump\t// in\n    tag_136:\n      mload(0x40)\n      dup1\n      swap2\n      sub\n      swap1\n      revert\n    tag_135:\n        /* \"contracts/VC/CredentialRegistry.sol\":4685:4694  bytes32 r */\n      0x00\n        /* \"contracts/VC/CredentialRegistry.sol\":4704:4713  bytes32 s */\n      dup1\n        /* \"contracts/VC/CredentialRegistry.sol\":4723:4730  uint8 v */\n      0x00\n        /* \"contracts/VC/CredentialRegistry.sol\":4790:4794  0x20 */\n      0x20\n        /* \"contracts/VC/CredentialRegistry.sol\":4778:4788  _signature */\n      dup7\n        /* \"contracts/VC/CredentialRegistry.sol\":4774:4795  add(_signature, 0x20) */\n      add\n        /* \"contracts/VC/CredentialRegistry.sol\":4768:4796  mload(add(_signature, 0x20)) */\n      mload\n        /* \"contracts/VC/CredentialRegistry.sol\":4763:4796  r := mload(add(_signature, 0x20)) */\n      swap3\n      pop\n        /* \"contracts/VC/CredentialRegistry.sol\":4836:4840  0x40 */\n      0x40\n        /* \"contracts/VC/CredentialRegistry.sol\":4824:4834  _signature */\n      dup7\n        /* \"contracts/VC/CredentialRegistry.sol\":4820:4841  add(_signature, 0x40) */\n      add\n        /* \"contracts/VC/CredentialRegistry.sol\":4814:4842  mload(add(_signature, 0x40)) */\n      mload\n        /* \"contracts/VC/CredentialRegistry.sol\":4809:4842  s := mload(add(_signature, 0x40)) */\n      swap2\n      pop\n        /* \"contracts/VC/CredentialRegistry.sol\":4890:4894  0x60 */\n      0x60\n        /* \"contracts/VC/CredentialRegistry.sol\":4878:4888  _signature */\n      dup7\n        /* \"contracts/VC/CredentialRegistry.sol\":4874:4895  add(_signature, 0x60) */\n      add\n        /* \"contracts/VC/CredentialRegistry.sol\":4868:4896  mload(add(_signature, 0x60)) */\n      mload\n        /* \"contracts/VC/CredentialRegistry.sol\":4865:4866  0 */\n      0x00\n        /* \"contracts/VC/CredentialRegistry.sol\":4860:4897  byte(0, mload(add(_signature, 0x60))) */\n      byte\n        /* \"contracts/VC/CredentialRegistry.sol\":4855:4897  v := byte(0, mload(add(_signature, 0x60))) */\n      swap1\n      pop\n        /* \"contracts/VC/CredentialRegistry.sol\":4916:4946  Signature memory _newSignature */\n      0x00\n        /* \"contracts/VC/CredentialRegistry.sol\":4949:4967  Signature(r, s, v) */\n      mload(0x40)\n      dup1\n      0x60\n      add\n      0x40\n      mstore\n      dup1\n        /* \"contracts/VC/CredentialRegistry.sol\":4959:4960  r */\n      dup6\n        /* \"contracts/VC/CredentialRegistry.sol\":4949:4967  Signature(r, s, v) */\n      dup2\n      mstore\n      0x20\n      add\n        /* \"contracts/VC/CredentialRegistry.sol\":4962:4963  s */\n      dup5\n        /* \"contracts/VC/CredentialRegistry.sol\":4949:4967  Signature(r, s, v) */\n      dup2\n      mstore\n      0x20\n      add\n        /* \"contracts/VC/CredentialRegistry.sol\":4965:4966  v */\n      dup4\n        /* \"contracts/VC/CredentialRegistry.sol\":4949:4967  Signature(r, s, v) */\n      0xff\n      and\n      dup2\n      mstore\n      pop\n        /* \"contracts/VC/CredentialRegistry.sol\":4916:4967  Signature memory _newSignature = Signature(r, s, v) */\n      swap1\n      pop\n        /* \"contracts/VC/CredentialRegistry.sol\":4977:4991  bool signExist */\n      0x00\n        /* \"contracts/VC/CredentialRegistry.sol\":5009:5016  uint8 i */\n      dup1\n        /* \"contracts/VC/CredentialRegistry.sol\":5030:5275  while (i < credential.signatures.length && !signExist) {... */\n    tag_138:\n        /* \"contracts/VC/CredentialRegistry.sol\":5041:5051  credential */\n      dup7\n        /* \"contracts/VC/CredentialRegistry.sol\":5041:5062  credential.signatures */\n      0x80\n      add\n      mload\n        /* \"contracts/VC/CredentialRegistry.sol\":5041:5069  credential.signatures.length */\n      mload\n        /* \"contracts/VC/CredentialRegistry.sol\":5037:5038  i */\n      dup2\n        /* \"contracts/VC/CredentialRegistry.sol\":5037:5069  i < credential.signatures.length */\n      0xff\n      and\n      lt\n        /* \"contracts/VC/CredentialRegistry.sol\":5037:5083  i < credential.signatures.length && !signExist */\n      dup1\n      iszero\n      tag_140\n      jumpi\n      pop\n        /* \"contracts/VC/CredentialRegistry.sol\":5074:5083  signExist */\n      dup2\n        /* \"contracts/VC/CredentialRegistry.sol\":5073:5083  !signExist */\n      iszero\n        /* \"contracts/VC/CredentialRegistry.sol\":5037:5083  i < credential.signatures.length && !signExist */\n    tag_140:\n        /* \"contracts/VC/CredentialRegistry.sol\":5030:5275  while (i < credential.signatures.length && !signExist) {... */\n      iszero\n      tag_139\n      jumpi\n        /* \"contracts/VC/CredentialRegistry.sol\":5133:5146  _newSignature */\n      dup3\n        /* \"contracts/VC/CredentialRegistry.sol\":5133:5148  _newSignature.r */\n      0x00\n      add\n      mload\n        /* \"contracts/VC/CredentialRegistry.sol\":5103:5113  credential */\n      dup8\n        /* \"contracts/VC/CredentialRegistry.sol\":5103:5124  credential.signatures */\n      0x80\n      add\n      mload\n        /* \"contracts/VC/CredentialRegistry.sol\":5125:5126  i */\n      dup3\n        /* \"contracts/VC/CredentialRegistry.sol\":5103:5127  credential.signatures[i] */\n      0xff\n      and\n      dup2\n      mload\n      dup2\n      lt\n      tag_141\n      jumpi\n      tag_142\n      tag_143\n      jump\t// in\n    tag_142:\n    tag_141:\n      0x20\n      mul\n      0x20\n      add\n      add\n      mload\n        /* \"contracts/VC/CredentialRegistry.sol\":5103:5129  credential.signatures[i].r */\n      0x00\n      add\n      mload\n        /* \"contracts/VC/CredentialRegistry.sol\":5103:5148  credential.signatures[i].r == _newSignature.r */\n      eq\n        /* \"contracts/VC/CredentialRegistry.sol\":5103:5197  credential.signatures[i].r == _newSignature.r && credential.signatures[i].s == _newSignature.s */\n      dup1\n      iszero\n      tag_144\n      jumpi\n      pop\n        /* \"contracts/VC/CredentialRegistry.sol\":5182:5195  _newSignature */\n      dup3\n        /* \"contracts/VC/CredentialRegistry.sol\":5182:5197  _newSignature.s */\n      0x20\n      add\n      mload\n        /* \"contracts/VC/CredentialRegistry.sol\":5152:5162  credential */\n      dup8\n        /* \"contracts/VC/CredentialRegistry.sol\":5152:5173  credential.signatures */\n      0x80\n      add\n      mload\n        /* \"contracts/VC/CredentialRegistry.sol\":5174:5175  i */\n      dup3\n        /* \"contracts/VC/CredentialRegistry.sol\":5152:5176  credential.signatures[i] */\n      0xff\n      and\n      dup2\n      mload\n      dup2\n      lt\n      tag_145\n      jumpi\n      tag_146\n      tag_143\n      jump\t// in\n    tag_146:\n    tag_145:\n      0x20\n      mul\n      0x20\n      add\n      add\n      mload\n        /* \"contracts/VC/CredentialRegistry.sol\":5152:5178  credential.signatures[i].s */\n      0x20\n      add\n      mload\n        /* \"contracts/VC/CredentialRegistry.sol\":5152:5197  credential.signatures[i].s == _newSignature.s */\n      eq\n        /* \"contracts/VC/CredentialRegistry.sol\":5103:5197  credential.signatures[i].r == _newSignature.r && credential.signatures[i].s == _newSignature.s */\n    tag_144:\n        /* \"contracts/VC/CredentialRegistry.sol\":5099:5248  if (credential.signatures[i].r == _newSignature.r && credential.signatures[i].s == _newSignature.s) {... */\n      iszero\n      tag_147\n      jumpi\n        /* \"contracts/VC/CredentialRegistry.sol\":5229:5233  true */\n      0x01\n        /* \"contracts/VC/CredentialRegistry.sol\":5217:5233  signExist = true */\n      swap2\n      pop\n        /* \"contracts/VC/CredentialRegistry.sol\":5099:5248  if (credential.signatures[i].r == _newSignature.r && credential.signatures[i].s == _newSignature.s) {... */\n    tag_147:\n        /* \"contracts/VC/CredentialRegistry.sol\":5261:5264  i++ */\n      dup1\n      dup1\n      tag_148\n      swap1\n      tag_149\n      jump\t// in\n    tag_148:\n      swap2\n      pop\n      pop\n        /* \"contracts/VC/CredentialRegistry.sol\":5030:5275  while (i < credential.signatures.length && !signExist) {... */\n      jump(tag_138)\n    tag_139:\n        /* \"contracts/VC/CredentialRegistry.sol\":5292:5301  signExist */\n      dup2\n        /* \"contracts/VC/CredentialRegistry.sol\":5285:5301  return signExist */\n      swap8\n      pop\n      pop\n      pop\n      pop\n      pop\n      pop\n      pop\n      pop\n        /* \"contracts/VC/CredentialRegistry.sol\":4349:5308  function isSigner(bytes32 _credentialHash, address _issuer, bytes memory _signature) external view returns (bool){... */\n      swap4\n      swap3\n      pop\n      pop\n      pop\n      jump\t// out\n        /* \"contracts/VC/CredentialRegistry.sol\":556:1469  function registerCredential(... */\n    tag_61:\n        /* \"contracts/VC/CredentialRegistry.sol\":799:803  bool */\n      0x00\n        /* \"contracts/VC/CredentialRegistry.sol\":5514:5546  hasRole(ISSUER_ROLE, msg.sender) */\n      tag_151\n        /* \"contracts/VC/CredentialRegistry.sol\":308:332  keccak256(\"ISSUER_ROLE\") */\n      0x114e74f6ea3bd819998f78687bfcb11b140da08e9b7d222fa9c1f1ba1f2aa122\n        /* \"contracts/VC/CredentialRegistry.sol\":5535:5545  msg.sender */\n      caller\n        /* \"contracts/VC/CredentialRegistry.sol\":5514:5521  hasRole */\n      tag_79\n        /* \"contracts/VC/CredentialRegistry.sol\":5514:5546  hasRole(ISSUER_ROLE, msg.sender) */\n      jump\t// in\n    tag_151:\n        /* \"contracts/VC/CredentialRegistry.sol\":5506:5575  require(hasRole(ISSUER_ROLE, msg.sender), \"Caller is not a issuer 2\") */\n      tag_152\n      jumpi\n      mload(0x40)\n      0x08c379a000000000000000000000000000000000000000000000000000000000\n      dup2\n      mstore\n      0x04\n      add\n      tag_153\n      swap1\n      tag_154\n      jump\t// in\n    tag_153:\n      mload(0x40)\n      dup1\n      swap2\n      sub\n      swap1\n      revert\n    tag_152:\n        /* \"contracts/VC/CredentialRegistry.sol\":816:853  CredentialMetadata storage credential */\n      0x00\n        /* \"contracts/VC/CredentialRegistry.sol\":856:867  credentials */\n      0x01\n        /* \"contracts/VC/CredentialRegistry.sol\":856:884  credentials[_credentialHash] */\n      0x00\n        /* \"contracts/VC/CredentialRegistry.sol\":868:883  _credentialHash */\n      dup9\n        /* \"contracts/VC/CredentialRegistry.sol\":856:884  credentials[_credentialHash] */\n      dup2\n      mstore\n      0x20\n      add\n      swap1\n      dup2\n      mstore\n      0x20\n      add\n      0x00\n      keccak256\n        /* \"contracts/VC/CredentialRegistry.sol\":856:892  credentials[_credentialHash][issuer] */\n      0x00\n        /* \"contracts/VC/CredentialRegistry.sol\":885:891  issuer */\n      dup11\n        /* \"contracts/VC/CredentialRegistry.sol\":856:892  credentials[_credentialHash][issuer] */\n      0xffffffffffffffffffffffffffffffffffffffff\n      and\n      0xffffffffffffffffffffffffffffffffffffffff\n      and\n      dup2\n      mstore\n      0x20\n      add\n      swap1\n      dup2\n      mstore\n      0x20\n      add\n      0x00\n      keccak256\n        /* \"contracts/VC/CredentialRegistry.sol\":816:892  CredentialMetadata storage credential = credentials[_credentialHash][issuer] */\n      swap1\n      pop\n        /* \"contracts/VC/CredentialRegistry.sol\":940:941  0 */\n      0x00\n        /* \"contracts/VC/CredentialRegistry.sol\":910:942  credential.subject == address(0) */\n      0xffffffffffffffffffffffffffffffffffffffff\n      and\n        /* \"contracts/VC/CredentialRegistry.sol\":910:920  credential */\n      dup2\n        /* \"contracts/VC/CredentialRegistry.sol\":910:928  credential.subject */\n      0x01\n      add\n      0x00\n      swap1\n      sload\n      swap1\n      0x0100\n      exp\n      swap1\n      div\n      0xffffffffffffffffffffffffffffffffffffffff\n      and\n        /* \"contracts/VC/CredentialRegistry.sol\":910:942  credential.subject == address(0) */\n      0xffffffffffffffffffffffffffffffffffffffff\n      and\n      eq\n        /* \"contracts/VC/CredentialRegistry.sol\":902:972  require(credential.subject == address(0), \"Credential already exists\") */\n      tag_156\n      jumpi\n      mload(0x40)\n      0x08c379a000000000000000000000000000000000000000000000000000000000\n      dup2\n      mstore\n      0x04\n      add\n      tag_157\n      swap1\n      tag_158\n      jump\t// in\n    tag_157:\n      mload(0x40)\n      dup1\n      swap2\n      sub\n      swap1\n      revert\n    tag_156:\n        /* \"contracts/VC/CredentialRegistry.sol\":1002:1008  issuer */\n      dup9\n        /* \"contracts/VC/CredentialRegistry.sol\":982:992  credential */\n      dup2\n        /* \"contracts/VC/CredentialRegistry.sol\":982:999  credential.issuer */\n      0x00\n      add\n      0x00\n        /* \"contracts/VC/CredentialRegistry.sol\":982:1008  credential.issuer = issuer */\n      0x0100\n      exp\n      dup2\n      sload\n      dup2\n      0xffffffffffffffffffffffffffffffffffffffff\n      mul\n      not\n      and\n      swap1\n      dup4\n      0xffffffffffffffffffffffffffffffffffffffff\n      and\n      mul\n      or\n      swap1\n      sstore\n      pop\n        /* \"contracts/VC/CredentialRegistry.sol\":1039:1047  _subject */\n      dup8\n        /* \"contracts/VC/CredentialRegistry.sol\":1018:1028  credential */\n      dup2\n        /* \"contracts/VC/CredentialRegistry.sol\":1018:1036  credential.subject */\n      0x01\n      add\n      0x00\n        /* \"contracts/VC/CredentialRegistry.sol\":1018:1047  credential.subject = _subject */\n      0x0100\n      exp\n      dup2\n      sload\n      dup2\n      0xffffffffffffffffffffffffffffffffffffffff\n      mul\n      not\n      and\n      swap1\n      dup4\n      0xffffffffffffffffffffffffffffffffffffffff\n      and\n      mul\n      or\n      swap1\n      sstore\n      pop\n        /* \"contracts/VC/CredentialRegistry.sol\":1080:1085  _from */\n      dup6\n        /* \"contracts/VC/CredentialRegistry.sol\":1057:1067  credential */\n      dup2\n        /* \"contracts/VC/CredentialRegistry.sol\":1057:1077  credential.validFrom */\n      0x02\n      add\n        /* \"contracts/VC/CredentialRegistry.sol\":1057:1085  credential.validFrom = _from */\n      dup2\n      swap1\n      sstore\n      pop\n        /* \"contracts/VC/CredentialRegistry.sol\":1116:1120  _exp */\n      dup5\n        /* \"contracts/VC/CredentialRegistry.sol\":1095:1105  credential */\n      dup2\n        /* \"contracts/VC/CredentialRegistry.sol\":1095:1113  credential.validTo */\n      0x03\n      add\n        /* \"contracts/VC/CredentialRegistry.sol\":1095:1120  credential.validTo = _exp */\n      dup2\n      swap1\n      sstore\n      pop\n        /* \"contracts/VC/CredentialRegistry.sol\":1150:1154  true */\n      0x01\n        /* \"contracts/VC/CredentialRegistry.sol\":1130:1140  credential */\n      dup2\n        /* \"contracts/VC/CredentialRegistry.sol\":1130:1147  credential.status */\n      0x05\n      add\n      0x00\n        /* \"contracts/VC/CredentialRegistry.sol\":1130:1154  credential.status = true */\n      0x0100\n      exp\n      dup2\n      sload\n      dup2\n      0xff\n      mul\n      not\n      and\n      swap1\n      dup4\n      iszero\n      iszero\n      mul\n      or\n      swap1\n      sstore\n      pop\n        /* \"contracts/VC/CredentialRegistry.sol\":1203:1213  credential */\n      dup1\n        /* \"contracts/VC/CredentialRegistry.sol\":1164:1175  credentials */\n      0x01\n        /* \"contracts/VC/CredentialRegistry.sol\":1164:1192  credentials[_credentialHash] */\n      0x00\n        /* \"contracts/VC/CredentialRegistry.sol\":1176:1191  _credentialHash */\n      dup10\n        /* \"contracts/VC/CredentialRegistry.sol\":1164:1192  credentials[_credentialHash] */\n      dup2\n      mstore\n      0x20\n      add\n      swap1\n      dup2\n      mstore\n      0x20\n      add\n      0x00\n      keccak256\n        /* \"contracts/VC/CredentialRegistry.sol\":1164:1200  credentials[_credentialHash][issuer] */\n      0x00\n        /* \"contracts/VC/CredentialRegistry.sol\":1193:1199  issuer */\n      dup12\n        /* \"contracts/VC/CredentialRegistry.sol\":1164:1200  credentials[_credentialHash][issuer] */\n      0xffffffffffffffffffffffffffffffffffffffff\n      and\n      0xffffffffffffffffffffffffffffffffffffffff\n      and\n      dup2\n      mstore\n      0x20\n      add\n      swap1\n      dup2\n      mstore\n      0x20\n      add\n      0x00\n      keccak256\n        /* \"contracts/VC/CredentialRegistry.sol\":1164:1213  credentials[_credentialHash][issuer] = credential */\n      0x00\n      dup3\n      add\n      0x00\n      swap1\n      sload\n      swap1\n      0x0100\n      exp\n      swap1\n      div\n      0xffffffffffffffffffffffffffffffffffffffff\n      and\n      dup2\n      0x00\n      add\n      exp(0x0100, 0x00)\n      dup2\n      sload\n      dup2\n      0xffffffffffffffffffffffffffffffffffffffff\n      mul\n      not\n      and\n      swap1\n      dup4\n      0xffffffffffffffffffffffffffffffffffffffff\n      and\n      mul\n      or\n      swap1\n      sstore\n      pop\n      0x01\n      dup3\n      add\n      0x00\n      swap1\n      sload\n      swap1\n      0x0100\n      exp\n      swap1\n      div\n      0xffffffffffffffffffffffffffffffffffffffff\n      and\n      dup2\n      0x01\n      add\n      exp(0x0100, 0x00)\n      dup2\n      sload\n      dup2\n      0xffffffffffffffffffffffffffffffffffffffff\n      mul\n      not\n      and\n      swap1\n      dup4\n      0xffffffffffffffffffffffffffffffffffffffff\n      and\n      mul\n      or\n      swap1\n      sstore\n      pop\n      0x02\n      dup3\n      add\n      sload\n      dup2\n      0x02\n      add\n      sstore\n      0x03\n      dup3\n      add\n      sload\n      dup2\n      0x03\n      add\n      sstore\n      0x04\n      dup3\n      add\n      dup2\n      0x04\n      add\n      swap1\n      dup1\n      sload\n      tag_159\n      swap3\n      swap2\n      swap1\n      tag_160\n      jump\t// in\n    tag_159:\n      pop\n      0x05\n      dup3\n      add\n      0x00\n      swap1\n      sload\n      swap1\n      0x0100\n      exp\n      swap1\n      div\n      0xff\n      and\n      dup2\n      0x05\n      add\n      exp(0x0100, 0x00)\n      dup2\n      sload\n      dup2\n      0xff\n      mul\n      not\n      and\n      swap1\n      dup4\n      iszero\n      iszero\n      mul\n      or\n      swap1\n      sstore\n      pop\n      swap1\n      pop\n      pop\n        /* \"contracts/VC/CredentialRegistry.sol\":1223:1231  bool res */\n      0x00\n        /* \"contracts/VC/CredentialRegistry.sol\":1234:1286  _registerSignature(_credentialHash,issuer,signature) */\n      tag_161\n        /* \"contracts/VC/CredentialRegistry.sol\":1253:1268  _credentialHash */\n      dup9\n        /* \"contracts/VC/CredentialRegistry.sol\":1269:1275  issuer */\n      dup12\n        /* \"contracts/VC/CredentialRegistry.sol\":1276:1285  signature */\n      dup8\n      dup8\n        /* \"contracts/VC/CredentialRegistry.sol\":1234:1252  _registerSignature */\n      tag_130\n        /* \"contracts/VC/CredentialRegistry.sol\":1234:1286  _registerSignature(_credentialHash,issuer,signature) */\n      jump\t// in\n    tag_161:\n        /* \"contracts/VC/CredentialRegistry.sol\":1223:1286  bool res = _registerSignature(_credentialHash,issuer,signature) */\n      swap1\n      pop\n        /* \"contracts/VC/CredentialRegistry.sol\":1306:1309  res */\n      dup1\n        /* \"contracts/VC/CredentialRegistry.sol\":1297:1349  require (res, \"Imposible to complete the signature\") */\n      tag_162\n      jumpi\n      mload(0x40)\n      0x08c379a000000000000000000000000000000000000000000000000000000000\n      dup2\n      mstore\n      0x04\n      add\n      tag_163\n      swap1\n      tag_164\n      jump\t// in\n    tag_163:\n      mload(0x40)\n      dup1\n      swap2\n      sub\n      swap1\n      revert\n    tag_162:\n        /* \"contracts/VC/CredentialRegistry.sol\":1385:1400  _credentialHash */\n      dup8\n        /* \"contracts/VC/CredentialRegistry.sol\":1364:1441  CredentialRegistered(_credentialHash, issuer, _subject, credential.validFrom) */\n      0x889569e4303664728fba29a472b24d3032707e6ebbee9a46e070c5c8f2ae4c25\n        /* \"contracts/VC/CredentialRegistry.sol\":1402:1408  issuer */\n      dup12\n        /* \"contracts/VC/CredentialRegistry.sol\":1410:1418  _subject */\n      dup12\n        /* \"contracts/VC/CredentialRegistry.sol\":1420:1430  credential */\n      dup6\n        /* \"contracts/VC/CredentialRegistry.sol\":1420:1440  credential.validFrom */\n      0x02\n      add\n      sload\n        /* \"contracts/VC/CredentialRegistry.sol\":1364:1441  CredentialRegistered(_credentialHash, issuer, _subject, credential.validFrom) */\n      mload(0x40)\n      tag_165\n      swap4\n      swap3\n      swap2\n      swap1\n      tag_166\n      jump\t// in\n    tag_165:\n      mload(0x40)\n      dup1\n      swap2\n      sub\n      swap1\n      log2\n        /* \"contracts/VC/CredentialRegistry.sol\":1458:1462  true */\n      0x01\n        /* \"contracts/VC/CredentialRegistry.sol\":1451:1462  return true */\n      swap3\n      pop\n      pop\n      pop\n        /* \"contracts/VC/CredentialRegistry.sol\":556:1469  function registerCredential(... */\n      swap8\n      swap7\n      pop\n      pop\n      pop\n      pop\n      pop\n      pop\n      pop\n      jump\t// out\n        /* \"contracts/VC/CredentialRegistry.sol\":270:332  bytes32 public constant ISSUER_ROLE = keccak256(\"ISSUER_ROLE\") */\n    tag_64:\n        /* \"contracts/VC/CredentialRegistry.sol\":308:332  keccak256(\"ISSUER_ROLE\") */\n      0x114e74f6ea3bd819998f78687bfcb11b140da08e9b7d222fa9c1f1ba1f2aa122\n        /* \"contracts/VC/CredentialRegistry.sol\":270:332  bytes32 public constant ISSUER_ROLE = keccak256(\"ISSUER_ROLE\") */\n      dup2\n      jump\t// out\n        /* \"contracts/VC/CredentialRegistry.sol\":2690:2822  function verifyIssuer(address issuer, address signer) external pure returns (bool isValid){... */\n    tag_69:\n        /* \"contracts/VC/CredentialRegistry.sol\":2767:2779  bool isValid */\n      0x00\n        /* \"contracts/VC/CredentialRegistry.sol\":2808:2814  signer */\n      dup2\n        /* \"contracts/VC/CredentialRegistry.sol\":2798:2814  issuer == signer */\n      0xffffffffffffffffffffffffffffffffffffffff\n      and\n        /* \"contracts/VC/CredentialRegistry.sol\":2798:2804  issuer */\n      dup4\n        /* \"contracts/VC/CredentialRegistry.sol\":2798:2814  issuer == signer */\n      0xffffffffffffffffffffffffffffffffffffffff\n      and\n      eq\n        /* \"contracts/VC/CredentialRegistry.sol\":2790:2815  return (issuer == signer) */\n      swap1\n      pop\n        /* \"contracts/VC/CredentialRegistry.sol\":2690:2822  function verifyIssuer(address issuer, address signer) external pure returns (bool isValid){... */\n      swap3\n      swap2\n      pop\n      pop\n      jump\t// out\n        /* \"contracts/VC/CredentialRegistry.sol\":5314:5468  function getIssuer(bytes32 digest, uint8 v, bytes32 r, bytes32 s) external pure returns (address issuer){... */\n    tag_74:\n        /* \"contracts/VC/CredentialRegistry.sol\":5403:5417  address issuer */\n      0x00\n        /* \"contracts/VC/CredentialRegistry.sol\":5435:5461  ecrecover(digest, v, r, s) */\n      0x01\n        /* \"contracts/VC/CredentialRegistry.sol\":5445:5451  digest */\n      dup6\n        /* \"contracts/VC/CredentialRegistry.sol\":5453:5454  v */\n      dup6\n        /* \"contracts/VC/CredentialRegistry.sol\":5456:5457  r */\n      dup6\n        /* \"contracts/VC/CredentialRegistry.sol\":5459:5460  s */\n      dup6\n        /* \"contracts/VC/CredentialRegistry.sol\":5435:5461  ecrecover(digest, v, r, s) */\n      mload(0x40)\n      0x00\n      dup2\n      mstore\n      0x20\n      add\n      0x40\n      mstore\n      mload(0x40)\n      tag_169\n      swap5\n      swap4\n      swap3\n      swap2\n      swap1\n      tag_170\n      jump\t// in\n    tag_169:\n      0x20\n      mload(0x40)\n      0x20\n      dup2\n      sub\n      swap1\n      dup1\n      dup5\n      sub\n      swap1\n      dup6\n      gas\n      staticcall\n      iszero\n      dup1\n      iszero\n      tag_172\n      jumpi\n      returndatasize\n      0x00\n      dup1\n      returndatacopy\n      revert(0x00, returndatasize)\n    tag_172:\n      pop\n      pop\n      pop\n      mload(sub(mload(0x40), 0x20))\n        /* \"contracts/VC/CredentialRegistry.sol\":5428:5461  return ecrecover(digest, v, r, s) */\n      swap1\n      pop\n        /* \"contracts/VC/CredentialRegistry.sol\":5314:5468  function getIssuer(bytes32 digest, uint8 v, bytes32 r, bytes32 s) external pure returns (address issuer){... */\n      swap5\n      swap4\n      pop\n      pop\n      pop\n      pop\n      jump\t// out\n        /* \"@openzeppelin/contracts/access/AccessControl.sol\":2854:2990  function hasRole(bytes32 role, address account) public view virtual returns (bool) {... */\n    tag_79:\n        /* \"@openzeppelin/contracts/access/AccessControl.sol\":2931:2935  bool */\n      0x00\n        /* \"@openzeppelin/contracts/access/AccessControl.sol\":2954:2960  _roles */\n      dup1\n        /* \"@openzeppelin/contracts/access/AccessControl.sol\":2954:2966  _roles[role] */\n      0x00\n        /* \"@openzeppelin/contracts/access/AccessControl.sol\":2961:2965  role */\n      dup5\n        /* \"@openzeppelin/contracts/access/AccessControl.sol\":2954:2966  _roles[role] */\n      dup2\n      mstore\n      0x20\n      add\n      swap1\n      dup2\n      mstore\n      0x20\n      add\n      0x00\n      keccak256\n        /* \"@openzeppelin/contracts/access/AccessControl.sol\":2954:2974  _roles[role].hasRole */\n      0x00\n      add\n        /* \"@openzeppelin/contracts/access/AccessControl.sol\":2954:2983  _roles[role].hasRole[account] */\n      0x00\n        /* \"@openzeppelin/contracts/access/AccessControl.sol\":2975:2982  account */\n      dup4\n        /* \"@openzeppelin/contracts/access/AccessControl.sol\":2954:2983  _roles[role].hasRole[account] */\n      0xffffffffffffffffffffffffffffffffffffffff\n      and\n      0xffffffffffffffffffffffffffffffffffffffff\n      and\n      dup2\n      mstore\n      0x20\n      add\n      swap1\n      dup2\n      mstore\n      0x20\n      add\n      0x00\n      keccak256\n      0x00\n      swap1\n      sload\n      swap1\n      0x0100\n      exp\n      swap1\n      div\n      0xff\n      and\n        /* \"@openzeppelin/contracts/access/AccessControl.sol\":2947:2983  return _roles[role].hasRole[account] */\n      swap1\n      pop\n        /* \"@openzeppelin/contracts/access/AccessControl.sol\":2854:2990  function hasRole(bytes32 role, address account) public view virtual returns (bool) {... */\n      swap3\n      swap2\n      pop\n      pop\n      jump\t// out\n        /* \"contracts/VC/CredentialRegistry.sol\":2215:2458  function exist(bytes32 _credentialHash, address issuer) override external view returns (bool exists){... */\n    tag_83:\n        /* \"contracts/VC/CredentialRegistry.sol\":2303:2314  bool exists */\n      0x00\n        /* \"contracts/VC/CredentialRegistry.sol\":2325:2361  CredentialMetadata memory credential */\n      dup1\n        /* \"contracts/VC/CredentialRegistry.sol\":2364:2375  credentials */\n      0x01\n        /* \"contracts/VC/CredentialRegistry.sol\":2364:2392  credentials[_credentialHash] */\n      0x00\n        /* \"contracts/VC/CredentialRegistry.sol\":2376:2391  _credentialHash */\n      dup6\n        /* \"contracts/VC/CredentialRegistry.sol\":2364:2392  credentials[_credentialHash] */\n      dup2\n      mstore\n      0x20\n      add\n      swap1\n      dup2\n      mstore\n      0x20\n      add\n      0x00\n      keccak256\n        /* \"contracts/VC/CredentialRegistry.sol\":2364:2400  credentials[_credentialHash][issuer] */\n      0x00\n        /* \"contracts/VC/CredentialRegistry.sol\":2393:2399  issuer */\n      dup5\n        /* \"contracts/VC/CredentialRegistry.sol\":2364:2400  credentials[_credentialHash][issuer] */\n      0xffffffffffffffffffffffffffffffffffffffff\n      and\n      0xffffffffffffffffffffffffffffffffffffffff\n      and\n      dup2\n      mstore\n      0x20\n      add\n      swap1\n      dup2\n      mstore\n      0x20\n      add\n      0x00\n      keccak256\n        /* \"contracts/VC/CredentialRegistry.sol\":2325:2400  CredentialMetadata memory credential = credentials[_credentialHash][issuer] */\n      mload(0x40)\n      dup1\n      0xc0\n      add\n      0x40\n      mstore\n      swap1\n      dup2\n      0x00\n      dup3\n      add\n      0x00\n      swap1\n      sload\n      swap1\n      0x0100\n      exp\n      swap1\n      div\n      0xffffffffffffffffffffffffffffffffffffffff\n      and\n      0xffffffffffffffffffffffffffffffffffffffff\n      and\n      0xffffffffffffffffffffffffffffffffffffffff\n      and\n      dup2\n      mstore\n      0x20\n      add\n      0x01\n      dup3\n      add\n      0x00\n      swap1\n      sload\n      swap1\n      0x0100\n      exp\n      swap1\n      div\n      0xffffffffffffffffffffffffffffffffffffffff\n      and\n      0xffffffffffffffffffffffffffffffffffffffff\n      and\n      0xffffffffffffffffffffffffffffffffffffffff\n      and\n      dup2\n      mstore\n      0x20\n      add\n      0x02\n      dup3\n      add\n      sload\n      dup2\n      mstore\n      0x20\n      add\n      0x03\n      dup3\n      add\n      sload\n      dup2\n      mstore\n      0x20\n      add\n      0x04\n      dup3\n      add\n      dup1\n      sload\n      dup1\n      0x20\n      mul\n      0x20\n      add\n      mload(0x40)\n      swap1\n      dup2\n      add\n      0x40\n      mstore\n      dup1\n      swap3\n      swap2\n      swap1\n      dup2\n      dup2\n      mstore\n      0x20\n      add\n      0x00\n      swap1\n    tag_175:\n      dup3\n      dup3\n      lt\n      iszero\n      tag_176\n      jumpi\n      dup4\n      dup3\n      swap1\n      0x00\n      mstore\n      keccak256(0x00, 0x20)\n      swap1\n      0x03\n      mul\n      add\n      mload(0x40)\n      dup1\n      0x60\n      add\n      0x40\n      mstore\n      swap1\n      dup2\n      0x00\n      dup3\n      add\n      sload\n      dup2\n      mstore\n      0x20\n      add\n      0x01\n      dup3\n      add\n      sload\n      dup2\n      mstore\n      0x20\n      add\n      0x02\n      dup3\n      add\n      0x00\n      swap1\n      sload\n      swap1\n      0x0100\n      exp\n      swap1\n      div\n      0xff\n      and\n      0xff\n      and\n      0xff\n      and\n      dup2\n      mstore\n      pop\n      pop\n      dup2\n      mstore\n      0x20\n      add\n      swap1\n      0x01\n      add\n      swap1\n      jump(tag_175)\n    tag_176:\n      pop\n      pop\n      pop\n      pop\n      dup2\n      mstore\n      0x20\n      add\n      0x05\n      dup3\n      add\n      0x00\n      swap1\n      sload\n      swap1\n      0x0100\n      exp\n      swap1\n      div\n      0xff\n      and\n      iszero\n      iszero\n      iszero\n      iszero\n      dup2\n      mstore\n      pop\n      pop\n      swap1\n      pop\n        /* \"contracts/VC/CredentialRegistry.sol\":2448:2449  0 */\n      0x00\n        /* \"contracts/VC/CredentialRegistry.sol\":2418:2450  credential.subject != address(0) */\n      0xffffffffffffffffffffffffffffffffffffffff\n      and\n        /* \"contracts/VC/CredentialRegistry.sol\":2418:2428  credential */\n      dup2\n        /* \"contracts/VC/CredentialRegistry.sol\":2418:2436  credential.subject */\n      0x20\n      add\n      mload\n        /* \"contracts/VC/CredentialRegistry.sol\":2418:2450  credential.subject != address(0) */\n      0xffffffffffffffffffffffffffffffffffffffff\n      and\n      eq\n      iszero\n        /* \"contracts/VC/CredentialRegistry.sol\":2410:2451  return (credential.subject != address(0)) */\n      swap2\n      pop\n      pop\n        /* \"contracts/VC/CredentialRegistry.sol\":2215:2458  function exist(bytes32 _credentialHash, address issuer) override external view returns (bool exists){... */\n      swap3\n      swap2\n      pop\n      pop\n      jump\t// out\n        /* \"@openzeppelin/contracts/access/AccessControl.sol\":2187:2236  bytes32 public constant DEFAULT_ADMIN_ROLE = 0x00 */\n    tag_86:\n        /* \"@openzeppelin/contracts/access/AccessControl.sol\":2232:2236  0x00 */\n      0x00\n        /* \"@openzeppelin/contracts/access/AccessControl.sol\":2187:2236  bytes32 public constant DEFAULT_ADMIN_ROLE = 0x00 */\n      dup1\n      shl\n      dup2\n      jump\t// out\n        /* \"contracts/VC/CredentialRegistry.sol\":1676:2209  function revokeCredential(bytes32 _credentialHash) external override returns (bool) {... */\n    tag_90:\n        /* \"contracts/VC/CredentialRegistry.sol\":1754:1758  bool */\n      0x00\n        /* \"contracts/VC/CredentialRegistry.sol\":1770:1807  CredentialMetadata storage credential */\n      dup1\n        /* \"contracts/VC/CredentialRegistry.sol\":1810:1821  credentials */\n      0x01\n        /* \"contracts/VC/CredentialRegistry.sol\":1810:1838  credentials[_credentialHash] */\n      0x00\n        /* \"contracts/VC/CredentialRegistry.sol\":1822:1837  _credentialHash */\n      dup5\n        /* \"contracts/VC/CredentialRegistry.sol\":1810:1838  credentials[_credentialHash] */\n      dup2\n      mstore\n      0x20\n      add\n      swap1\n      dup2\n      mstore\n      0x20\n      add\n      0x00\n      keccak256\n        /* \"contracts/VC/CredentialRegistry.sol\":1810:1850  credentials[_credentialHash][msg.sender] */\n      0x00\n        /* \"contracts/VC/CredentialRegistry.sol\":1839:1849  msg.sender */\n      caller\n        /* \"contracts/VC/CredentialRegistry.sol\":1810:1850  credentials[_credentialHash][msg.sender] */\n      0xffffffffffffffffffffffffffffffffffffffff\n      and\n      0xffffffffffffffffffffffffffffffffffffffff\n      and\n      dup2\n      mstore\n      0x20\n      add\n      swap1\n      dup2\n      mstore\n      0x20\n      add\n      0x00\n      keccak256\n        /* \"contracts/VC/CredentialRegistry.sol\":1770:1850  CredentialMetadata storage credential = credentials[_credentialHash][msg.sender] */\n      swap1\n      pop\n        /* \"contracts/VC/CredentialRegistry.sol\":1899:1900  0 */\n      0x00\n        /* \"contracts/VC/CredentialRegistry.sol\":1869:1901  credential.subject != address(0) */\n      0xffffffffffffffffffffffffffffffffffffffff\n      and\n        /* \"contracts/VC/CredentialRegistry.sol\":1869:1879  credential */\n      dup2\n        /* \"contracts/VC/CredentialRegistry.sol\":1869:1887  credential.subject */\n      0x01\n      add\n      0x00\n      swap1\n      sload\n      swap1\n      0x0100\n      exp\n      swap1\n      div\n      0xffffffffffffffffffffffffffffffffffffffff\n      and\n        /* \"contracts/VC/CredentialRegistry.sol\":1869:1901  credential.subject != address(0) */\n      0xffffffffffffffffffffffffffffffffffffffff\n      and\n      sub\n        /* \"contracts/VC/CredentialRegistry.sol\":1861:1935  require(credential.subject != address(0), \"credential hash doesn't exist\") */\n      tag_179\n      jumpi\n      mload(0x40)\n      0x08c379a000000000000000000000000000000000000000000000000000000000\n      dup2\n      mstore\n      0x04\n      add\n      tag_180\n      swap1\n      tag_181\n      jump\t// in\n    tag_180:\n      mload(0x40)\n      dup1\n      swap2\n      sub\n      swap1\n      revert\n    tag_179:\n        /* \"contracts/VC/CredentialRegistry.sol\":1953:1963  credential */\n      dup1\n        /* \"contracts/VC/CredentialRegistry.sol\":1953:1970  credential.status */\n      0x05\n      add\n      0x00\n      swap1\n      sload\n      swap1\n      0x0100\n      exp\n      swap1\n      div\n      0xff\n      and\n        /* \"contracts/VC/CredentialRegistry.sol\":1945:2004  require(credential.status, \"Credential is already revoked\") */\n      tag_182\n      jumpi\n      mload(0x40)\n      0x08c379a000000000000000000000000000000000000000000000000000000000\n      dup2\n      mstore\n      0x04\n      add\n      tag_183\n      swap1\n      tag_184\n      jump\t// in\n    tag_183:\n      mload(0x40)\n      dup1\n      swap2\n      sub\n      swap1\n      revert\n    tag_182:\n        /* \"contracts/VC/CredentialRegistry.sol\":2035:2040  false */\n      0x00\n        /* \"contracts/VC/CredentialRegistry.sol\":2015:2025  credential */\n      dup2\n        /* \"contracts/VC/CredentialRegistry.sol\":2015:2032  credential.status */\n      0x05\n      add\n      0x00\n        /* \"contracts/VC/CredentialRegistry.sol\":2015:2040  credential.status = false */\n      0x0100\n      exp\n      dup2\n      sload\n      dup2\n      0xff\n      mul\n      not\n      and\n      swap1\n      dup4\n      iszero\n      iszero\n      mul\n      or\n      swap1\n      sstore\n      pop\n        /* \"contracts/VC/CredentialRegistry.sol\":2093:2103  credential */\n      dup1\n        /* \"contracts/VC/CredentialRegistry.sol\":2050:2061  credentials */\n      0x01\n        /* \"contracts/VC/CredentialRegistry.sol\":2050:2078  credentials[_credentialHash] */\n      0x00\n        /* \"contracts/VC/CredentialRegistry.sol\":2062:2077  _credentialHash */\n      dup6\n        /* \"contracts/VC/CredentialRegistry.sol\":2050:2078  credentials[_credentialHash] */\n      dup2\n      mstore\n      0x20\n      add\n      swap1\n      dup2\n      mstore\n      0x20\n      add\n      0x00\n      keccak256\n        /* \"contracts/VC/CredentialRegistry.sol\":2050:2090  credentials[_credentialHash][msg.sender] */\n      0x00\n        /* \"contracts/VC/CredentialRegistry.sol\":2079:2089  msg.sender */\n      caller\n        /* \"contracts/VC/CredentialRegistry.sol\":2050:2090  credentials[_credentialHash][msg.sender] */\n      0xffffffffffffffffffffffffffffffffffffffff\n      and\n      0xffffffffffffffffffffffffffffffffffffffff\n      and\n      dup2\n      mstore\n      0x20\n      add\n      swap1\n      dup2\n      mstore\n      0x20\n      add\n      0x00\n      keccak256\n        /* \"contracts/VC/CredentialRegistry.sol\":2050:2103  credentials[_credentialHash][msg.sender] = credential */\n      0x00\n      dup3\n      add\n      0x00\n      swap1\n      sload\n      swap1\n      0x0100\n      exp\n      swap1\n      div\n      0xffffffffffffffffffffffffffffffffffffffff\n      and\n      dup2\n      0x00\n      add\n      exp(0x0100, 0x00)\n      dup2\n      sload\n      dup2\n      0xffffffffffffffffffffffffffffffffffffffff\n      mul\n      not\n      and\n      swap1\n      dup4\n      0xffffffffffffffffffffffffffffffffffffffff\n      and\n      mul\n      or\n      swap1\n      sstore\n      pop\n      0x01\n      dup3\n      add\n      0x00\n      swap1\n      sload\n      swap1\n      0x0100\n      exp\n      swap1\n      div\n      0xffffffffffffffffffffffffffffffffffffffff\n      and\n      dup2\n      0x01\n      add\n      exp(0x0100, 0x00)\n      dup2\n      sload\n      dup2\n      0xffffffffffffffffffffffffffffffffffffffff\n      mul\n      not\n      and\n      swap1\n      dup4\n      0xffffffffffffffffffffffffffffffffffffffff\n      and\n      mul\n      or\n      swap1\n      sstore\n      pop\n      0x02\n      dup3\n      add\n      sload\n      dup2\n      0x02\n      add\n      sstore\n      0x03\n      dup3\n      add\n      sload\n      dup2\n      0x03\n      add\n      sstore\n      0x04\n      dup3\n      add\n      dup2\n      0x04\n      add\n      swap1\n      dup1\n      sload\n      tag_185\n      swap3\n      swap2\n      swap1\n      tag_160\n      jump\t// in\n    tag_185:\n      pop\n      0x05\n      dup3\n      add\n      0x00\n      swap1\n      sload\n      swap1\n      0x0100\n      exp\n      swap1\n      div\n      0xff\n      and\n      dup2\n      0x05\n      add\n      exp(0x0100, 0x00)\n      dup2\n      sload\n      dup2\n      0xff\n      mul\n      not\n      and\n      swap1\n      dup4\n      iszero\n      iszero\n      mul\n      or\n      swap1\n      sstore\n      pop\n      swap1\n      pop\n      pop\n        /* \"contracts/VC/CredentialRegistry.sol\":2136:2151  _credentialHash */\n      dup3\n        /* \"contracts/VC/CredentialRegistry.sol\":2118:2181  CredentialRevoked(_credentialHash, msg.sender, block.timestamp) */\n      0x80d4746828447d65eceb938c7f9d85fbeb232fe7819d5209ed452b3940f8904b\n        /* \"contracts/VC/CredentialRegistry.sol\":2153:2163  msg.sender */\n      caller\n        /* \"contracts/VC/CredentialRegistry.sol\":2165:2180  block.timestamp */\n      timestamp\n        /* \"contracts/VC/CredentialRegistry.sol\":2118:2181  CredentialRevoked(_credentialHash, msg.sender, block.timestamp) */\n      mload(0x40)\n      tag_186\n      swap3\n      swap2\n      swap1\n      tag_187\n      jump\t// in\n    tag_186:\n      mload(0x40)\n      dup1\n      swap2\n      sub\n      swap1\n      log2\n        /* \"contracts/VC/CredentialRegistry.sol\":2198:2202  true */\n      0x01\n        /* \"contracts/VC/CredentialRegistry.sol\":2191:2202  return true */\n      swap2\n      pop\n      pop\n        /* \"contracts/VC/CredentialRegistry.sol\":1676:2209  function revokeCredential(bytes32 _credentialHash) external override returns (bool) {... */\n      swap2\n      swap1\n      pop\n      jump\t// out\n        /* \"@openzeppelin/contracts/access/AccessControl.sol\":4642:4780  function revokeRole(bytes32 role, address account) public virtual onlyRole(getRoleAdmin(role)) {... */\n    tag_94:\n        /* \"@openzeppelin/contracts/access/AccessControl.sol\":4717:4735  getRoleAdmin(role) */\n      tag_188\n        /* \"@openzeppelin/contracts/access/AccessControl.sol\":4730:4734  role */\n      dup3\n        /* \"@openzeppelin/contracts/access/AccessControl.sol\":4717:4729  getRoleAdmin */\n      tag_39\n        /* \"@openzeppelin/contracts/access/AccessControl.sol\":4717:4735  getRoleAdmin(role) */\n      jump\t// in\n    tag_188:\n        /* \"@openzeppelin/contracts/access/AccessControl.sol\":2464:2480  _checkRole(role) */\n      tag_190\n        /* \"@openzeppelin/contracts/access/AccessControl.sol\":2475:2479  role */\n      dup2\n        /* \"@openzeppelin/contracts/access/AccessControl.sol\":2464:2474  _checkRole */\n      tag_118\n        /* \"@openzeppelin/contracts/access/AccessControl.sol\":2464:2480  _checkRole(role) */\n      jump\t// in\n    tag_190:\n        /* \"@openzeppelin/contracts/access/AccessControl.sol\":4747:4773  _revokeRole(role, account) */\n      tag_192\n        /* \"@openzeppelin/contracts/access/AccessControl.sol\":4759:4763  role */\n      dup4\n        /* \"@openzeppelin/contracts/access/AccessControl.sol\":4765:4772  account */\n      dup4\n        /* \"@openzeppelin/contracts/access/AccessControl.sol\":4747:4758  _revokeRole */\n      tag_127\n        /* \"@openzeppelin/contracts/access/AccessControl.sol\":4747:4773  _revokeRole(role, account) */\n      jump\t// in\n    tag_192:\n      pop\n        /* \"@openzeppelin/contracts/access/AccessControl.sol\":4642:4780  function revokeRole(bytes32 role, address account) public virtual onlyRole(getRoleAdmin(role)) {... */\n      pop\n      pop\n      pop\n      jump\t// out\n        /* \"contracts/VC/CredentialRegistry.sol\":2464:2684  function status(address issuer, bytes32 _credentialHash) override external view returns (bool){... */\n    tag_98:\n        /* \"contracts/VC/CredentialRegistry.sol\":2553:2557  bool */\n      0x00\n        /* \"contracts/VC/CredentialRegistry.sol\":2568:2604  CredentialMetadata memory credential */\n      dup1\n        /* \"contracts/VC/CredentialRegistry.sol\":2607:2618  credentials */\n      0x01\n        /* \"contracts/VC/CredentialRegistry.sol\":2607:2635  credentials[_credentialHash] */\n      0x00\n        /* \"contracts/VC/CredentialRegistry.sol\":2619:2634  _credentialHash */\n      dup5\n        /* \"contracts/VC/CredentialRegistry.sol\":2607:2635  credentials[_credentialHash] */\n      dup2\n      mstore\n      0x20\n      add\n      swap1\n      dup2\n      mstore\n      0x20\n      add\n      0x00\n      keccak256\n        /* \"contracts/VC/CredentialRegistry.sol\":2607:2643  credentials[_credentialHash][issuer] */\n      0x00\n        /* \"contracts/VC/CredentialRegistry.sol\":2636:2642  issuer */\n      dup6\n        /* \"contracts/VC/CredentialRegistry.sol\":2607:2643  credentials[_credentialHash][issuer] */\n      0xffffffffffffffffffffffffffffffffffffffff\n      and\n      0xffffffffffffffffffffffffffffffffffffffff\n      and\n      dup2\n      mstore\n      0x20\n      add\n      swap1\n      dup2\n      mstore\n      0x20\n      add\n      0x00\n      keccak256\n        /* \"contracts/VC/CredentialRegistry.sol\":2568:2643  CredentialMetadata memory credential = credentials[_credentialHash][issuer] */\n      mload(0x40)\n      dup1\n      0xc0\n      add\n      0x40\n      mstore\n      swap1\n      dup2\n      0x00\n      dup3\n      add\n      0x00\n      swap1\n      sload\n      swap1\n      0x0100\n      exp\n      swap1\n      div\n      0xffffffffffffffffffffffffffffffffffffffff\n      and\n      0xffffffffffffffffffffffffffffffffffffffff\n      and\n      0xffffffffffffffffffffffffffffffffffffffff\n      and\n      dup2\n      mstore\n      0x20\n      add\n      0x01\n      dup3\n      add\n      0x00\n      swap1\n      sload\n      swap1\n      0x0100\n      exp\n      swap1\n      div\n      0xffffffffffffffffffffffffffffffffffffffff\n      and\n      0xffffffffffffffffffffffffffffffffffffffff\n      and\n      0xffffffffffffffffffffffffffffffffffffffff\n      and\n      dup2\n      mstore\n      0x20\n      add\n      0x02\n      dup3\n      add\n      sload\n      dup2\n      mstore\n      0x20\n      add\n      0x03\n      dup3\n      add\n      sload\n      dup2\n      mstore\n      0x20\n      add\n      0x04\n      dup3\n      add\n      dup1\n      sload\n      dup1\n      0x20\n      mul\n      0x20\n      add\n      mload(0x40)\n      swap1\n      dup2\n      add\n      0x40\n      mstore\n      dup1\n      swap3\n      swap2\n      swap1\n      dup2\n      dup2\n      mstore\n      0x20\n      add\n      0x00\n      swap1\n    tag_194:\n      dup3\n      dup3\n      lt\n      iszero\n      tag_195\n      jumpi\n      dup4\n      dup3\n      swap1\n      0x00\n      mstore\n      keccak256(0x00, 0x20)\n      swap1\n      0x03\n      mul\n      add\n      mload(0x40)\n      dup1\n      0x60\n      add\n      0x40\n      mstore\n      swap1\n      dup2\n      0x00\n      dup3\n      add\n      sload\n      dup2\n      mstore\n      0x20\n      add\n      0x01\n      dup3\n      add\n      sload\n      dup2\n      mstore\n      0x20\n      add\n      0x02\n      dup3\n      add\n      0x00\n      swap1\n      sload\n      swap1\n      0x0100\n      exp\n      swap1\n      div\n      0xff\n      and\n      0xff\n      and\n      0xff\n      and\n      dup2\n      mstore\n      pop\n      pop\n      dup2\n      mstore\n      0x20\n      add\n      swap1\n      0x01\n      add\n      swap1\n      jump(tag_194)\n    tag_195:\n      pop\n      pop\n      pop\n      pop\n      dup2\n      mstore\n      0x20\n      add\n      0x05\n      dup3\n      add\n      0x00\n      swap1\n      sload\n      swap1\n      0x0100\n      exp\n      swap1\n      div\n      0xff\n      and\n      iszero\n      iszero\n      iszero\n      iszero\n      dup2\n      mstore\n      pop\n      pop\n      swap1\n      pop\n        /* \"contracts/VC/CredentialRegistry.sol\":2660:2670  credential */\n      dup1\n        /* \"contracts/VC/CredentialRegistry.sol\":2660:2677  credential.status */\n      0xa0\n      add\n      mload\n        /* \"contracts/VC/CredentialRegistry.sol\":2653:2677  return credential.status */\n      swap2\n      pop\n      pop\n        /* \"contracts/VC/CredentialRegistry.sol\":2464:2684  function status(address issuer, bytes32 _credentialHash) override external view returns (bool){... */\n      swap3\n      swap2\n      pop\n      pop\n      jump\t// out\n        /* \"contracts/VC/CredentialRegistry.sol\":339:416  mapping(bytes32 => mapping(address => CredentialMetadata)) public credentials */\n    tag_102:\n      mstore(0x20, 0x01)\n      dup2\n      0x00\n      mstore\n      mstore(0x20, keccak256(0x00, 0x40))\n      dup1\n      0x00\n      mstore\n      keccak256(0x00, 0x40)\n      0x00\n      swap2\n      pop\n      swap2\n      pop\n      pop\n      dup1\n      0x00\n      add\n      0x00\n      swap1\n      sload\n      swap1\n      0x0100\n      exp\n      swap1\n      div\n      0xffffffffffffffffffffffffffffffffffffffff\n      and\n      swap1\n      dup1\n      0x01\n      add\n      0x00\n      swap1\n      sload\n      swap1\n      0x0100\n      exp\n      swap1\n      div\n      0xffffffffffffffffffffffffffffffffffffffff\n      and\n      swap1\n      dup1\n      0x02\n      add\n      sload\n      swap1\n      dup1\n      0x03\n      add\n      sload\n      swap1\n      dup1\n      0x05\n      add\n      0x00\n      swap1\n      sload\n      swap1\n      0x0100\n      exp\n      swap1\n      div\n      0xff\n      and\n      swap1\n      pop\n      dup6\n      jump\t// out\n        /* \"@openzeppelin/contracts/utils/introspection/ERC165.sol\":762:908  function supportsInterface(bytes4 interfaceId) public view virtual returns (bool) {... */\n    tag_108:\n        /* \"@openzeppelin/contracts/utils/introspection/ERC165.sol\":838:842  bool */\n      0x00\n        /* \"@openzeppelin/contracts/utils/introspection/ERC165.sol\":876:901  type(IERC165).interfaceId */\n      0x01ffc9a700000000000000000000000000000000000000000000000000000000\n        /* \"@openzeppelin/contracts/utils/introspection/ERC165.sol\":861:901  interfaceId == type(IERC165).interfaceId */\n      not(0xffffffffffffffffffffffffffffffffffffffffffffffffffffffff)\n      and\n        /* \"@openzeppelin/contracts/utils/introspection/ERC165.sol\":861:872  interfaceId */\n      dup3\n        /* \"@openzeppelin/contracts/utils/introspection/ERC165.sol\":861:901  interfaceId == type(IERC165).interfaceId */\n      not(0xffffffffffffffffffffffffffffffffffffffffffffffffffffffff)\n      and\n      eq\n        /* \"@openzeppelin/contracts/utils/introspection/ERC165.sol\":854:901  return interfaceId == type(IERC165).interfaceId */\n      swap1\n      pop\n        /* \"@openzeppelin/contracts/utils/introspection/ERC165.sol\":762:908  function supportsInterface(bytes4 interfaceId) public view virtual returns (bool) {... */\n      swap2\n      swap1\n      pop\n      jump\t// out\n        /* \"@openzeppelin/contracts/access/AccessControl.sol\":3199:3302  function _checkRole(bytes32 role) internal view virtual {... */\n    tag_118:\n        /* \"@openzeppelin/contracts/access/AccessControl.sol\":3265:3295  _checkRole(role, _msgSender()) */\n      tag_199\n        /* \"@openzeppelin/contracts/access/AccessControl.sol\":3276:3280  role */\n      dup2\n        /* \"@openzeppelin/contracts/access/AccessControl.sol\":3282:3294  _msgSender() */\n      tag_200\n        /* \"@openzeppelin/contracts/access/AccessControl.sol\":3282:3292  _msgSender */\n      tag_124\n        /* \"@openzeppelin/contracts/access/AccessControl.sol\":3282:3294  _msgSender() */\n      jump\t// in\n    tag_200:\n        /* \"@openzeppelin/contracts/access/AccessControl.sol\":3265:3275  _checkRole */\n      tag_201\n        /* \"@openzeppelin/contracts/access/AccessControl.sol\":3265:3295  _checkRole(role, _msgSender()) */\n      jump\t// in\n    tag_199:\n        /* \"@openzeppelin/contracts/access/AccessControl.sol\":3199:3302  function _checkRole(bytes32 role) internal view virtual {... */\n      pop\n      jump\t// out\n        /* \"@openzeppelin/contracts/access/AccessControl.sol\":6179:6495  function _grantRole(bytes32 role, address account) internal virtual returns (bool) {... */\n    tag_121:\n        /* \"@openzeppelin/contracts/access/AccessControl.sol\":6256:6260  bool */\n      0x00\n        /* \"@openzeppelin/contracts/access/AccessControl.sol\":6277:6299  hasRole(role, account) */\n      tag_203\n        /* \"@openzeppelin/contracts/access/AccessControl.sol\":6285:6289  role */\n      dup4\n        /* \"@openzeppelin/contracts/access/AccessControl.sol\":6291:6298  account */\n      dup4\n        /* \"@openzeppelin/contracts/access/AccessControl.sol\":6277:6284  hasRole */\n      tag_79\n        /* \"@openzeppelin/contracts/access/AccessControl.sol\":6277:6299  hasRole(role, account) */\n      jump\t// in\n    tag_203:\n        /* \"@openzeppelin/contracts/access/AccessControl.sol\":6272:6489  if (!hasRole(role, account)) {... */\n      tag_204\n      jumpi\n        /* \"@openzeppelin/contracts/access/AccessControl.sol\":6347:6351  true */\n      0x01\n        /* \"@openzeppelin/contracts/access/AccessControl.sol\":6315:6321  _roles */\n      0x00\n        /* \"@openzeppelin/contracts/access/AccessControl.sol\":6315:6327  _roles[role] */\n      dup1\n        /* \"@openzeppelin/contracts/access/AccessControl.sol\":6322:6326  role */\n      dup6\n        /* \"@openzeppelin/contracts/access/AccessControl.sol\":6315:6327  _roles[role] */\n      dup2\n      mstore\n      0x20\n      add\n      swap1\n      dup2\n      mstore\n      0x20\n      add\n      0x00\n      keccak256\n        /* \"@openzeppelin/contracts/access/AccessControl.sol\":6315:6335  _roles[role].hasRole */\n      0x00\n      add\n        /* \"@openzeppelin/contracts/access/AccessControl.sol\":6315:6344  _roles[role].hasRole[account] */\n      0x00\n        /* \"@openzeppelin/contracts/access/AccessControl.sol\":6336:6343  account */\n      dup5\n        /* \"@openzeppelin/contracts/access/AccessControl.sol\":6315:6344  _roles[role].hasRole[account] */\n      0xffffffffffffffffffffffffffffffffffffffff\n      and\n      0xffffffffffffffffffffffffffffffffffffffff\n      and\n      dup2\n      mstore\n      0x20\n      add\n      swap1\n      dup2\n      mstore\n      0x20\n      add\n      0x00\n      keccak256\n      0x00\n        /* \"@openzeppelin/contracts/access/AccessControl.sol\":6315:6351  _roles[role].hasRole[account] = true */\n      0x0100\n      exp\n      dup2\n      sload\n      dup2\n      0xff\n      mul\n      not\n      and\n      swap1\n      dup4\n      iszero\n      iszero\n      mul\n      or\n      swap1\n      sstore\n      pop\n        /* \"@openzeppelin/contracts/access/AccessControl.sol\":6397:6409  _msgSender() */\n      tag_205\n        /* \"@openzeppelin/contracts/access/AccessControl.sol\":6397:6407  _msgSender */\n      tag_124\n        /* \"@openzeppelin/contracts/access/AccessControl.sol\":6397:6409  _msgSender() */\n      jump\t// in\n    tag_205:\n        /* \"@openzeppelin/contracts/access/AccessControl.sol\":6370:6410  RoleGranted(role, account, _msgSender()) */\n      0xffffffffffffffffffffffffffffffffffffffff\n      and\n        /* \"@openzeppelin/contracts/access/AccessControl.sol\":6388:6395  account */\n      dup3\n        /* \"@openzeppelin/contracts/access/AccessControl.sol\":6370:6410  RoleGranted(role, account, _msgSender()) */\n      0xffffffffffffffffffffffffffffffffffffffff\n      and\n        /* \"@openzeppelin/contracts/access/AccessControl.sol\":6382:6386  role */\n      dup5\n        /* \"@openzeppelin/contracts/access/AccessControl.sol\":6370:6410  RoleGranted(role, account, _msgSender()) */\n      0x2f8788117e7eff1d82e926ec794901d17c78024a50270940304540a733656f0d\n      mload(0x40)\n      mload(0x40)\n      dup1\n      swap2\n      sub\n      swap1\n      log4\n        /* \"@openzeppelin/contracts/access/AccessControl.sol\":6431:6435  true */\n      0x01\n        /* \"@openzeppelin/contracts/access/AccessControl.sol\":6424:6435  return true */\n      swap1\n      pop\n      jump(tag_202)\n        /* \"@openzeppelin/contracts/access/AccessControl.sol\":6272:6489  if (!hasRole(role, account)) {... */\n    tag_204:\n        /* \"@openzeppelin/contracts/access/AccessControl.sol\":6473:6478  false */\n      0x00\n        /* \"@openzeppelin/contracts/access/AccessControl.sol\":6466:6478  return false */\n      swap1\n      pop\n        /* \"@openzeppelin/contracts/access/AccessControl.sol\":6179:6495  function _grantRole(bytes32 role, address account) internal virtual returns (bool) {... */\n    tag_202:\n      swap3\n      swap2\n      pop\n      pop\n      jump\t// out\n        /* \"@openzeppelin/contracts/utils/Context.sol\":656:752  function _msgSender() internal view virtual returns (address) {... */\n    tag_124:\n        /* \"@openzeppelin/contracts/utils/Context.sol\":709:716  address */\n      0x00\n        /* \"@openzeppelin/contracts/utils/Context.sol\":735:745  msg.sender */\n      caller\n        /* \"@openzeppelin/contracts/utils/Context.sol\":728:745  return msg.sender */\n      swap1\n      pop\n        /* \"@openzeppelin/contracts/utils/Context.sol\":656:752  function _msgSender() internal view virtual returns (address) {... */\n      swap1\n      jump\t// out\n        /* \"@openzeppelin/contracts/access/AccessControl.sol\":6730:7047  function _revokeRole(bytes32 role, address account) internal virtual returns (bool) {... */\n    tag_127:\n        /* \"@openzeppelin/contracts/access/AccessControl.sol\":6808:6812  bool */\n      0x00\n        /* \"@openzeppelin/contracts/access/AccessControl.sol\":6828:6850  hasRole(role, account) */\n      tag_209\n        /* \"@openzeppelin/contracts/access/AccessControl.sol\":6836:6840  role */\n      dup4\n        /* \"@openzeppelin/contracts/access/AccessControl.sol\":6842:6849  account */\n      dup4\n        /* \"@openzeppelin/contracts/access/AccessControl.sol\":6828:6835  hasRole */\n      tag_79\n        /* \"@openzeppelin/contracts/access/AccessControl.sol\":6828:6850  hasRole(role, account) */\n      jump\t// in\n    tag_209:\n        /* \"@openzeppelin/contracts/access/AccessControl.sol\":6824:7041  if (hasRole(role, account)) {... */\n      iszero\n      tag_210\n      jumpi\n        /* \"@openzeppelin/contracts/access/AccessControl.sol\":6898:6903  false */\n      0x00\n        /* \"@openzeppelin/contracts/access/AccessControl.sol\":6866:6872  _roles */\n      dup1\n        /* \"@openzeppelin/contracts/access/AccessControl.sol\":6866:6878  _roles[role] */\n      0x00\n        /* \"@openzeppelin/contracts/access/AccessControl.sol\":6873:6877  role */\n      dup6\n        /* \"@openzeppelin/contracts/access/AccessControl.sol\":6866:6878  _roles[role] */\n      dup2\n      mstore\n      0x20\n      add\n      swap1\n      dup2\n      mstore\n      0x20\n      add\n      0x00\n      keccak256\n        /* \"@openzeppelin/contracts/access/AccessControl.sol\":6866:6886  _roles[role].hasRole */\n      0x00\n      add\n        /* \"@openzeppelin/contracts/access/AccessControl.sol\":6866:6895  _roles[role].hasRole[account] */\n      0x00\n        /* \"@openzeppelin/contracts/access/AccessControl.sol\":6887:6894  account */\n      dup5\n        /* \"@openzeppelin/contracts/access/AccessControl.sol\":6866:6895  _roles[role].hasRole[account] */\n      0xffffffffffffffffffffffffffffffffffffffff\n      and\n      0xffffffffffffffffffffffffffffffffffffffff\n      and\n      dup2\n      mstore\n      0x20\n      add\n      swap1\n      dup2\n      mstore\n      0x20\n      add\n      0x00\n      keccak256\n      0x00\n        /* \"@openzeppelin/contracts/access/AccessControl.sol\":6866:6903  _roles[role].hasRole[account] = false */\n      0x0100\n      exp\n      dup2\n      sload\n      dup2\n      0xff\n      mul\n      not\n      and\n      swap1\n      dup4\n      iszero\n      iszero\n      mul\n      or\n      swap1\n      sstore\n      pop\n        /* \"@openzeppelin/contracts/access/AccessControl.sol\":6949:6961  _msgSender() */\n      tag_211\n        /* \"@openzeppelin/contracts/access/AccessControl.sol\":6949:6959  _msgSender */\n      tag_124\n        /* \"@openzeppelin/contracts/access/AccessControl.sol\":6949:6961  _msgSender() */\n      jump\t// in\n    tag_211:\n        /* \"@openzeppelin/contracts/access/AccessControl.sol\":6922:6962  RoleRevoked(role, account, _msgSender()) */\n      0xffffffffffffffffffffffffffffffffffffffff\n      and\n        /* \"@openzeppelin/contracts/access/AccessControl.sol\":6940:6947  account */\n      dup3\n        /* \"@openzeppelin/contracts/access/AccessControl.sol\":6922:6962  RoleRevoked(role, account, _msgSender()) */\n      0xffffffffffffffffffffffffffffffffffffffff\n      and\n        /* \"@openzeppelin/contracts/access/AccessControl.sol\":6934:6938  role */\n      dup5\n        /* \"@openzeppelin/contracts/access/AccessControl.sol\":6922:6962  RoleRevoked(role, account, _msgSender()) */\n      0xf6391f5c32d9c69d2a47ea670b442974b53935d1edc7fd64eb21e047a839171b\n      mload(0x40)\n      mload(0x40)\n      dup1\n      swap2\n      sub\n      swap1\n      log4\n        /* \"@openzeppelin/contracts/access/AccessControl.sol\":6983:6987  true */\n      0x01\n        /* \"@openzeppelin/contracts/access/AccessControl.sol\":6976:6987  return true */\n      swap1\n      pop\n      jump(tag_208)\n        /* \"@openzeppelin/contracts/access/AccessControl.sol\":6824:7041  if (hasRole(role, account)) {... */\n    tag_210:\n        /* \"@openzeppelin/contracts/access/AccessControl.sol\":7025:7030  false */\n      0x00\n        /* \"@openzeppelin/contracts/access/AccessControl.sol\":7018:7030  return false */\n      swap1\n      pop\n        /* \"@openzeppelin/contracts/access/AccessControl.sol\":6730:7047  function _revokeRole(bytes32 role, address account) internal virtual returns (bool) {... */\n    tag_208:\n      swap3\n      swap2\n      pop\n      pop\n      jump\t// out\n        /* \"contracts/VC/CredentialRegistry.sol\":2828:4013  function _registerSignature(bytes32 _credentialHash, address issuer, bytes calldata _signature) private onlyIssuer returns (bool){... */\n    tag_130:\n        /* \"contracts/VC/CredentialRegistry.sol\":2952:2956  bool */\n      0x00\n        /* \"contracts/VC/CredentialRegistry.sol\":5514:5546  hasRole(ISSUER_ROLE, msg.sender) */\n      tag_214\n        /* \"contracts/VC/CredentialRegistry.sol\":308:332  keccak256(\"ISSUER_ROLE\") */\n      0x114e74f6ea3bd819998f78687bfcb11b140da08e9b7d222fa9c1f1ba1f2aa122\n        /* \"contracts/VC/CredentialRegistry.sol\":5535:5545  msg.sender */\n      caller\n        /* \"contracts/VC/CredentialRegistry.sol\":5514:5521  hasRole */\n      tag_79\n        /* \"contracts/VC/CredentialRegistry.sol\":5514:5546  hasRole(ISSUER_ROLE, msg.sender) */\n      jump\t// in\n    tag_214:\n        /* \"contracts/VC/CredentialRegistry.sol\":5506:5575  require(hasRole(ISSUER_ROLE, msg.sender), \"Caller is not a issuer 2\") */\n      tag_215\n      jumpi\n      mload(0x40)\n      0x08c379a000000000000000000000000000000000000000000000000000000000\n      dup2\n      mstore\n      0x04\n      add\n      tag_216\n      swap1\n      tag_154\n      jump\t// in\n    tag_216:\n      mload(0x40)\n      dup1\n      swap2\n      sub\n      swap1\n      revert\n    tag_215:\n        /* \"contracts/VC/CredentialRegistry.sol\":2967:3004  CredentialMetadata storage credential */\n      0x00\n        /* \"contracts/VC/CredentialRegistry.sol\":3007:3018  credentials */\n      0x01\n        /* \"contracts/VC/CredentialRegistry.sol\":3007:3035  credentials[_credentialHash] */\n      0x00\n        /* \"contracts/VC/CredentialRegistry.sol\":3019:3034  _credentialHash */\n      dup8\n        /* \"contracts/VC/CredentialRegistry.sol\":3007:3035  credentials[_credentialHash] */\n      dup2\n      mstore\n      0x20\n      add\n      swap1\n      dup2\n      mstore\n      0x20\n      add\n      0x00\n      keccak256\n        /* \"contracts/VC/CredentialRegistry.sol\":3007:3043  credentials[_credentialHash][issuer] */\n      0x00\n        /* \"contracts/VC/CredentialRegistry.sol\":3036:3042  issuer */\n      dup7\n        /* \"contracts/VC/CredentialRegistry.sol\":3007:3043  credentials[_credentialHash][issuer] */\n      0xffffffffffffffffffffffffffffffffffffffff\n      and\n      0xffffffffffffffffffffffffffffffffffffffff\n      and\n      dup2\n      mstore\n      0x20\n      add\n      swap1\n      dup2\n      mstore\n      0x20\n      add\n      0x00\n      keccak256\n        /* \"contracts/VC/CredentialRegistry.sol\":2967:3043  CredentialMetadata storage credential = credentials[_credentialHash][issuer] */\n      swap1\n      pop\n        /* \"contracts/VC/CredentialRegistry.sol\":3091:3092  0 */\n      0x00\n        /* \"contracts/VC/CredentialRegistry.sol\":3061:3093  credential.subject != address(0) */\n      0xffffffffffffffffffffffffffffffffffffffff\n      and\n        /* \"contracts/VC/CredentialRegistry.sol\":3061:3071  credential */\n      dup2\n        /* \"contracts/VC/CredentialRegistry.sol\":3061:3079  credential.subject */\n      0x01\n      add\n      0x00\n      swap1\n      sload\n      swap1\n      0x0100\n      exp\n      swap1\n      div\n      0xffffffffffffffffffffffffffffffffffffffff\n      and\n        /* \"contracts/VC/CredentialRegistry.sol\":3061:3093  credential.subject != address(0) */\n      0xffffffffffffffffffffffffffffffffffffffff\n      and\n      sub\n        /* \"contracts/VC/CredentialRegistry.sol\":3053:3123  require(credential.subject != address(0), \"Credential doesn't exists\") */\n      tag_218\n      jumpi\n      mload(0x40)\n      0x08c379a000000000000000000000000000000000000000000000000000000000\n      dup2\n      mstore\n      0x04\n      add\n      tag_219\n      swap1\n      tag_137\n      jump\t// in\n    tag_219:\n      mload(0x40)\n      dup1\n      swap2\n      sub\n      swap1\n      revert\n    tag_218:\n        /* \"contracts/VC/CredentialRegistry.sol\":3133:3155  bytes memory signature */\n      0x00\n        /* \"contracts/VC/CredentialRegistry.sol\":3158:3168  _signature */\n      dup5\n      dup5\n        /* \"contracts/VC/CredentialRegistry.sol\":3133:3168  bytes memory signature = _signature */\n      dup1\n      dup1\n      0x1f\n      add\n      0x20\n      dup1\n      swap2\n      div\n      mul\n      0x20\n      add\n      mload(0x40)\n      swap1\n      dup2\n      add\n      0x40\n      mstore\n      dup1\n      swap4\n      swap3\n      swap2\n      swap1\n      dup2\n      dup2\n      mstore\n      0x20\n      add\n      dup4\n      dup4\n      dup1\n      dup3\n      dup5\n      calldatacopy\n      0x00\n      dup2\n      dup5\n      add\n      mstore\n      not(0x1f)\n      0x1f\n      dup3\n      add\n      and\n      swap1\n      pop\n      dup1\n      dup4\n      add\n      swap3\n      pop\n      pop\n      pop\n      pop\n      pop\n      pop\n      pop\n      swap1\n      pop\n        /* \"contracts/VC/CredentialRegistry.sol\":3178:3187  bytes32 r */\n      0x00\n        /* \"contracts/VC/CredentialRegistry.sol\":3197:3206  bytes32 s */\n      dup1\n        /* \"contracts/VC/CredentialRegistry.sol\":3216:3223  uint8 v */\n      0x00\n        /* \"contracts/VC/CredentialRegistry.sol\":3282:3286  0x20 */\n      0x20\n        /* \"contracts/VC/CredentialRegistry.sol\":3271:3280  signature */\n      dup5\n        /* \"contracts/VC/CredentialRegistry.sol\":3267:3287  add(signature, 0x20) */\n      add\n        /* \"contracts/VC/CredentialRegistry.sol\":3261:3288  mload(add(signature, 0x20)) */\n      mload\n        /* \"contracts/VC/CredentialRegistry.sol\":3256:3288  r := mload(add(signature, 0x20)) */\n      swap3\n      pop\n        /* \"contracts/VC/CredentialRegistry.sol\":3327:3331  0x40 */\n      0x40\n        /* \"contracts/VC/CredentialRegistry.sol\":3316:3325  signature */\n      dup5\n        /* \"contracts/VC/CredentialRegistry.sol\":3312:3332  add(signature, 0x40) */\n      add\n        /* \"contracts/VC/CredentialRegistry.sol\":3306:3333  mload(add(signature, 0x40)) */\n      mload\n        /* \"contracts/VC/CredentialRegistry.sol\":3301:3333  s := mload(add(signature, 0x40)) */\n      swap2\n      pop\n        /* \"contracts/VC/CredentialRegistry.sol\":3380:3384  0x60 */\n      0x60\n        /* \"contracts/VC/CredentialRegistry.sol\":3369:3378  signature */\n      dup5\n        /* \"contracts/VC/CredentialRegistry.sol\":3365:3385  add(signature, 0x60) */\n      add\n        /* \"contracts/VC/CredentialRegistry.sol\":3359:3386  mload(add(signature, 0x60)) */\n      mload\n        /* \"contracts/VC/CredentialRegistry.sol\":3356:3357  0 */\n      0x00\n        /* \"contracts/VC/CredentialRegistry.sol\":3351:3387  byte(0, mload(add(signature, 0x60))) */\n      byte\n        /* \"contracts/VC/CredentialRegistry.sol\":3346:3387  v := byte(0, mload(add(signature, 0x60))) */\n      swap1\n      pop\n        /* \"contracts/VC/CredentialRegistry.sol\":3406:3436  Signature memory _newSignature */\n      0x00\n        /* \"contracts/VC/CredentialRegistry.sol\":3439:3457  Signature(r, s, v) */\n      mload(0x40)\n      dup1\n      0x60\n      add\n      0x40\n      mstore\n      dup1\n        /* \"contracts/VC/CredentialRegistry.sol\":3449:3450  r */\n      dup6\n        /* \"contracts/VC/CredentialRegistry.sol\":3439:3457  Signature(r, s, v) */\n      dup2\n      mstore\n      0x20\n      add\n        /* \"contracts/VC/CredentialRegistry.sol\":3452:3453  s */\n      dup5\n        /* \"contracts/VC/CredentialRegistry.sol\":3439:3457  Signature(r, s, v) */\n      dup2\n      mstore\n      0x20\n      add\n        /* \"contracts/VC/CredentialRegistry.sol\":3455:3456  v */\n      dup4\n        /* \"contracts/VC/CredentialRegistry.sol\":3439:3457  Signature(r, s, v) */\n      0xff\n      and\n      dup2\n      mstore\n      pop\n        /* \"contracts/VC/CredentialRegistry.sol\":3406:3457  Signature memory _newSignature = Signature(r, s, v) */\n      swap1\n      pop\n        /* \"contracts/VC/CredentialRegistry.sol\":3467:3481  bool signExist */\n      0x00\n        /* \"contracts/VC/CredentialRegistry.sol\":3499:3506  uint8 i */\n      dup1\n        /* \"contracts/VC/CredentialRegistry.sol\":3520:3765  while (i < credential.signatures.length && !signExist) {... */\n    tag_220:\n        /* \"contracts/VC/CredentialRegistry.sol\":3531:3541  credential */\n      dup8\n        /* \"contracts/VC/CredentialRegistry.sol\":3531:3552  credential.signatures */\n      0x04\n      add\n        /* \"contracts/VC/CredentialRegistry.sol\":3531:3559  credential.signatures.length */\n      dup1\n      sload\n      swap1\n      pop\n        /* \"contracts/VC/CredentialRegistry.sol\":3527:3528  i */\n      dup2\n        /* \"contracts/VC/CredentialRegistry.sol\":3527:3559  i < credential.signatures.length */\n      0xff\n      and\n      lt\n        /* \"contracts/VC/CredentialRegistry.sol\":3527:3573  i < credential.signatures.length && !signExist */\n      dup1\n      iszero\n      tag_222\n      jumpi\n      pop\n        /* \"contracts/VC/CredentialRegistry.sol\":3564:3573  signExist */\n      dup2\n        /* \"contracts/VC/CredentialRegistry.sol\":3563:3573  !signExist */\n      iszero\n        /* \"contracts/VC/CredentialRegistry.sol\":3527:3573  i < credential.signatures.length && !signExist */\n    tag_222:\n        /* \"contracts/VC/CredentialRegistry.sol\":3520:3765  while (i < credential.signatures.length && !signExist) {... */\n      iszero\n      tag_221\n      jumpi\n        /* \"contracts/VC/CredentialRegistry.sol\":3623:3636  _newSignature */\n      dup3\n        /* \"contracts/VC/CredentialRegistry.sol\":3623:3638  _newSignature.r */\n      0x00\n      add\n      mload\n        /* \"contracts/VC/CredentialRegistry.sol\":3593:3603  credential */\n      dup9\n        /* \"contracts/VC/CredentialRegistry.sol\":3593:3614  credential.signatures */\n      0x04\n      add\n        /* \"contracts/VC/CredentialRegistry.sol\":3615:3616  i */\n      dup3\n        /* \"contracts/VC/CredentialRegistry.sol\":3593:3617  credential.signatures[i] */\n      0xff\n      and\n      dup2\n      sload\n      dup2\n      lt\n      tag_223\n      jumpi\n      tag_224\n      tag_143\n      jump\t// in\n    tag_224:\n    tag_223:\n      swap1\n      0x00\n      mstore\n      keccak256(0x00, 0x20)\n      swap1\n      0x03\n      mul\n      add\n        /* \"contracts/VC/CredentialRegistry.sol\":3593:3619  credential.signatures[i].r */\n      0x00\n      add\n      sload\n        /* \"contracts/VC/CredentialRegistry.sol\":3593:3638  credential.signatures[i].r == _newSignature.r */\n      eq\n        /* \"contracts/VC/CredentialRegistry.sol\":3593:3687  credential.signatures[i].r == _newSignature.r && credential.signatures[i].s == _newSignature.s */\n      dup1\n      iszero\n      tag_226\n      jumpi\n      pop\n        /* \"contracts/VC/CredentialRegistry.sol\":3672:3685  _newSignature */\n      dup3\n        /* \"contracts/VC/CredentialRegistry.sol\":3672:3687  _newSignature.s */\n      0x20\n      add\n      mload\n        /* \"contracts/VC/CredentialRegistry.sol\":3642:3652  credential */\n      dup9\n        /* \"contracts/VC/CredentialRegistry.sol\":3642:3663  credential.signatures */\n      0x04\n      add\n        /* \"contracts/VC/CredentialRegistry.sol\":3664:3665  i */\n      dup3\n        /* \"contracts/VC/CredentialRegistry.sol\":3642:3666  credential.signatures[i] */\n      0xff\n      and\n      dup2\n      sload\n      dup2\n      lt\n      tag_227\n      jumpi\n      tag_228\n      tag_143\n      jump\t// in\n    tag_228:\n    tag_227:\n      swap1\n      0x00\n      mstore\n      keccak256(0x00, 0x20)\n      swap1\n      0x03\n      mul\n      add\n        /* \"contracts/VC/CredentialRegistry.sol\":3642:3668  credential.signatures[i].s */\n      0x01\n      add\n      sload\n        /* \"contracts/VC/CredentialRegistry.sol\":3642:3687  credential.signatures[i].s == _newSignature.s */\n      eq\n        /* \"contracts/VC/CredentialRegistry.sol\":3593:3687  credential.signatures[i].r == _newSignature.r && credential.signatures[i].s == _newSignature.s */\n    tag_226:\n        /* \"contracts/VC/CredentialRegistry.sol\":3589:3738  if (credential.signatures[i].r == _newSignature.r && credential.signatures[i].s == _newSignature.s) {... */\n      iszero\n      tag_230\n      jumpi\n        /* \"contracts/VC/CredentialRegistry.sol\":3719:3723  true */\n      0x01\n        /* \"contracts/VC/CredentialRegistry.sol\":3707:3723  signExist = true */\n      swap2\n      pop\n        /* \"contracts/VC/CredentialRegistry.sol\":3589:3738  if (credential.signatures[i].r == _newSignature.r && credential.signatures[i].s == _newSignature.s) {... */\n    tag_230:\n        /* \"contracts/VC/CredentialRegistry.sol\":3751:3754  i++ */\n      dup1\n      dup1\n      tag_231\n      swap1\n      tag_149\n      jump\t// in\n    tag_231:\n      swap2\n      pop\n      pop\n        /* \"contracts/VC/CredentialRegistry.sol\":3520:3765  while (i < credential.signatures.length && !signExist) {... */\n      jump(tag_220)\n    tag_221:\n        /* \"contracts/VC/CredentialRegistry.sol\":3779:3788  signExist */\n      dup2\n        /* \"contracts/VC/CredentialRegistry.sol\":3775:4007  if (signExist) {... */\n      iszero\n      tag_232\n      jumpi\n        /* \"contracts/VC/CredentialRegistry.sol\":3811:3816  false */\n      0x00\n        /* \"contracts/VC/CredentialRegistry.sol\":3804:3816  return false */\n      swap9\n      pop\n      pop\n      pop\n      pop\n      pop\n      pop\n      pop\n      pop\n      pop\n      jump(tag_217)\n        /* \"contracts/VC/CredentialRegistry.sol\":3775:4007  if (signExist) {... */\n    tag_232:\n        /* \"contracts/VC/CredentialRegistry.sol\":3847:3857  credential */\n      dup8\n        /* \"contracts/VC/CredentialRegistry.sol\":3847:3868  credential.signatures */\n      0x04\n      add\n        /* \"contracts/VC/CredentialRegistry.sol\":3874:3887  _newSignature */\n      dup4\n        /* \"contracts/VC/CredentialRegistry.sol\":3847:3888  credential.signatures.push(_newSignature) */\n      swap1\n      dup1\n      0x01\n      dup2\n      sload\n      add\n      dup1\n      dup3\n      sstore\n      dup1\n      swap2\n      pop\n      pop\n      0x01\n      swap1\n      sub\n      swap1\n      0x00\n      mstore\n      keccak256(0x00, 0x20)\n      swap1\n      0x03\n      mul\n      add\n      0x00\n      swap1\n      swap2\n      swap1\n      swap2\n      swap1\n      swap2\n      pop\n      0x00\n      dup3\n      add\n      mload\n      dup2\n      0x00\n      add\n      sstore\n      0x20\n      dup3\n      add\n      mload\n      dup2\n      0x01\n      add\n      sstore\n      0x40\n      dup3\n      add\n      mload\n      dup2\n      0x02\n      add\n      exp(0x0100, 0x00)\n      dup2\n      sload\n      dup2\n      0xff\n      mul\n      not\n      and\n      swap1\n      dup4\n      0xff\n      and\n      mul\n      or\n      swap1\n      sstore\n      pop\n      pop\n      pop\n        /* \"contracts/VC/CredentialRegistry.sol\":3907:3971  SignatureRegistered(credential.issuer, signExist, _newSignature) */\n      0x0ffaced37e4d6f4a46de47c31d21fccaad48817a7da7f346154835a547780ecd\n        /* \"contracts/VC/CredentialRegistry.sol\":3927:3937  credential */\n      dup9\n        /* \"contracts/VC/CredentialRegistry.sol\":3927:3944  credential.issuer */\n      0x00\n      add\n      0x00\n      swap1\n      sload\n      swap1\n      0x0100\n      exp\n      swap1\n      div\n      0xffffffffffffffffffffffffffffffffffffffff\n      and\n        /* \"contracts/VC/CredentialRegistry.sol\":3946:3955  signExist */\n      dup4\n        /* \"contracts/VC/CredentialRegistry.sol\":3957:3970  _newSignature */\n      dup6\n        /* \"contracts/VC/CredentialRegistry.sol\":3907:3971  SignatureRegistered(credential.issuer, signExist, _newSignature) */\n      mload(0x40)\n      tag_235\n      swap4\n      swap3\n      swap2\n      swap1\n      tag_236\n      jump\t// in\n    tag_235:\n      mload(0x40)\n      dup1\n      swap2\n      sub\n      swap1\n      log1\n        /* \"contracts/VC/CredentialRegistry.sol\":3992:3996  true */\n      0x01\n        /* \"contracts/VC/CredentialRegistry.sol\":3985:3996  return true */\n      swap9\n      pop\n      pop\n      pop\n      pop\n      pop\n      pop\n      pop\n      pop\n      pop\n        /* \"contracts/VC/CredentialRegistry.sol\":5585:5586  _ */\n    tag_217:\n        /* \"contracts/VC/CredentialRegistry.sol\":2828:4013  function _registerSignature(bytes32 _credentialHash, address issuer, bytes calldata _signature) private onlyIssuer returns (bool){... */\n      swap5\n      swap4\n      pop\n      pop\n      pop\n      pop\n      jump\t// out\n        /* \"@openzeppelin/contracts/access/AccessControl.sol\":3432:3629  function _checkRole(bytes32 role, address account) internal view virtual {... */\n    tag_201:\n        /* \"@openzeppelin/contracts/access/AccessControl.sol\":3520:3542  hasRole(role, account) */\n      tag_238\n        /* \"@openzeppelin/contracts/access/AccessControl.sol\":3528:3532  role */\n      dup3\n        /* \"@openzeppelin/contracts/access/AccessControl.sol\":3534:3541  account */\n      dup3\n        /* \"@openzeppelin/contracts/access/AccessControl.sol\":3520:3527  hasRole */\n      tag_79\n        /* \"@openzeppelin/contracts/access/AccessControl.sol\":3520:3542  hasRole(role, account) */\n      jump\t// in\n    tag_238:\n        /* \"@openzeppelin/contracts/access/AccessControl.sol\":3515:3623  if (!hasRole(role, account)) {... */\n      tag_239\n      jumpi\n        /* \"@openzeppelin/contracts/access/AccessControl.sol\":3598:3605  account */\n      dup1\n        /* \"@openzeppelin/contracts/access/AccessControl.sol\":3607:3611  role */\n      dup3\n        /* \"@openzeppelin/contracts/access/AccessControl.sol\":3565:3612  AccessControlUnauthorizedAccount(account, role) */\n      mload(0x40)\n      0xe2517d3f00000000000000000000000000000000000000000000000000000000\n      dup2\n      mstore\n      0x04\n      add\n      tag_240\n      swap3\n      swap2\n      swap1\n      tag_241\n      jump\t// in\n    tag_240:\n      mload(0x40)\n      dup1\n      swap2\n      sub\n      swap1\n      revert\n        /* \"@openzeppelin/contracts/access/AccessControl.sol\":3515:3623  if (!hasRole(role, account)) {... */\n    tag_239:\n        /* \"@openzeppelin/contracts/access/AccessControl.sol\":3432:3629  function _checkRole(bytes32 role, address account) internal view virtual {... */\n      pop\n      pop\n      jump\t// out\n    tag_160:\n      dup3\n      dup1\n      sload\n      dup3\n      dup3\n      sstore\n      swap1\n      0x00\n      mstore\n      keccak256(0x00, 0x20)\n      swap1\n      0x03\n      mul\n      dup2\n      add\n      swap3\n      dup3\n      iszero\n      tag_242\n      jumpi\n      0x00\n      mstore\n      keccak256(0x00, 0x20)\n      swap2\n      0x03\n      mul\n      dup3\n      add\n    tag_243:\n      dup3\n      dup2\n      gt\n      iszero\n      tag_244\n      jumpi\n      dup3\n      dup3\n      0x00\n      dup3\n      add\n      sload\n      dup2\n      0x00\n      add\n      sstore\n      0x01\n      dup3\n      add\n      sload\n      dup2\n      0x01\n      add\n      sstore\n      0x02\n      dup3\n      add\n      0x00\n      swap1\n      sload\n      swap1\n      0x0100\n      exp\n      swap1\n      div\n      0xff\n      and\n      dup2\n      0x02\n      add\n      exp(0x0100, 0x00)\n      dup2\n      sload\n      dup2\n      0xff\n      mul\n      not\n      and\n      swap1\n      dup4\n      0xff\n      and\n      mul\n      or\n      swap1\n      sstore\n      pop\n      pop\n      pop\n      swap2\n      0x03\n      add\n      swap2\n      swap1\n      0x03\n      add\n      swap1\n      jump(tag_243)\n    tag_244:\n    tag_242:\n      pop\n      swap1\n      pop\n      tag_245\n      swap2\n      swap1\n      tag_246\n      jump\t// in\n    tag_245:\n      pop\n      swap1\n      jump\t// out\n    tag_246:\n    tag_247:\n      dup1\n      dup3\n      gt\n      iszero\n      tag_248\n      jumpi\n      0x00\n      dup1\n      dup3\n      add\n      0x00\n      swap1\n      sstore\n      0x01\n      dup3\n      add\n      0x00\n      swap1\n      sstore\n      0x02\n      dup3\n      add\n      exp(0x0100, 0x00)\n      dup2\n      sload\n      swap1\n      0xff\n      mul\n      not\n      and\n      swap1\n      sstore\n      pop\n      0x03\n      add\n      jump(tag_247)\n    tag_248:\n      pop\n      swap1\n      jump\t// out\n        /* \"#utility.yul\":7:82   */\n    tag_249:\n        /* \"#utility.yul\":40:46   */\n      0x00\n        /* \"#utility.yul\":73:75   */\n      0x40\n        /* \"#utility.yul\":67:76   */\n      mload\n        /* \"#utility.yul\":57:76   */\n      swap1\n      pop\n        /* \"#utility.yul\":7:82   */\n      swap1\n      jump\t// out\n        /* \"#utility.yul\":88:205   */\n    tag_250:\n        /* \"#utility.yul\":197:198   */\n      0x00\n        /* \"#utility.yul\":194:195   */\n      dup1\n        /* \"#utility.yul\":187:199   */\n      revert\n        /* \"#utility.yul\":211:328   */\n    tag_251:\n        /* \"#utility.yul\":320:321   */\n      0x00\n        /* \"#utility.yul\":317:318   */\n      dup1\n        /* \"#utility.yul\":310:322   */\n      revert\n        /* \"#utility.yul\":334:483   */\n    tag_252:\n        /* \"#utility.yul\":370:377   */\n      0x00\n        /* \"#utility.yul\":410:476   */\n      0xffffffff00000000000000000000000000000000000000000000000000000000\n        /* \"#utility.yul\":403:408   */\n      dup3\n        /* \"#utility.yul\":399:477   */\n      and\n        /* \"#utility.yul\":388:477   */\n      swap1\n      pop\n        /* \"#utility.yul\":334:483   */\n      swap2\n      swap1\n      pop\n      jump\t// out\n        /* \"#utility.yul\":489:609   */\n    tag_253:\n        /* \"#utility.yul\":561:584   */\n      tag_310\n        /* \"#utility.yul\":578:583   */\n      dup2\n        /* \"#utility.yul\":561:584   */\n      tag_252\n      jump\t// in\n    tag_310:\n        /* \"#utility.yul\":554:559   */\n      dup2\n        /* \"#utility.yul\":551:585   */\n      eq\n        /* \"#utility.yul\":541:603   */\n      tag_311\n      jumpi\n        /* \"#utility.yul\":599:600   */\n      0x00\n        /* \"#utility.yul\":596:597   */\n      dup1\n        /* \"#utility.yul\":589:601   */\n      revert\n        /* \"#utility.yul\":541:603   */\n    tag_311:\n        /* \"#utility.yul\":489:609   */\n      pop\n      jump\t// out\n        /* \"#utility.yul\":615:752   */\n    tag_254:\n        /* \"#utility.yul\":660:665   */\n      0x00\n        /* \"#utility.yul\":698:704   */\n      dup2\n        /* \"#utility.yul\":685:705   */\n      calldataload\n        /* \"#utility.yul\":676:705   */\n      swap1\n      pop\n        /* \"#utility.yul\":714:746   */\n      tag_313\n        /* \"#utility.yul\":740:745   */\n      dup2\n        /* \"#utility.yul\":714:746   */\n      tag_253\n      jump\t// in\n    tag_313:\n        /* \"#utility.yul\":615:752   */\n      swap3\n      swap2\n      pop\n      pop\n      jump\t// out\n        /* \"#utility.yul\":758:1085   */\n    tag_26:\n        /* \"#utility.yul\":816:822   */\n      0x00\n        /* \"#utility.yul\":865:867   */\n      0x20\n        /* \"#utility.yul\":853:862   */\n      dup3\n        /* \"#utility.yul\":844:851   */\n      dup5\n        /* \"#utility.yul\":840:863   */\n      sub\n        /* \"#utility.yul\":836:868   */\n      slt\n        /* \"#utility.yul\":833:952   */\n      iszero\n      tag_315\n      jumpi\n        /* \"#utility.yul\":871:950   */\n      tag_316\n      tag_250\n      jump\t// in\n    tag_316:\n        /* \"#utility.yul\":833:952   */\n    tag_315:\n        /* \"#utility.yul\":991:992   */\n      0x00\n        /* \"#utility.yul\":1016:1068   */\n      tag_317\n        /* \"#utility.yul\":1060:1067   */\n      dup5\n        /* \"#utility.yul\":1051:1057   */\n      dup3\n        /* \"#utility.yul\":1040:1049   */\n      dup6\n        /* \"#utility.yul\":1036:1058   */\n      add\n        /* \"#utility.yul\":1016:1068   */\n      tag_254\n      jump\t// in\n    tag_317:\n        /* \"#utility.yul\":1006:1068   */\n      swap2\n      pop\n        /* \"#utility.yul\":962:1078   */\n      pop\n        /* \"#utility.yul\":758:1085   */\n      swap3\n      swap2\n      pop\n      pop\n      jump\t// out\n        /* \"#utility.yul\":1091:1181   */\n    tag_255:\n        /* \"#utility.yul\":1125:1132   */\n      0x00\n        /* \"#utility.yul\":1168:1173   */\n      dup2\n        /* \"#utility.yul\":1161:1174   */\n      iszero\n        /* \"#utility.yul\":1154:1175   */\n      iszero\n        /* \"#utility.yul\":1143:1175   */\n      swap1\n      pop\n        /* \"#utility.yul\":1091:1181   */\n      swap2\n      swap1\n      pop\n      jump\t// out\n        /* \"#utility.yul\":1187:1296   */\n    tag_256:\n        /* \"#utility.yul\":1268:1289   */\n      tag_320\n        /* \"#utility.yul\":1283:1288   */\n      dup2\n        /* \"#utility.yul\":1268:1289   */\n      tag_255\n      jump\t// in\n    tag_320:\n        /* \"#utility.yul\":1263:1266   */\n      dup3\n        /* \"#utility.yul\":1256:1290   */\n      mstore\n        /* \"#utility.yul\":1187:1296   */\n      pop\n      pop\n      jump\t// out\n        /* \"#utility.yul\":1302:1512   */\n    tag_29:\n        /* \"#utility.yul\":1389:1393   */\n      0x00\n        /* \"#utility.yul\":1427:1429   */\n      0x20\n        /* \"#utility.yul\":1416:1425   */\n      dup3\n        /* \"#utility.yul\":1412:1430   */\n      add\n        /* \"#utility.yul\":1404:1430   */\n      swap1\n      pop\n        /* \"#utility.yul\":1440:1505   */\n      tag_322\n        /* \"#utility.yul\":1502:1503   */\n      0x00\n        /* \"#utility.yul\":1491:1500   */\n      dup4\n        /* \"#utility.yul\":1487:1504   */\n      add\n        /* \"#utility.yul\":1478:1484   */\n      dup5\n        /* \"#utility.yul\":1440:1505   */\n      tag_256\n      jump\t// in\n    tag_322:\n        /* \"#utility.yul\":1302:1512   */\n      swap3\n      swap2\n      pop\n      pop\n      jump\t// out\n        /* \"#utility.yul\":1518:1595   */\n    tag_257:\n        /* \"#utility.yul\":1555:1562   */\n      0x00\n        /* \"#utility.yul\":1584:1589   */\n      dup2\n        /* \"#utility.yul\":1573:1589   */\n      swap1\n      pop\n        /* \"#utility.yul\":1518:1595   */\n      swap2\n      swap1\n      pop\n      jump\t// out\n        /* \"#utility.yul\":1601:1723   */\n    tag_258:\n        /* \"#utility.yul\":1674:1698   */\n      tag_325\n        /* \"#utility.yul\":1692:1697   */\n      dup2\n        /* \"#utility.yul\":1674:1698   */\n      tag_257\n      jump\t// in\n    tag_325:\n        /* \"#utility.yul\":1667:1672   */\n      dup2\n        /* \"#utility.yul\":1664:1699   */\n      eq\n        /* \"#utility.yul\":1654:1717   */\n      tag_326\n      jumpi\n        /* \"#utility.yul\":1713:1714   */\n      0x00\n        /* \"#utility.yul\":1710:1711   */\n      dup1\n        /* \"#utility.yul\":1703:1715   */\n      revert\n        /* \"#utility.yul\":1654:1717   */\n    tag_326:\n        /* \"#utility.yul\":1601:1723   */\n      pop\n      jump\t// out\n        /* \"#utility.yul\":1729:1868   */\n    tag_259:\n        /* \"#utility.yul\":1775:1780   */\n      0x00\n        /* \"#utility.yul\":1813:1819   */\n      dup2\n        /* \"#utility.yul\":1800:1820   */\n      calldataload\n        /* \"#utility.yul\":1791:1820   */\n      swap1\n      pop\n        /* \"#utility.yul\":1829:1862   */\n      tag_328\n        /* \"#utility.yul\":1856:1861   */\n      dup2\n        /* \"#utility.yul\":1829:1862   */\n      tag_258\n      jump\t// in\n    tag_328:\n        /* \"#utility.yul\":1729:1868   */\n      swap3\n      swap2\n      pop\n      pop\n      jump\t// out\n        /* \"#utility.yul\":1874:2000   */\n    tag_260:\n        /* \"#utility.yul\":1911:1918   */\n      0x00\n        /* \"#utility.yul\":1951:1993   */\n      0xffffffffffffffffffffffffffffffffffffffff\n        /* \"#utility.yul\":1944:1949   */\n      dup3\n        /* \"#utility.yul\":1940:1994   */\n      and\n        /* \"#utility.yul\":1929:1994   */\n      swap1\n      pop\n        /* \"#utility.yul\":1874:2000   */\n      swap2\n      swap1\n      pop\n      jump\t// out\n        /* \"#utility.yul\":2006:2102   */\n    tag_261:\n        /* \"#utility.yul\":2043:2050   */\n      0x00\n        /* \"#utility.yul\":2072:2096   */\n      tag_331\n        /* \"#utility.yul\":2090:2095   */\n      dup3\n        /* \"#utility.yul\":2072:2096   */\n      tag_260\n      jump\t// in\n    tag_331:\n        /* \"#utility.yul\":2061:2096   */\n      swap1\n      pop\n        /* \"#utility.yul\":2006:2102   */\n      swap2\n      swap1\n      pop\n      jump\t// out\n        /* \"#utility.yul\":2108:2230   */\n    tag_262:\n        /* \"#utility.yul\":2181:2205   */\n      tag_333\n        /* \"#utility.yul\":2199:2204   */\n      dup2\n        /* \"#utility.yul\":2181:2205   */\n      tag_261\n      jump\t// in\n    tag_333:\n        /* \"#utility.yul\":2174:2179   */\n      dup2\n        /* \"#utility.yul\":2171:2206   */\n      eq\n        /* \"#utility.yul\":2161:2224   */\n      tag_334\n      jumpi\n        /* \"#utility.yul\":2220:2221   */\n      0x00\n        /* \"#utility.yul\":2217:2218   */\n      dup1\n        /* \"#utility.yul\":2210:2222   */\n      revert\n        /* \"#utility.yul\":2161:2224   */\n    tag_334:\n        /* \"#utility.yul\":2108:2230   */\n      pop\n      jump\t// out\n        /* \"#utility.yul\":2236:2375   */\n    tag_263:\n        /* \"#utility.yul\":2282:2287   */\n      0x00\n        /* \"#utility.yul\":2320:2326   */\n      dup2\n        /* \"#utility.yul\":2307:2327   */\n      calldataload\n        /* \"#utility.yul\":2298:2327   */\n      swap1\n      pop\n        /* \"#utility.yul\":2336:2369   */\n      tag_336\n        /* \"#utility.yul\":2363:2368   */\n      dup2\n        /* \"#utility.yul\":2336:2369   */\n      tag_262\n      jump\t// in\n    tag_336:\n        /* \"#utility.yul\":2236:2375   */\n      swap3\n      swap2\n      pop\n      pop\n      jump\t// out\n        /* \"#utility.yul\":2381:2855   */\n    tag_32:\n        /* \"#utility.yul\":2449:2455   */\n      0x00\n        /* \"#utility.yul\":2457:2463   */\n      dup1\n        /* \"#utility.yul\":2506:2508   */\n      0x40\n        /* \"#utility.yul\":2494:2503   */\n      dup4\n        /* \"#utility.yul\":2485:2492   */\n      dup6\n        /* \"#utility.yul\":2481:2504   */\n      sub\n        /* \"#utility.yul\":2477:2509   */\n      slt\n        /* \"#utility.yul\":2474:2593   */\n      iszero\n      tag_338\n      jumpi\n        /* \"#utility.yul\":2512:2591   */\n      tag_339\n      tag_250\n      jump\t// in\n    tag_339:\n        /* \"#utility.yul\":2474:2593   */\n    tag_338:\n        /* \"#utility.yul\":2632:2633   */\n      0x00\n        /* \"#utility.yul\":2657:2710   */\n      tag_340\n        /* \"#utility.yul\":2702:2709   */\n      dup6\n        /* \"#utility.yul\":2693:2699   */\n      dup3\n        /* \"#utility.yul\":2682:2691   */\n      dup7\n        /* \"#utility.yul\":2678:2700   */\n      add\n        /* \"#utility.yul\":2657:2710   */\n      tag_259\n      jump\t// in\n    tag_340:\n        /* \"#utility.yul\":2647:2710   */\n      swap3\n      pop\n        /* \"#utility.yul\":2603:2720   */\n      pop\n        /* \"#utility.yul\":2759:2761   */\n      0x20\n        /* \"#utility.yul\":2785:2838   */\n      tag_341\n        /* \"#utility.yul\":2830:2837   */\n      dup6\n        /* \"#utility.yul\":2821:2827   */\n      dup3\n        /* \"#utility.yul\":2810:2819   */\n      dup7\n        /* \"#utility.yul\":2806:2828   */\n      add\n        /* \"#utility.yul\":2785:2838   */\n      tag_263\n      jump\t// in\n    tag_341:\n        /* \"#utility.yul\":2775:2838   */\n      swap2\n      pop\n        /* \"#utility.yul\":2730:2848   */\n      pop\n        /* \"#utility.yul\":2381:2855   */\n      swap3\n      pop\n      swap3\n      swap1\n      pop\n      jump\t// out\n        /* \"#utility.yul\":2861:2947   */\n    tag_264:\n        /* \"#utility.yul\":2896:2903   */\n      0x00\n        /* \"#utility.yul\":2936:2940   */\n      0xff\n        /* \"#utility.yul\":2929:2934   */\n      dup3\n        /* \"#utility.yul\":2925:2941   */\n      and\n        /* \"#utility.yul\":2914:2941   */\n      swap1\n      pop\n        /* \"#utility.yul\":2861:2947   */\n      swap2\n      swap1\n      pop\n      jump\t// out\n        /* \"#utility.yul\":2953:3065   */\n    tag_265:\n        /* \"#utility.yul\":3036:3058   */\n      tag_344\n        /* \"#utility.yul\":3052:3057   */\n      dup2\n        /* \"#utility.yul\":3036:3058   */\n      tag_264\n      jump\t// in\n    tag_344:\n        /* \"#utility.yul\":3031:3034   */\n      dup3\n        /* \"#utility.yul\":3024:3059   */\n      mstore\n        /* \"#utility.yul\":2953:3065   */\n      pop\n      pop\n      jump\t// out\n        /* \"#utility.yul\":3071:3285   */\n    tag_35:\n        /* \"#utility.yul\":3160:3164   */\n      0x00\n        /* \"#utility.yul\":3198:3200   */\n      0x20\n        /* \"#utility.yul\":3187:3196   */\n      dup3\n        /* \"#utility.yul\":3183:3201   */\n      add\n        /* \"#utility.yul\":3175:3201   */\n      swap1\n      pop\n        /* \"#utility.yul\":3211:3278   */\n      tag_346\n        /* \"#utility.yul\":3275:3276   */\n      0x00\n        /* \"#utility.yul\":3264:3273   */\n      dup4\n        /* \"#utility.yul\":3260:3277   */\n      add\n        /* \"#utility.yul\":3251:3257   */\n      dup5\n        /* \"#utility.yul\":3211:3278   */\n      tag_265\n      jump\t// in\n    tag_346:\n        /* \"#utility.yul\":3071:3285   */\n      swap3\n      swap2\n      pop\n      pop\n      jump\t// out\n        /* \"#utility.yul\":3291:3620   */\n    tag_38:\n        /* \"#utility.yul\":3350:3356   */\n      0x00\n        /* \"#utility.yul\":3399:3401   */\n      0x20\n        /* \"#utility.yul\":3387:3396   */\n      dup3\n        /* \"#utility.yul\":3378:3385   */\n      dup5\n        /* \"#utility.yul\":3374:3397   */\n      sub\n        /* \"#utility.yul\":3370:3402   */\n      slt\n        /* \"#utility.yul\":3367:3486   */\n      iszero\n      tag_348\n      jumpi\n        /* \"#utility.yul\":3405:3484   */\n      tag_349\n      tag_250\n      jump\t// in\n    tag_349:\n        /* \"#utility.yul\":3367:3486   */\n    tag_348:\n        /* \"#utility.yul\":3525:3526   */\n      0x00\n        /* \"#utility.yul\":3550:3603   */\n      tag_350\n        /* \"#utility.yul\":3595:3602   */\n      dup5\n        /* \"#utility.yul\":3586:3592   */\n      dup3\n        /* \"#utility.yul\":3575:3584   */\n      dup6\n        /* \"#utility.yul\":3571:3593   */\n      add\n        /* \"#utility.yul\":3550:3603   */\n      tag_259\n      jump\t// in\n    tag_350:\n        /* \"#utility.yul\":3540:3603   */\n      swap2\n      pop\n        /* \"#utility.yul\":3496:3613   */\n      pop\n        /* \"#utility.yul\":3291:3620   */\n      swap3\n      swap2\n      pop\n      pop\n      jump\t// out\n        /* \"#utility.yul\":3626:3744   */\n    tag_266:\n        /* \"#utility.yul\":3713:3737   */\n      tag_352\n        /* \"#utility.yul\":3731:3736   */\n      dup2\n        /* \"#utility.yul\":3713:3737   */\n      tag_257\n      jump\t// in\n    tag_352:\n        /* \"#utility.yul\":3708:3711   */\n      dup3\n        /* \"#utility.yul\":3701:3738   */\n      mstore\n        /* \"#utility.yul\":3626:3744   */\n      pop\n      pop\n      jump\t// out\n        /* \"#utility.yul\":3750:3972   */\n    tag_41:\n        /* \"#utility.yul\":3843:3847   */\n      0x00\n        /* \"#utility.yul\":3881:3883   */\n      0x20\n        /* \"#utility.yul\":3870:3879   */\n      dup3\n        /* \"#utility.yul\":3866:3884   */\n      add\n        /* \"#utility.yul\":3858:3884   */\n      swap1\n      pop\n        /* \"#utility.yul\":3894:3965   */\n      tag_354\n        /* \"#utility.yul\":3962:3963   */\n      0x00\n        /* \"#utility.yul\":3951:3960   */\n      dup4\n        /* \"#utility.yul\":3947:3964   */\n      add\n        /* \"#utility.yul\":3938:3944   */\n      dup5\n        /* \"#utility.yul\":3894:3965   */\n      tag_266\n      jump\t// in\n    tag_354:\n        /* \"#utility.yul\":3750:3972   */\n      swap3\n      swap2\n      pop\n      pop\n      jump\t// out\n        /* \"#utility.yul\":3978:4095   */\n    tag_267:\n        /* \"#utility.yul\":4087:4088   */\n      0x00\n        /* \"#utility.yul\":4084:4085   */\n      dup1\n        /* \"#utility.yul\":4077:4089   */\n      revert\n        /* \"#utility.yul\":4101:4218   */\n    tag_268:\n        /* \"#utility.yul\":4210:4211   */\n      0x00\n        /* \"#utility.yul\":4207:4208   */\n      dup1\n        /* \"#utility.yul\":4200:4212   */\n      revert\n        /* \"#utility.yul\":4224:4341   */\n    tag_269:\n        /* \"#utility.yul\":4333:4334   */\n      0x00\n        /* \"#utility.yul\":4330:4331   */\n      dup1\n        /* \"#utility.yul\":4323:4335   */\n      revert\n        /* \"#utility.yul\":4360:4912   */\n    tag_270:\n        /* \"#utility.yul\":4417:4425   */\n      0x00\n        /* \"#utility.yul\":4427:4433   */\n      dup1\n        /* \"#utility.yul\":4477:4480   */\n      dup4\n        /* \"#utility.yul\":4470:4474   */\n      0x1f\n        /* \"#utility.yul\":4462:4468   */\n      dup5\n        /* \"#utility.yul\":4458:4475   */\n      add\n        /* \"#utility.yul\":4454:4481   */\n      slt\n        /* \"#utility.yul\":4444:4566   */\n      tag_359\n      jumpi\n        /* \"#utility.yul\":4485:4564   */\n      tag_360\n      tag_267\n      jump\t// in\n    tag_360:\n        /* \"#utility.yul\":4444:4566   */\n    tag_359:\n        /* \"#utility.yul\":4598:4604   */\n      dup3\n        /* \"#utility.yul\":4585:4605   */\n      calldataload\n        /* \"#utility.yul\":4575:4605   */\n      swap1\n      pop\n        /* \"#utility.yul\":4628:4646   */\n      0xffffffffffffffff\n        /* \"#utility.yul\":4620:4626   */\n      dup2\n        /* \"#utility.yul\":4617:4647   */\n      gt\n        /* \"#utility.yul\":4614:4731   */\n      iszero\n      tag_361\n      jumpi\n        /* \"#utility.yul\":4650:4729   */\n      tag_362\n      tag_268\n      jump\t// in\n    tag_362:\n        /* \"#utility.yul\":4614:4731   */\n    tag_361:\n        /* \"#utility.yul\":4764:4768   */\n      0x20\n        /* \"#utility.yul\":4756:4762   */\n      dup4\n        /* \"#utility.yul\":4752:4769   */\n      add\n        /* \"#utility.yul\":4740:4769   */\n      swap2\n      pop\n        /* \"#utility.yul\":4818:4821   */\n      dup4\n        /* \"#utility.yul\":4810:4814   */\n      0x01\n        /* \"#utility.yul\":4802:4808   */\n      dup3\n        /* \"#utility.yul\":4798:4815   */\n      mul\n        /* \"#utility.yul\":4788:4796   */\n      dup4\n        /* \"#utility.yul\":4784:4816   */\n      add\n        /* \"#utility.yul\":4781:4822   */\n      gt\n        /* \"#utility.yul\":4778:4906   */\n      iszero\n      tag_363\n      jumpi\n        /* \"#utility.yul\":4825:4904   */\n      tag_364\n      tag_269\n      jump\t// in\n    tag_364:\n        /* \"#utility.yul\":4778:4906   */\n    tag_363:\n        /* \"#utility.yul\":4360:4912   */\n      swap3\n      pop\n      swap3\n      swap1\n      pop\n      jump\t// out\n        /* \"#utility.yul\":4918:5735   */\n    tag_50:\n        /* \"#utility.yul\":5006:5012   */\n      0x00\n        /* \"#utility.yul\":5014:5020   */\n      dup1\n        /* \"#utility.yul\":5022:5028   */\n      0x00\n        /* \"#utility.yul\":5030:5036   */\n      dup1\n        /* \"#utility.yul\":5079:5081   */\n      0x60\n        /* \"#utility.yul\":5067:5076   */\n      dup6\n        /* \"#utility.yul\":5058:5065   */\n      dup8\n        /* \"#utility.yul\":5054:5077   */\n      sub\n        /* \"#utility.yul\":5050:5082   */\n      slt\n        /* \"#utility.yul\":5047:5166   */\n      iszero\n      tag_366\n      jumpi\n        /* \"#utility.yul\":5085:5164   */\n      tag_367\n      tag_250\n      jump\t// in\n    tag_367:\n        /* \"#utility.yul\":5047:5166   */\n    tag_366:\n        /* \"#utility.yul\":5205:5206   */\n      0x00\n        /* \"#utility.yul\":5230:5283   */\n      tag_368\n        /* \"#utility.yul\":5275:5282   */\n      dup8\n        /* \"#utility.yul\":5266:5272   */\n      dup3\n        /* \"#utility.yul\":5255:5264   */\n      dup9\n        /* \"#utility.yul\":5251:5273   */\n      add\n        /* \"#utility.yul\":5230:5283   */\n      tag_259\n      jump\t// in\n    tag_368:\n        /* \"#utility.yul\":5220:5283   */\n      swap5\n      pop\n        /* \"#utility.yul\":5176:5293   */\n      pop\n        /* \"#utility.yul\":5332:5334   */\n      0x20\n        /* \"#utility.yul\":5358:5411   */\n      tag_369\n        /* \"#utility.yul\":5403:5410   */\n      dup8\n        /* \"#utility.yul\":5394:5400   */\n      dup3\n        /* \"#utility.yul\":5383:5392   */\n      dup9\n        /* \"#utility.yul\":5379:5401   */\n      add\n        /* \"#utility.yul\":5358:5411   */\n      tag_263\n      jump\t// in\n    tag_369:\n        /* \"#utility.yul\":5348:5411   */\n      swap4\n      pop\n        /* \"#utility.yul\":5303:5421   */\n      pop\n        /* \"#utility.yul\":5488:5490   */\n      0x40\n        /* \"#utility.yul\":5477:5486   */\n      dup6\n        /* \"#utility.yul\":5473:5491   */\n      add\n        /* \"#utility.yul\":5460:5492   */\n      calldataload\n        /* \"#utility.yul\":5519:5537   */\n      0xffffffffffffffff\n        /* \"#utility.yul\":5511:5517   */\n      dup2\n        /* \"#utility.yul\":5508:5538   */\n      gt\n        /* \"#utility.yul\":5505:5622   */\n      iszero\n      tag_370\n      jumpi\n        /* \"#utility.yul\":5541:5620   */\n      tag_371\n      tag_251\n      jump\t// in\n    tag_371:\n        /* \"#utility.yul\":5505:5622   */\n    tag_370:\n        /* \"#utility.yul\":5654:5718   */\n      tag_372\n        /* \"#utility.yul\":5710:5717   */\n      dup8\n        /* \"#utility.yul\":5701:5707   */\n      dup3\n        /* \"#utility.yul\":5690:5699   */\n      dup9\n        /* \"#utility.yul\":5686:5708   */\n      add\n        /* \"#utility.yul\":5654:5718   */\n      tag_270\n      jump\t// in\n    tag_372:\n        /* \"#utility.yul\":5636:5718   */\n      swap3\n      pop\n      swap3\n      pop\n        /* \"#utility.yul\":5431:5728   */\n      pop\n        /* \"#utility.yul\":4918:5735   */\n      swap3\n      swap6\n      swap2\n      swap5\n      pop\n      swap3\n      pop\n      jump\t// out\n        /* \"#utility.yul\":5741:5858   */\n    tag_271:\n        /* \"#utility.yul\":5850:5851   */\n      0x00\n        /* \"#utility.yul\":5847:5848   */\n      dup1\n        /* \"#utility.yul\":5840:5852   */\n      revert\n        /* \"#utility.yul\":5864:5966   */\n    tag_272:\n        /* \"#utility.yul\":5905:5911   */\n      0x00\n        /* \"#utility.yul\":5956:5958   */\n      0x1f\n        /* \"#utility.yul\":5952:5959   */\n      not\n        /* \"#utility.yul\":5947:5949   */\n      0x1f\n        /* \"#utility.yul\":5940:5945   */\n      dup4\n        /* \"#utility.yul\":5936:5950   */\n      add\n        /* \"#utility.yul\":5932:5960   */\n      and\n        /* \"#utility.yul\":5922:5960   */\n      swap1\n      pop\n        /* \"#utility.yul\":5864:5966   */\n      swap2\n      swap1\n      pop\n      jump\t// out\n        /* \"#utility.yul\":5972:6152   */\n    tag_273:\n        /* \"#utility.yul\":6020:6097   */\n      0x4e487b7100000000000000000000000000000000000000000000000000000000\n        /* \"#utility.yul\":6017:6018   */\n      0x00\n        /* \"#utility.yul\":6010:6098   */\n      mstore\n        /* \"#utility.yul\":6117:6121   */\n      0x41\n        /* \"#utility.yul\":6114:6115   */\n      0x04\n        /* \"#utility.yul\":6107:6122   */\n      mstore\n        /* \"#utility.yul\":6141:6145   */\n      0x24\n        /* \"#utility.yul\":6138:6139   */\n      0x00\n        /* \"#utility.yul\":6131:6146   */\n      revert\n        /* \"#utility.yul\":6158:6439   */\n    tag_274:\n        /* \"#utility.yul\":6241:6268   */\n      tag_377\n        /* \"#utility.yul\":6263:6267   */\n      dup3\n        /* \"#utility.yul\":6241:6268   */\n      tag_272\n      jump\t// in\n    tag_377:\n        /* \"#utility.yul\":6233:6239   */\n      dup2\n        /* \"#utility.yul\":6229:6269   */\n      add\n        /* \"#utility.yul\":6371:6377   */\n      dup2\n        /* \"#utility.yul\":6359:6369   */\n      dup2\n        /* \"#utility.yul\":6356:6378   */\n      lt\n        /* \"#utility.yul\":6335:6353   */\n      0xffffffffffffffff\n        /* \"#utility.yul\":6323:6333   */\n      dup3\n        /* \"#utility.yul\":6320:6354   */\n      gt\n        /* \"#utility.yul\":6317:6379   */\n      or\n        /* \"#utility.yul\":6314:6402   */\n      iszero\n      tag_378\n      jumpi\n        /* \"#utility.yul\":6382:6400   */\n      tag_379\n      tag_273\n      jump\t// in\n    tag_379:\n        /* \"#utility.yul\":6314:6402   */\n    tag_378:\n        /* \"#utility.yul\":6422:6432   */\n      dup1\n        /* \"#utility.yul\":6418:6420   */\n      0x40\n        /* \"#utility.yul\":6411:6433   */\n      mstore\n        /* \"#utility.yul\":6201:6439   */\n      pop\n        /* \"#utility.yul\":6158:6439   */\n      pop\n      pop\n      jump\t// out\n        /* \"#utility.yul\":6445:6574   */\n    tag_275:\n        /* \"#utility.yul\":6479:6485   */\n      0x00\n        /* \"#utility.yul\":6506:6526   */\n      tag_381\n      tag_249\n      jump\t// in\n    tag_381:\n        /* \"#utility.yul\":6496:6526   */\n      swap1\n      pop\n        /* \"#utility.yul\":6535:6568   */\n      tag_382\n        /* \"#utility.yul\":6563:6567   */\n      dup3\n        /* \"#utility.yul\":6555:6561   */\n      dup3\n        /* \"#utility.yul\":6535:6568   */\n      tag_274\n      jump\t// in\n    tag_382:\n        /* \"#utility.yul\":6445:6574   */\n      swap2\n      swap1\n      pop\n      jump\t// out\n        /* \"#utility.yul\":6580:6887   */\n    tag_276:\n        /* \"#utility.yul\":6641:6645   */\n      0x00\n        /* \"#utility.yul\":6731:6749   */\n      0xffffffffffffffff\n        /* \"#utility.yul\":6723:6729   */\n      dup3\n        /* \"#utility.yul\":6720:6750   */\n      gt\n        /* \"#utility.yul\":6717:6773   */\n      iszero\n      tag_384\n      jumpi\n        /* \"#utility.yul\":6753:6771   */\n      tag_385\n      tag_273\n      jump\t// in\n    tag_385:\n        /* \"#utility.yul\":6717:6773   */\n    tag_384:\n        /* \"#utility.yul\":6791:6820   */\n      tag_386\n        /* \"#utility.yul\":6813:6819   */\n      dup3\n        /* \"#utility.yul\":6791:6820   */\n      tag_272\n      jump\t// in\n    tag_386:\n        /* \"#utility.yul\":6783:6820   */\n      swap1\n      pop\n        /* \"#utility.yul\":6875:6879   */\n      0x20\n        /* \"#utility.yul\":6869:6873   */\n      dup2\n        /* \"#utility.yul\":6865:6880   */\n      add\n        /* \"#utility.yul\":6857:6880   */\n      swap1\n      pop\n        /* \"#utility.yul\":6580:6887   */\n      swap2\n      swap1\n      pop\n      jump\t// out\n        /* \"#utility.yul\":6893:7039   */\n    tag_277:\n        /* \"#utility.yul\":6990:6996   */\n      dup3\n        /* \"#utility.yul\":6985:6988   */\n      dup2\n        /* \"#utility.yul\":6980:6983   */\n      dup4\n        /* \"#utility.yul\":6967:6997   */\n      calldatacopy\n        /* \"#utility.yul\":7031:7032   */\n      0x00\n        /* \"#utility.yul\":7022:7028   */\n      dup4\n        /* \"#utility.yul\":7017:7020   */\n      dup4\n        /* \"#utility.yul\":7013:7029   */\n      add\n        /* \"#utility.yul\":7006:7033   */\n      mstore\n        /* \"#utility.yul\":6893:7039   */\n      pop\n      pop\n      pop\n      jump\t// out\n        /* \"#utility.yul\":7045:7468   */\n    tag_278:\n        /* \"#utility.yul\":7122:7127   */\n      0x00\n        /* \"#utility.yul\":7147:7212   */\n      tag_389\n        /* \"#utility.yul\":7163:7211   */\n      tag_390\n        /* \"#utility.yul\":7204:7210   */\n      dup5\n        /* \"#utility.yul\":7163:7211   */\n      tag_276\n      jump\t// in\n    tag_390:\n        /* \"#utility.yul\":7147:7212   */\n      tag_275\n      jump\t// in\n    tag_389:\n        /* \"#utility.yul\":7138:7212   */\n      swap1\n      pop\n        /* \"#utility.yul\":7235:7241   */\n      dup3\n        /* \"#utility.yul\":7228:7233   */\n      dup2\n        /* \"#utility.yul\":7221:7242   */\n      mstore\n        /* \"#utility.yul\":7273:7277   */\n      0x20\n        /* \"#utility.yul\":7266:7271   */\n      dup2\n        /* \"#utility.yul\":7262:7278   */\n      add\n        /* \"#utility.yul\":7311:7314   */\n      dup5\n        /* \"#utility.yul\":7302:7308   */\n      dup5\n        /* \"#utility.yul\":7297:7300   */\n      dup5\n        /* \"#utility.yul\":7293:7309   */\n      add\n        /* \"#utility.yul\":7290:7315   */\n      gt\n        /* \"#utility.yul\":7287:7399   */\n      iszero\n      tag_391\n      jumpi\n        /* \"#utility.yul\":7318:7397   */\n      tag_392\n      tag_271\n      jump\t// in\n    tag_392:\n        /* \"#utility.yul\":7287:7399   */\n    tag_391:\n        /* \"#utility.yul\":7408:7462   */\n      tag_393\n        /* \"#utility.yul\":7455:7461   */\n      dup5\n        /* \"#utility.yul\":7450:7453   */\n      dup3\n        /* \"#utility.yul\":7445:7448   */\n      dup6\n        /* \"#utility.yul\":7408:7462   */\n      tag_277\n      jump\t// in\n    tag_393:\n        /* \"#utility.yul\":7128:7468   */\n      pop\n        /* \"#utility.yul\":7045:7468   */\n      swap4\n      swap3\n      pop\n      pop\n      pop\n      jump\t// out\n        /* \"#utility.yul\":7487:7825   */\n    tag_279:\n        /* \"#utility.yul\":7542:7547   */\n      0x00\n        /* \"#utility.yul\":7591:7594   */\n      dup3\n        /* \"#utility.yul\":7584:7588   */\n      0x1f\n        /* \"#utility.yul\":7576:7582   */\n      dup4\n        /* \"#utility.yul\":7572:7589   */\n      add\n        /* \"#utility.yul\":7568:7595   */\n      slt\n        /* \"#utility.yul\":7558:7680   */\n      tag_395\n      jumpi\n        /* \"#utility.yul\":7599:7678   */\n      tag_396\n      tag_267\n      jump\t// in\n    tag_396:\n        /* \"#utility.yul\":7558:7680   */\n    tag_395:\n        /* \"#utility.yul\":7716:7722   */\n      dup2\n        /* \"#utility.yul\":7703:7723   */\n      calldataload\n        /* \"#utility.yul\":7741:7819   */\n      tag_397\n        /* \"#utility.yul\":7815:7818   */\n      dup5\n        /* \"#utility.yul\":7807:7813   */\n      dup3\n        /* \"#utility.yul\":7800:7804   */\n      0x20\n        /* \"#utility.yul\":7792:7798   */\n      dup7\n        /* \"#utility.yul\":7788:7805   */\n      add\n        /* \"#utility.yul\":7741:7819   */\n      tag_278\n      jump\t// in\n    tag_397:\n        /* \"#utility.yul\":7732:7819   */\n      swap2\n      pop\n        /* \"#utility.yul\":7548:7825   */\n      pop\n        /* \"#utility.yul\":7487:7825   */\n      swap3\n      swap2\n      pop\n      pop\n      jump\t// out\n        /* \"#utility.yul\":7831:8628   */\n    tag_55:\n        /* \"#utility.yul\":7917:7923   */\n      0x00\n        /* \"#utility.yul\":7925:7931   */\n      dup1\n        /* \"#utility.yul\":7933:7939   */\n      0x00\n        /* \"#utility.yul\":7982:7984   */\n      0x60\n        /* \"#utility.yul\":7970:7979   */\n      dup5\n        /* \"#utility.yul\":7961:7968   */\n      dup7\n        /* \"#utility.yul\":7957:7980   */\n      sub\n        /* \"#utility.yul\":7953:7985   */\n      slt\n        /* \"#utility.yul\":7950:8069   */\n      iszero\n      tag_399\n      jumpi\n        /* \"#utility.yul\":7988:8067   */\n      tag_400\n      tag_250\n      jump\t// in\n    tag_400:\n        /* \"#utility.yul\":7950:8069   */\n    tag_399:\n        /* \"#utility.yul\":8108:8109   */\n      0x00\n        /* \"#utility.yul\":8133:8186   */\n      tag_401\n        /* \"#utility.yul\":8178:8185   */\n      dup7\n        /* \"#utility.yul\":8169:8175   */\n      dup3\n        /* \"#utility.yul\":8158:8167   */\n      dup8\n        /* \"#utility.yul\":8154:8176   */\n      add\n        /* \"#utility.yul\":8133:8186   */\n      tag_259\n      jump\t// in\n    tag_401:\n        /* \"#utility.yul\":8123:8186   */\n      swap4\n      pop\n        /* \"#utility.yul\":8079:8196   */\n      pop\n        /* \"#utility.yul\":8235:8237   */\n      0x20\n        /* \"#utility.yul\":8261:8314   */\n      tag_402\n        /* \"#utility.yul\":8306:8313   */\n      dup7\n        /* \"#utility.yul\":8297:8303   */\n      dup3\n        /* \"#utility.yul\":8286:8295   */\n      dup8\n        /* \"#utility.yul\":8282:8304   */\n      add\n        /* \"#utility.yul\":8261:8314   */\n      tag_263\n      jump\t// in\n    tag_402:\n        /* \"#utility.yul\":8251:8314   */\n      swap3\n      pop\n        /* \"#utility.yul\":8206:8324   */\n      pop\n        /* \"#utility.yul\":8391:8393   */\n      0x40\n        /* \"#utility.yul\":8380:8389   */\n      dup5\n        /* \"#utility.yul\":8376:8394   */\n      add\n        /* \"#utility.yul\":8363:8395   */\n      calldataload\n        /* \"#utility.yul\":8422:8440   */\n      0xffffffffffffffff\n        /* \"#utility.yul\":8414:8420   */\n      dup2\n        /* \"#utility.yul\":8411:8441   */\n      gt\n        /* \"#utility.yul\":8408:8525   */\n      iszero\n      tag_403\n      jumpi\n        /* \"#utility.yul\":8444:8523   */\n      tag_404\n      tag_251\n      jump\t// in\n    tag_404:\n        /* \"#utility.yul\":8408:8525   */\n    tag_403:\n        /* \"#utility.yul\":8549:8611   */\n      tag_405\n        /* \"#utility.yul\":8603:8610   */\n      dup7\n        /* \"#utility.yul\":8594:8600   */\n      dup3\n        /* \"#utility.yul\":8583:8592   */\n      dup8\n        /* \"#utility.yul\":8579:8601   */\n      add\n        /* \"#utility.yul\":8549:8611   */\n      tag_279\n      jump\t// in\n    tag_405:\n        /* \"#utility.yul\":8539:8611   */\n      swap2\n      pop\n        /* \"#utility.yul\":8334:8621   */\n      pop\n        /* \"#utility.yul\":7831:8628   */\n      swap3\n      pop\n      swap3\n      pop\n      swap3\n      jump\t// out\n        /* \"#utility.yul\":8634:8711   */\n    tag_280:\n        /* \"#utility.yul\":8671:8678   */\n      0x00\n        /* \"#utility.yul\":8700:8705   */\n      dup2\n        /* \"#utility.yul\":8689:8705   */\n      swap1\n      pop\n        /* \"#utility.yul\":8634:8711   */\n      swap2\n      swap1\n      pop\n      jump\t// out\n        /* \"#utility.yul\":8717:8839   */\n    tag_281:\n        /* \"#utility.yul\":8790:8814   */\n      tag_408\n        /* \"#utility.yul\":8808:8813   */\n      dup2\n        /* \"#utility.yul\":8790:8814   */\n      tag_280\n      jump\t// in\n    tag_408:\n        /* \"#utility.yul\":8783:8788   */\n      dup2\n        /* \"#utility.yul\":8780:8815   */\n      eq\n        /* \"#utility.yul\":8770:8833   */\n      tag_409\n      jumpi\n        /* \"#utility.yul\":8829:8830   */\n      0x00\n        /* \"#utility.yul\":8826:8827   */\n      dup1\n        /* \"#utility.yul\":8819:8831   */\n      revert\n        /* \"#utility.yul\":8770:8833   */\n    tag_409:\n        /* \"#utility.yul\":8717:8839   */\n      pop\n      jump\t// out\n        /* \"#utility.yul\":8845:8984   */\n    tag_282:\n        /* \"#utility.yul\":8891:8896   */\n      0x00\n        /* \"#utility.yul\":8929:8935   */\n      dup2\n        /* \"#utility.yul\":8916:8936   */\n      calldataload\n        /* \"#utility.yul\":8907:8936   */\n      swap1\n      pop\n        /* \"#utility.yul\":8945:8978   */\n      tag_411\n        /* \"#utility.yul\":8972:8977   */\n      dup2\n        /* \"#utility.yul\":8945:8978   */\n      tag_281\n      jump\t// in\n    tag_411:\n        /* \"#utility.yul\":8845:8984   */\n      swap3\n      swap2\n      pop\n      pop\n      jump\t// out\n        /* \"#utility.yul\":8990:10245   */\n    tag_60:\n        /* \"#utility.yul\":9105:9111   */\n      0x00\n        /* \"#utility.yul\":9113:9119   */\n      dup1\n        /* \"#utility.yul\":9121:9127   */\n      0x00\n        /* \"#utility.yul\":9129:9135   */\n      dup1\n        /* \"#utility.yul\":9137:9143   */\n      0x00\n        /* \"#utility.yul\":9145:9151   */\n      dup1\n        /* \"#utility.yul\":9153:9159   */\n      0x00\n        /* \"#utility.yul\":9202:9205   */\n      0xc0\n        /* \"#utility.yul\":9190:9199   */\n      dup9\n        /* \"#utility.yul\":9181:9188   */\n      dup11\n        /* \"#utility.yul\":9177:9200   */\n      sub\n        /* \"#utility.yul\":9173:9206   */\n      slt\n        /* \"#utility.yul\":9170:9290   */\n      iszero\n      tag_413\n      jumpi\n        /* \"#utility.yul\":9209:9288   */\n      tag_414\n      tag_250\n      jump\t// in\n    tag_414:\n        /* \"#utility.yul\":9170:9290   */\n    tag_413:\n        /* \"#utility.yul\":9329:9330   */\n      0x00\n        /* \"#utility.yul\":9354:9407   */\n      tag_415\n        /* \"#utility.yul\":9399:9406   */\n      dup11\n        /* \"#utility.yul\":9390:9396   */\n      dup3\n        /* \"#utility.yul\":9379:9388   */\n      dup12\n        /* \"#utility.yul\":9375:9397   */\n      add\n        /* \"#utility.yul\":9354:9407   */\n      tag_263\n      jump\t// in\n    tag_415:\n        /* \"#utility.yul\":9344:9407   */\n      swap8\n      pop\n        /* \"#utility.yul\":9300:9417   */\n      pop\n        /* \"#utility.yul\":9456:9458   */\n      0x20\n        /* \"#utility.yul\":9482:9535   */\n      tag_416\n        /* \"#utility.yul\":9527:9534   */\n      dup11\n        /* \"#utility.yul\":9518:9524   */\n      dup3\n        /* \"#utility.yul\":9507:9516   */\n      dup12\n        /* \"#utility.yul\":9503:9525   */\n      add\n        /* \"#utility.yul\":9482:9535   */\n      tag_263\n      jump\t// in\n    tag_416:\n        /* \"#utility.yul\":9472:9535   */\n      swap7\n      pop\n        /* \"#utility.yul\":9427:9545   */\n      pop\n        /* \"#utility.yul\":9584:9586   */\n      0x40\n        /* \"#utility.yul\":9610:9663   */\n      tag_417\n        /* \"#utility.yul\":9655:9662   */\n      dup11\n        /* \"#utility.yul\":9646:9652   */\n      dup3\n        /* \"#utility.yul\":9635:9644   */\n      dup12\n        /* \"#utility.yul\":9631:9653   */\n      add\n        /* \"#utility.yul\":9610:9663   */\n      tag_259\n      jump\t// in\n    tag_417:\n        /* \"#utility.yul\":9600:9663   */\n      swap6\n      pop\n        /* \"#utility.yul\":9555:9673   */\n      pop\n        /* \"#utility.yul\":9712:9714   */\n      0x60\n        /* \"#utility.yul\":9738:9791   */\n      tag_418\n        /* \"#utility.yul\":9783:9790   */\n      dup11\n        /* \"#utility.yul\":9774:9780   */\n      dup3\n        /* \"#utility.yul\":9763:9772   */\n      dup12\n        /* \"#utility.yul\":9759:9781   */\n      add\n        /* \"#utility.yul\":9738:9791   */\n      tag_282\n      jump\t// in\n    tag_418:\n        /* \"#utility.yul\":9728:9791   */\n      swap5\n      pop\n        /* \"#utility.yul\":9683:9801   */\n      pop\n        /* \"#utility.yul\":9840:9843   */\n      0x80\n        /* \"#utility.yul\":9867:9920   */\n      tag_419\n        /* \"#utility.yul\":9912:9919   */\n      dup11\n        /* \"#utility.yul\":9903:9909   */\n      dup3\n        /* \"#utility.yul\":9892:9901   */\n      dup12\n        /* \"#utility.yul\":9888:9910   */\n      add\n        /* \"#utility.yul\":9867:9920   */\n      tag_282\n      jump\t// in\n    tag_419:\n        /* \"#utility.yul\":9857:9920   */\n      swap4\n      pop\n        /* \"#utility.yul\":9811:9930   */\n      pop\n        /* \"#utility.yul\":9997:10000   */\n      0xa0\n        /* \"#utility.yul\":9986:9995   */\n      dup9\n        /* \"#utility.yul\":9982:10001   */\n      add\n        /* \"#utility.yul\":9969:10002   */\n      calldataload\n        /* \"#utility.yul\":10029:10047   */\n      0xffffffffffffffff\n        /* \"#utility.yul\":10021:10027   */\n      dup2\n        /* \"#utility.yul\":10018:10048   */\n      gt\n        /* \"#utility.yul\":10015:10132   */\n      iszero\n      tag_420\n      jumpi\n        /* \"#utility.yul\":10051:10130   */\n      tag_421\n      tag_251\n      jump\t// in\n    tag_421:\n        /* \"#utility.yul\":10015:10132   */\n    tag_420:\n        /* \"#utility.yul\":10164:10228   */\n      tag_422\n        /* \"#utility.yul\":10220:10227   */\n      dup11\n        /* \"#utility.yul\":10211:10217   */\n      dup3\n        /* \"#utility.yul\":10200:10209   */\n      dup12\n        /* \"#utility.yul\":10196:10218   */\n      add\n        /* \"#utility.yul\":10164:10228   */\n      tag_270\n      jump\t// in\n    tag_422:\n        /* \"#utility.yul\":10146:10228   */\n      swap3\n      pop\n      swap3\n      pop\n        /* \"#utility.yul\":9940:10238   */\n      pop\n        /* \"#utility.yul\":8990:10245   */\n      swap3\n      swap6\n      swap9\n      swap2\n      swap5\n      swap8\n      pop\n      swap3\n      swap6\n      pop\n      jump\t// out\n        /* \"#utility.yul\":10251:10725   */\n    tag_68:\n        /* \"#utility.yul\":10319:10325   */\n      0x00\n        /* \"#utility.yul\":10327:10333   */\n      dup1\n        /* \"#utility.yul\":10376:10378   */\n      0x40\n        /* \"#utility.yul\":10364:10373   */\n      dup4\n        /* \"#utility.yul\":10355:10362   */\n      dup6\n        /* \"#utility.yul\":10351:10374   */\n      sub\n        /* \"#utility.yul\":10347:10379   */\n      slt\n        /* \"#utility.yul\":10344:10463   */\n      iszero\n      tag_424\n      jumpi\n        /* \"#utility.yul\":10382:10461   */\n      tag_425\n      tag_250\n      jump\t// in\n    tag_425:\n        /* \"#utility.yul\":10344:10463   */\n    tag_424:\n        /* \"#utility.yul\":10502:10503   */\n      0x00\n        /* \"#utility.yul\":10527:10580   */\n      tag_426\n        /* \"#utility.yul\":10572:10579   */\n      dup6\n        /* \"#utility.yul\":10563:10569   */\n      dup3\n        /* \"#utility.yul\":10552:10561   */\n      dup7\n        /* \"#utility.yul\":10548:10570   */\n      add\n        /* \"#utility.yul\":10527:10580   */\n      tag_263\n      jump\t// in\n    tag_426:\n        /* \"#utility.yul\":10517:10580   */\n      swap3\n      pop\n        /* \"#utility.yul\":10473:10590   */\n      pop\n        /* \"#utility.yul\":10629:10631   */\n      0x20\n        /* \"#utility.yul\":10655:10708   */\n      tag_427\n        /* \"#utility.yul\":10700:10707   */\n      dup6\n        /* \"#utility.yul\":10691:10697   */\n      dup3\n        /* \"#utility.yul\":10680:10689   */\n      dup7\n        /* \"#utility.yul\":10676:10698   */\n      add\n        /* \"#utility.yul\":10655:10708   */\n      tag_263\n      jump\t// in\n    tag_427:\n        /* \"#utility.yul\":10645:10708   */\n      swap2\n      pop\n        /* \"#utility.yul\":10600:10718   */\n      pop\n        /* \"#utility.yul\":10251:10725   */\n      swap3\n      pop\n      swap3\n      swap1\n      pop\n      jump\t// out\n        /* \"#utility.yul\":10731:10849   */\n    tag_283:\n        /* \"#utility.yul\":10802:10824   */\n      tag_429\n        /* \"#utility.yul\":10818:10823   */\n      dup2\n        /* \"#utility.yul\":10802:10824   */\n      tag_264\n      jump\t// in\n    tag_429:\n        /* \"#utility.yul\":10795:10800   */\n      dup2\n        /* \"#utility.yul\":10792:10825   */\n      eq\n        /* \"#utility.yul\":10782:10843   */\n      tag_430\n      jumpi\n        /* \"#utility.yul\":10839:10840   */\n      0x00\n        /* \"#utility.yul\":10836:10837   */\n      dup1\n        /* \"#utility.yul\":10829:10841   */\n      revert\n        /* \"#utility.yul\":10782:10843   */\n    tag_430:\n        /* \"#utility.yul\":10731:10849   */\n      pop\n      jump\t// out\n        /* \"#utility.yul\":10855:10990   */\n    tag_284:\n        /* \"#utility.yul\":10899:10904   */\n      0x00\n        /* \"#utility.yul\":10937:10943   */\n      dup2\n        /* \"#utility.yul\":10924:10944   */\n      calldataload\n        /* \"#utility.yul\":10915:10944   */\n      swap1\n      pop\n        /* \"#utility.yul\":10953:10984   */\n      tag_432\n        /* \"#utility.yul\":10978:10983   */\n      dup2\n        /* \"#utility.yul\":10953:10984   */\n      tag_283\n      jump\t// in\n    tag_432:\n        /* \"#utility.yul\":10855:10990   */\n      swap3\n      swap2\n      pop\n      pop\n      jump\t// out\n        /* \"#utility.yul\":10996:11757   */\n    tag_73:\n        /* \"#utility.yul\":11080:11086   */\n      0x00\n        /* \"#utility.yul\":11088:11094   */\n      dup1\n        /* \"#utility.yul\":11096:11102   */\n      0x00\n        /* \"#utility.yul\":11104:11110   */\n      dup1\n        /* \"#utility.yul\":11153:11156   */\n      0x80\n        /* \"#utility.yul\":11141:11150   */\n      dup6\n        /* \"#utility.yul\":11132:11139   */\n      dup8\n        /* \"#utility.yul\":11128:11151   */\n      sub\n        /* \"#utility.yul\":11124:11157   */\n      slt\n        /* \"#utility.yul\":11121:11241   */\n      iszero\n      tag_434\n      jumpi\n        /* \"#utility.yul\":11160:11239   */\n      tag_435\n      tag_250\n      jump\t// in\n    tag_435:\n        /* \"#utility.yul\":11121:11241   */\n    tag_434:\n        /* \"#utility.yul\":11280:11281   */\n      0x00\n        /* \"#utility.yul\":11305:11358   */\n      tag_436\n        /* \"#utility.yul\":11350:11357   */\n      dup8\n        /* \"#utility.yul\":11341:11347   */\n      dup3\n        /* \"#utility.yul\":11330:11339   */\n      dup9\n        /* \"#utility.yul\":11326:11348   */\n      add\n        /* \"#utility.yul\":11305:11358   */\n      tag_259\n      jump\t// in\n    tag_436:\n        /* \"#utility.yul\":11295:11358   */\n      swap5\n      pop\n        /* \"#utility.yul\":11251:11368   */\n      pop\n        /* \"#utility.yul\":11407:11409   */\n      0x20\n        /* \"#utility.yul\":11433:11484   */\n      tag_437\n        /* \"#utility.yul\":11476:11483   */\n      dup8\n        /* \"#utility.yul\":11467:11473   */\n      dup3\n        /* \"#utility.yul\":11456:11465   */\n      dup9\n        /* \"#utility.yul\":11452:11474   */\n      add\n        /* \"#utility.yul\":11433:11484   */\n      tag_284\n      jump\t// in\n    tag_437:\n        /* \"#utility.yul\":11423:11484   */\n      swap4\n      pop\n        /* \"#utility.yul\":11378:11494   */\n      pop\n        /* \"#utility.yul\":11533:11535   */\n      0x40\n        /* \"#utility.yul\":11559:11612   */\n      tag_438\n        /* \"#utility.yul\":11604:11611   */\n      dup8\n        /* \"#utility.yul\":11595:11601   */\n      dup3\n        /* \"#utility.yul\":11584:11593   */\n      dup9\n        /* \"#utility.yul\":11580:11602   */\n      add\n        /* \"#utility.yul\":11559:11612   */\n      tag_259\n      jump\t// in\n    tag_438:\n        /* \"#utility.yul\":11549:11612   */\n      swap3\n      pop\n        /* \"#utility.yul\":11504:11622   */\n      pop\n        /* \"#utility.yul\":11661:11663   */\n      0x60\n        /* \"#utility.yul\":11687:11740   */\n      tag_439\n        /* \"#utility.yul\":11732:11739   */\n      dup8\n        /* \"#utility.yul\":11723:11729   */\n      dup3\n        /* \"#utility.yul\":11712:11721   */\n      dup9\n        /* \"#utility.yul\":11708:11730   */\n      add\n        /* \"#utility.yul\":11687:11740   */\n      tag_259\n      jump\t// in\n    tag_439:\n        /* \"#utility.yul\":11677:11740   */\n      swap2\n      pop\n        /* \"#utility.yul\":11632:11750   */\n      pop\n        /* \"#utility.yul\":10996:11757   */\n      swap3\n      swap6\n      swap2\n      swap5\n      pop\n      swap3\n      pop\n      jump\t// out\n        /* \"#utility.yul\":11763:11881   */\n    tag_285:\n        /* \"#utility.yul\":11850:11874   */\n      tag_441\n        /* \"#utility.yul\":11868:11873   */\n      dup2\n        /* \"#utility.yul\":11850:11874   */\n      tag_261\n      jump\t// in\n    tag_441:\n        /* \"#utility.yul\":11845:11848   */\n      dup3\n        /* \"#utility.yul\":11838:11875   */\n      mstore\n        /* \"#utility.yul\":11763:11881   */\n      pop\n      pop\n      jump\t// out\n        /* \"#utility.yul\":11887:12109   */\n    tag_76:\n        /* \"#utility.yul\":11980:11984   */\n      0x00\n        /* \"#utility.yul\":12018:12020   */\n      0x20\n        /* \"#utility.yul\":12007:12016   */\n      dup3\n        /* \"#utility.yul\":12003:12021   */\n      add\n        /* \"#utility.yul\":11995:12021   */\n      swap1\n      pop\n        /* \"#utility.yul\":12031:12102   */\n      tag_443\n        /* \"#utility.yul\":12099:12100   */\n      0x00\n        /* \"#utility.yul\":12088:12097   */\n      dup4\n        /* \"#utility.yul\":12084:12101   */\n      add\n        /* \"#utility.yul\":12075:12081   */\n      dup5\n        /* \"#utility.yul\":12031:12102   */\n      tag_285\n      jump\t// in\n    tag_443:\n        /* \"#utility.yul\":11887:12109   */\n      swap3\n      swap2\n      pop\n      pop\n      jump\t// out\n        /* \"#utility.yul\":12115:12589   */\n    tag_97:\n        /* \"#utility.yul\":12183:12189   */\n      0x00\n        /* \"#utility.yul\":12191:12197   */\n      dup1\n        /* \"#utility.yul\":12240:12242   */\n      0x40\n        /* \"#utility.yul\":12228:12237   */\n      dup4\n        /* \"#utility.yul\":12219:12226   */\n      dup6\n        /* \"#utility.yul\":12215:12238   */\n      sub\n        /* \"#utility.yul\":12211:12243   */\n      slt\n        /* \"#utility.yul\":12208:12327   */\n      iszero\n      tag_445\n      jumpi\n        /* \"#utility.yul\":12246:12325   */\n      tag_446\n      tag_250\n      jump\t// in\n    tag_446:\n        /* \"#utility.yul\":12208:12327   */\n    tag_445:\n        /* \"#utility.yul\":12366:12367   */\n      0x00\n        /* \"#utility.yul\":12391:12444   */\n      tag_447\n        /* \"#utility.yul\":12436:12443   */\n      dup6\n        /* \"#utility.yul\":12427:12433   */\n      dup3\n        /* \"#utility.yul\":12416:12425   */\n      dup7\n        /* \"#utility.yul\":12412:12434   */\n      add\n        /* \"#utility.yul\":12391:12444   */\n      tag_263\n      jump\t// in\n    tag_447:\n        /* \"#utility.yul\":12381:12444   */\n      swap3\n      pop\n        /* \"#utility.yul\":12337:12454   */\n      pop\n        /* \"#utility.yul\":12493:12495   */\n      0x20\n        /* \"#utility.yul\":12519:12572   */\n      tag_448\n        /* \"#utility.yul\":12564:12571   */\n      dup6\n        /* \"#utility.yul\":12555:12561   */\n      dup3\n        /* \"#utility.yul\":12544:12553   */\n      dup7\n        /* \"#utility.yul\":12540:12562   */\n      add\n        /* \"#utility.yul\":12519:12572   */\n      tag_259\n      jump\t// in\n    tag_448:\n        /* \"#utility.yul\":12509:12572   */\n      swap2\n      pop\n        /* \"#utility.yul\":12464:12582   */\n      pop\n        /* \"#utility.yul\":12115:12589   */\n      swap3\n      pop\n      swap3\n      swap1\n      pop\n      jump\t// out\n        /* \"#utility.yul\":12595:12713   */\n    tag_286:\n        /* \"#utility.yul\":12682:12706   */\n      tag_450\n        /* \"#utility.yul\":12700:12705   */\n      dup2\n        /* \"#utility.yul\":12682:12706   */\n      tag_280\n      jump\t// in\n    tag_450:\n        /* \"#utility.yul\":12677:12680   */\n      dup3\n        /* \"#utility.yul\":12670:12707   */\n      mstore\n        /* \"#utility.yul\":12595:12713   */\n      pop\n      pop\n      jump\t// out\n        /* \"#utility.yul\":12719:13371   */\n    tag_104:\n        /* \"#utility.yul\":12918:12922   */\n      0x00\n        /* \"#utility.yul\":12956:12959   */\n      0xa0\n        /* \"#utility.yul\":12945:12954   */\n      dup3\n        /* \"#utility.yul\":12941:12960   */\n      add\n        /* \"#utility.yul\":12933:12960   */\n      swap1\n      pop\n        /* \"#utility.yul\":12970:13041   */\n      tag_452\n        /* \"#utility.yul\":13038:13039   */\n      0x00\n        /* \"#utility.yul\":13027:13036   */\n      dup4\n        /* \"#utility.yul\":13023:13040   */\n      add\n        /* \"#utility.yul\":13014:13020   */\n      dup9\n        /* \"#utility.yul\":12970:13041   */\n      tag_285\n      jump\t// in\n    tag_452:\n        /* \"#utility.yul\":13051:13123   */\n      tag_453\n        /* \"#utility.yul\":13119:13121   */\n      0x20\n        /* \"#utility.yul\":13108:13117   */\n      dup4\n        /* \"#utility.yul\":13104:13122   */\n      add\n        /* \"#utility.yul\":13095:13101   */\n      dup8\n        /* \"#utility.yul\":13051:13123   */\n      tag_285\n      jump\t// in\n    tag_453:\n        /* \"#utility.yul\":13133:13205   */\n      tag_454\n        /* \"#utility.yul\":13201:13203   */\n      0x40\n        /* \"#utility.yul\":13190:13199   */\n      dup4\n        /* \"#utility.yul\":13186:13204   */\n      add\n        /* \"#utility.yul\":13177:13183   */\n      dup7\n        /* \"#utility.yul\":13133:13205   */\n      tag_286\n      jump\t// in\n    tag_454:\n        /* \"#utility.yul\":13215:13287   */\n      tag_455\n        /* \"#utility.yul\":13283:13285   */\n      0x60\n        /* \"#utility.yul\":13272:13281   */\n      dup4\n        /* \"#utility.yul\":13268:13286   */\n      add\n        /* \"#utility.yul\":13259:13265   */\n      dup6\n        /* \"#utility.yul\":13215:13287   */\n      tag_286\n      jump\t// in\n    tag_455:\n        /* \"#utility.yul\":13297:13364   */\n      tag_456\n        /* \"#utility.yul\":13359:13362   */\n      0x80\n        /* \"#utility.yul\":13348:13357   */\n      dup4\n        /* \"#utility.yul\":13344:13363   */\n      add\n        /* \"#utility.yul\":13335:13341   */\n      dup5\n        /* \"#utility.yul\":13297:13364   */\n      tag_256\n      jump\t// in\n    tag_456:\n        /* \"#utility.yul\":12719:13371   */\n      swap7\n      swap6\n      pop\n      pop\n      pop\n      pop\n      pop\n      pop\n      jump\t// out\n        /* \"#utility.yul\":13377:13546   */\n    tag_287:\n        /* \"#utility.yul\":13461:13472   */\n      0x00\n        /* \"#utility.yul\":13495:13501   */\n      dup3\n        /* \"#utility.yul\":13490:13493   */\n      dup3\n        /* \"#utility.yul\":13483:13502   */\n      mstore\n        /* \"#utility.yul\":13535:13539   */\n      0x20\n        /* \"#utility.yul\":13530:13533   */\n      dup3\n        /* \"#utility.yul\":13526:13540   */\n      add\n        /* \"#utility.yul\":13511:13540   */\n      swap1\n      pop\n        /* \"#utility.yul\":13377:13546   */\n      swap3\n      swap2\n      pop\n      pop\n      jump\t// out\n        /* \"#utility.yul\":13552:13727   */\n    tag_288:\n        /* \"#utility.yul\":13692:13719   */\n      0x43726564656e7469616c20646f65736e27742065786973747300000000000000\n        /* \"#utility.yul\":13688:13689   */\n      0x00\n        /* \"#utility.yul\":13680:13686   */\n      dup3\n        /* \"#utility.yul\":13676:13690   */\n      add\n        /* \"#utility.yul\":13669:13720   */\n      mstore\n        /* \"#utility.yul\":13552:13727   */\n      pop\n      jump\t// out\n        /* \"#utility.yul\":13733:14099   */\n    tag_289:\n        /* \"#utility.yul\":13875:13878   */\n      0x00\n        /* \"#utility.yul\":13896:13963   */\n      tag_460\n        /* \"#utility.yul\":13960:13962   */\n      0x19\n        /* \"#utility.yul\":13955:13958   */\n      dup4\n        /* \"#utility.yul\":13896:13963   */\n      tag_287\n      jump\t// in\n    tag_460:\n        /* \"#utility.yul\":13889:13963   */\n      swap2\n      pop\n        /* \"#utility.yul\":13972:14065   */\n      tag_461\n        /* \"#utility.yul\":14061:14064   */\n      dup3\n        /* \"#utility.yul\":13972:14065   */\n      tag_288\n      jump\t// in\n    tag_461:\n        /* \"#utility.yul\":14090:14092   */\n      0x20\n        /* \"#utility.yul\":14085:14088   */\n      dup3\n        /* \"#utility.yul\":14081:14093   */\n      add\n        /* \"#utility.yul\":14074:14093   */\n      swap1\n      pop\n        /* \"#utility.yul\":13733:14099   */\n      swap2\n      swap1\n      pop\n      jump\t// out\n        /* \"#utility.yul\":14105:14524   */\n    tag_137:\n        /* \"#utility.yul\":14271:14275   */\n      0x00\n        /* \"#utility.yul\":14309:14311   */\n      0x20\n        /* \"#utility.yul\":14298:14307   */\n      dup3\n        /* \"#utility.yul\":14294:14312   */\n      add\n        /* \"#utility.yul\":14286:14312   */\n      swap1\n      pop\n        /* \"#utility.yul\":14358:14367   */\n      dup2\n        /* \"#utility.yul\":14352:14356   */\n      dup2\n        /* \"#utility.yul\":14348:14368   */\n      sub\n        /* \"#utility.yul\":14344:14345   */\n      0x00\n        /* \"#utility.yul\":14333:14342   */\n      dup4\n        /* \"#utility.yul\":14329:14346   */\n      add\n        /* \"#utility.yul\":14322:14369   */\n      mstore\n        /* \"#utility.yul\":14386:14517   */\n      tag_463\n        /* \"#utility.yul\":14512:14516   */\n      dup2\n        /* \"#utility.yul\":14386:14517   */\n      tag_289\n      jump\t// in\n    tag_463:\n        /* \"#utility.yul\":14378:14517   */\n      swap1\n      pop\n        /* \"#utility.yul\":14105:14524   */\n      swap2\n      swap1\n      pop\n      jump\t// out\n        /* \"#utility.yul\":14530:14710   */\n    tag_143:\n        /* \"#utility.yul\":14578:14655   */\n      0x4e487b7100000000000000000000000000000000000000000000000000000000\n        /* \"#utility.yul\":14575:14576   */\n      0x00\n        /* \"#utility.yul\":14568:14656   */\n      mstore\n        /* \"#utility.yul\":14675:14679   */\n      0x32\n        /* \"#utility.yul\":14672:14673   */\n      0x04\n        /* \"#utility.yul\":14665:14680   */\n      mstore\n        /* \"#utility.yul\":14699:14703   */\n      0x24\n        /* \"#utility.yul\":14696:14697   */\n      0x00\n        /* \"#utility.yul\":14689:14704   */\n      revert\n        /* \"#utility.yul\":14716:14896   */\n    tag_290:\n        /* \"#utility.yul\":14764:14841   */\n      0x4e487b7100000000000000000000000000000000000000000000000000000000\n        /* \"#utility.yul\":14761:14762   */\n      0x00\n        /* \"#utility.yul\":14754:14842   */\n      mstore\n        /* \"#utility.yul\":14861:14865   */\n      0x11\n        /* \"#utility.yul\":14858:14859   */\n      0x04\n        /* \"#utility.yul\":14851:14866   */\n      mstore\n        /* \"#utility.yul\":14885:14889   */\n      0x24\n        /* \"#utility.yul\":14882:14883   */\n      0x00\n        /* \"#utility.yul\":14875:14890   */\n      revert\n        /* \"#utility.yul\":14902:15069   */\n    tag_149:\n        /* \"#utility.yul\":14939:14942   */\n      0x00\n        /* \"#utility.yul\":14962:14984   */\n      tag_467\n        /* \"#utility.yul\":14978:14983   */\n      dup3\n        /* \"#utility.yul\":14962:14984   */\n      tag_264\n      jump\t// in\n    tag_467:\n        /* \"#utility.yul\":14953:14984   */\n      swap2\n      pop\n        /* \"#utility.yul\":15006:15010   */\n      0xff\n        /* \"#utility.yul\":14999:15004   */\n      dup3\n        /* \"#utility.yul\":14996:15011   */\n      sub\n        /* \"#utility.yul\":14993:15034   */\n      tag_468\n      jumpi\n        /* \"#utility.yul\":15014:15032   */\n      tag_469\n      tag_290\n      jump\t// in\n    tag_469:\n        /* \"#utility.yul\":14993:15034   */\n    tag_468:\n        /* \"#utility.yul\":15061:15062   */\n      0x01\n        /* \"#utility.yul\":15054:15059   */\n      dup3\n        /* \"#utility.yul\":15050:15063   */\n      add\n        /* \"#utility.yul\":15043:15063   */\n      swap1\n      pop\n        /* \"#utility.yul\":14902:15069   */\n      swap2\n      swap1\n      pop\n      jump\t// out\n        /* \"#utility.yul\":15075:15249   */\n    tag_291:\n        /* \"#utility.yul\":15215:15241   */\n      0x43616c6c6572206973206e6f7420612069737375657220320000000000000000\n        /* \"#utility.yul\":15211:15212   */\n      0x00\n        /* \"#utility.yul\":15203:15209   */\n      dup3\n        /* \"#utility.yul\":15199:15213   */\n      add\n        /* \"#utility.yul\":15192:15242   */\n      mstore\n        /* \"#utility.yul\":15075:15249   */\n      pop\n      jump\t// out\n        /* \"#utility.yul\":15255:15621   */\n    tag_292:\n        /* \"#utility.yul\":15397:15400   */\n      0x00\n        /* \"#utility.yul\":15418:15485   */\n      tag_472\n        /* \"#utility.yul\":15482:15484   */\n      0x18\n        /* \"#utility.yul\":15477:15480   */\n      dup4\n        /* \"#utility.yul\":15418:15485   */\n      tag_287\n      jump\t// in\n    tag_472:\n        /* \"#utility.yul\":15411:15485   */\n      swap2\n      pop\n        /* \"#utility.yul\":15494:15587   */\n      tag_473\n        /* \"#utility.yul\":15583:15586   */\n      dup3\n        /* \"#utility.yul\":15494:15587   */\n      tag_291\n      jump\t// in\n    tag_473:\n        /* \"#utility.yul\":15612:15614   */\n      0x20\n        /* \"#utility.yul\":15607:15610   */\n      dup3\n        /* \"#utility.yul\":15603:15615   */\n      add\n        /* \"#utility.yul\":15596:15615   */\n      swap1\n      pop\n        /* \"#utility.yul\":15255:15621   */\n      swap2\n      swap1\n      pop\n      jump\t// out\n        /* \"#utility.yul\":15627:16046   */\n    tag_154:\n        /* \"#utility.yul\":15793:15797   */\n      0x00\n        /* \"#utility.yul\":15831:15833   */\n      0x20\n        /* \"#utility.yul\":15820:15829   */\n      dup3\n        /* \"#utility.yul\":15816:15834   */\n      add\n        /* \"#utility.yul\":15808:15834   */\n      swap1\n      pop\n        /* \"#utility.yul\":15880:15889   */\n      dup2\n        /* \"#utility.yul\":15874:15878   */\n      dup2\n        /* \"#utility.yul\":15870:15890   */\n      sub\n        /* \"#utility.yul\":15866:15867   */\n      0x00\n        /* \"#utility.yul\":15855:15864   */\n      dup4\n        /* \"#utility.yul\":15851:15868   */\n      add\n        /* \"#utility.yul\":15844:15891   */\n      mstore\n        /* \"#utility.yul\":15908:16039   */\n      tag_475\n        /* \"#utility.yul\":16034:16038   */\n      dup2\n        /* \"#utility.yul\":15908:16039   */\n      tag_292\n      jump\t// in\n    tag_475:\n        /* \"#utility.yul\":15900:16039   */\n      swap1\n      pop\n        /* \"#utility.yul\":15627:16046   */\n      swap2\n      swap1\n      pop\n      jump\t// out\n        /* \"#utility.yul\":16052:16227   */\n    tag_293:\n        /* \"#utility.yul\":16192:16219   */\n      0x43726564656e7469616c20616c72656164792065786973747300000000000000\n        /* \"#utility.yul\":16188:16189   */\n      0x00\n        /* \"#utility.yul\":16180:16186   */\n      dup3\n        /* \"#utility.yul\":16176:16190   */\n      add\n        /* \"#utility.yul\":16169:16220   */\n      mstore\n        /* \"#utility.yul\":16052:16227   */\n      pop\n      jump\t// out\n        /* \"#utility.yul\":16233:16599   */\n    tag_294:\n        /* \"#utility.yul\":16375:16378   */\n      0x00\n        /* \"#utility.yul\":16396:16463   */\n      tag_478\n        /* \"#utility.yul\":16460:16462   */\n      0x19\n        /* \"#utility.yul\":16455:16458   */\n      dup4\n        /* \"#utility.yul\":16396:16463   */\n      tag_287\n      jump\t// in\n    tag_478:\n        /* \"#utility.yul\":16389:16463   */\n      swap2\n      pop\n        /* \"#utility.yul\":16472:16565   */\n      tag_479\n        /* \"#utility.yul\":16561:16564   */\n      dup3\n        /* \"#utility.yul\":16472:16565   */\n      tag_293\n      jump\t// in\n    tag_479:\n        /* \"#utility.yul\":16590:16592   */\n      0x20\n        /* \"#utility.yul\":16585:16588   */\n      dup3\n        /* \"#utility.yul\":16581:16593   */\n      add\n        /* \"#utility.yul\":16574:16593   */\n      swap1\n      pop\n        /* \"#utility.yul\":16233:16599   */\n      swap2\n      swap1\n      pop\n      jump\t// out\n        /* \"#utility.yul\":16605:17024   */\n    tag_158:\n        /* \"#utility.yul\":16771:16775   */\n      0x00\n        /* \"#utility.yul\":16809:16811   */\n      0x20\n        /* \"#utility.yul\":16798:16807   */\n      dup3\n        /* \"#utility.yul\":16794:16812   */\n      add\n        /* \"#utility.yul\":16786:16812   */\n      swap1\n      pop\n        /* \"#utility.yul\":16858:16867   */\n      dup2\n        /* \"#utility.yul\":16852:16856   */\n      dup2\n        /* \"#utility.yul\":16848:16868   */\n      sub\n        /* \"#utility.yul\":16844:16845   */\n      0x00\n        /* \"#utility.yul\":16833:16842   */\n      dup4\n        /* \"#utility.yul\":16829:16846   */\n      add\n        /* \"#utility.yul\":16822:16869   */\n      mstore\n        /* \"#utility.yul\":16886:17017   */\n      tag_481\n        /* \"#utility.yul\":17012:17016   */\n      dup2\n        /* \"#utility.yul\":16886:17017   */\n      tag_294\n      jump\t// in\n    tag_481:\n        /* \"#utility.yul\":16878:17017   */\n      swap1\n      pop\n        /* \"#utility.yul\":16605:17024   */\n      swap2\n      swap1\n      pop\n      jump\t// out\n        /* \"#utility.yul\":17030:17252   */\n    tag_295:\n        /* \"#utility.yul\":17170:17204   */\n      0x496d706f7369626c6520746f20636f6d706c65746520746865207369676e6174\n        /* \"#utility.yul\":17166:17167   */\n      0x00\n        /* \"#utility.yul\":17158:17164   */\n      dup3\n        /* \"#utility.yul\":17154:17168   */\n      add\n        /* \"#utility.yul\":17147:17205   */\n      mstore\n        /* \"#utility.yul\":17239:17244   */\n      0x7572650000000000000000000000000000000000000000000000000000000000\n        /* \"#utility.yul\":17234:17236   */\n      0x20\n        /* \"#utility.yul\":17226:17232   */\n      dup3\n        /* \"#utility.yul\":17222:17237   */\n      add\n        /* \"#utility.yul\":17215:17245   */\n      mstore\n        /* \"#utility.yul\":17030:17252   */\n      pop\n      jump\t// out\n        /* \"#utility.yul\":17258:17624   */\n    tag_296:\n        /* \"#utility.yul\":17400:17403   */\n      0x00\n        /* \"#utility.yul\":17421:17488   */\n      tag_484\n        /* \"#utility.yul\":17485:17487   */\n      0x23\n        /* \"#utility.yul\":17480:17483   */\n      dup4\n        /* \"#utility.yul\":17421:17488   */\n      tag_287\n      jump\t// in\n    tag_484:\n        /* \"#utility.yul\":17414:17488   */\n      swap2\n      pop\n        /* \"#utility.yul\":17497:17590   */\n      tag_485\n        /* \"#utility.yul\":17586:17589   */\n      dup3\n        /* \"#utility.yul\":17497:17590   */\n      tag_295\n      jump\t// in\n    tag_485:\n        /* \"#utility.yul\":17615:17617   */\n      0x40\n        /* \"#utility.yul\":17610:17613   */\n      dup3\n        /* \"#utility.yul\":17606:17618   */\n      add\n        /* \"#utility.yul\":17599:17618   */\n      swap1\n      pop\n        /* \"#utility.yul\":17258:17624   */\n      swap2\n      swap1\n      pop\n      jump\t// out\n        /* \"#utility.yul\":17630:18049   */\n    tag_164:\n        /* \"#utility.yul\":17796:17800   */\n      0x00\n        /* \"#utility.yul\":17834:17836   */\n      0x20\n        /* \"#utility.yul\":17823:17832   */\n      dup3\n        /* \"#utility.yul\":17819:17837   */\n      add\n        /* \"#utility.yul\":17811:17837   */\n      swap1\n      pop\n        /* \"#utility.yul\":17883:17892   */\n      dup2\n        /* \"#utility.yul\":17877:17881   */\n      dup2\n        /* \"#utility.yul\":17873:17893   */\n      sub\n        /* \"#utility.yul\":17869:17870   */\n      0x00\n        /* \"#utility.yul\":17858:17867   */\n      dup4\n        /* \"#utility.yul\":17854:17871   */\n      add\n        /* \"#utility.yul\":17847:17894   */\n      mstore\n        /* \"#utility.yul\":17911:18042   */\n      tag_487\n        /* \"#utility.yul\":18037:18041   */\n      dup2\n        /* \"#utility.yul\":17911:18042   */\n      tag_296\n      jump\t// in\n    tag_487:\n        /* \"#utility.yul\":17903:18042   */\n      swap1\n      pop\n        /* \"#utility.yul\":17630:18049   */\n      swap2\n      swap1\n      pop\n      jump\t// out\n        /* \"#utility.yul\":18055:18497   */\n    tag_166:\n        /* \"#utility.yul\":18204:18208   */\n      0x00\n        /* \"#utility.yul\":18242:18244   */\n      0x60\n        /* \"#utility.yul\":18231:18240   */\n      dup3\n        /* \"#utility.yul\":18227:18245   */\n      add\n        /* \"#utility.yul\":18219:18245   */\n      swap1\n      pop\n        /* \"#utility.yul\":18255:18326   */\n      tag_489\n        /* \"#utility.yul\":18323:18324   */\n      0x00\n        /* \"#utility.yul\":18312:18321   */\n      dup4\n        /* \"#utility.yul\":18308:18325   */\n      add\n        /* \"#utility.yul\":18299:18305   */\n      dup7\n        /* \"#utility.yul\":18255:18326   */\n      tag_285\n      jump\t// in\n    tag_489:\n        /* \"#utility.yul\":18336:18408   */\n      tag_490\n        /* \"#utility.yul\":18404:18406   */\n      0x20\n        /* \"#utility.yul\":18393:18402   */\n      dup4\n        /* \"#utility.yul\":18389:18407   */\n      add\n        /* \"#utility.yul\":18380:18386   */\n      dup6\n        /* \"#utility.yul\":18336:18408   */\n      tag_285\n      jump\t// in\n    tag_490:\n        /* \"#utility.yul\":18418:18490   */\n      tag_491\n        /* \"#utility.yul\":18486:18488   */\n      0x40\n        /* \"#utility.yul\":18475:18484   */\n      dup4\n        /* \"#utility.yul\":18471:18489   */\n      add\n        /* \"#utility.yul\":18462:18468   */\n      dup5\n        /* \"#utility.yul\":18418:18490   */\n      tag_286\n      jump\t// in\n    tag_491:\n        /* \"#utility.yul\":18055:18497   */\n      swap5\n      swap4\n      pop\n      pop\n      pop\n      pop\n      jump\t// out\n        /* \"#utility.yul\":18503:19048   */\n    tag_170:\n        /* \"#utility.yul\":18676:18680   */\n      0x00\n        /* \"#utility.yul\":18714:18717   */\n      0x80\n        /* \"#utility.yul\":18703:18712   */\n      dup3\n        /* \"#utility.yul\":18699:18718   */\n      add\n        /* \"#utility.yul\":18691:18718   */\n      swap1\n      pop\n        /* \"#utility.yul\":18728:18799   */\n      tag_493\n        /* \"#utility.yul\":18796:18797   */\n      0x00\n        /* \"#utility.yul\":18785:18794   */\n      dup4\n        /* \"#utility.yul\":18781:18798   */\n      add\n        /* \"#utility.yul\":18772:18778   */\n      dup8\n        /* \"#utility.yul\":18728:18799   */\n      tag_266\n      jump\t// in\n    tag_493:\n        /* \"#utility.yul\":18809:18877   */\n      tag_494\n        /* \"#utility.yul\":18873:18875   */\n      0x20\n        /* \"#utility.yul\":18862:18871   */\n      dup4\n        /* \"#utility.yul\":18858:18876   */\n      add\n        /* \"#utility.yul\":18849:18855   */\n      dup7\n        /* \"#utility.yul\":18809:18877   */\n      tag_265\n      jump\t// in\n    tag_494:\n        /* \"#utility.yul\":18887:18959   */\n      tag_495\n        /* \"#utility.yul\":18955:18957   */\n      0x40\n        /* \"#utility.yul\":18944:18953   */\n      dup4\n        /* \"#utility.yul\":18940:18958   */\n      add\n        /* \"#utility.yul\":18931:18937   */\n      dup6\n        /* \"#utility.yul\":18887:18959   */\n      tag_266\n      jump\t// in\n    tag_495:\n        /* \"#utility.yul\":18969:19041   */\n      tag_496\n        /* \"#utility.yul\":19037:19039   */\n      0x60\n        /* \"#utility.yul\":19026:19035   */\n      dup4\n        /* \"#utility.yul\":19022:19040   */\n      add\n        /* \"#utility.yul\":19013:19019   */\n      dup5\n        /* \"#utility.yul\":18969:19041   */\n      tag_266\n      jump\t// in\n    tag_496:\n        /* \"#utility.yul\":18503:19048   */\n      swap6\n      swap5\n      pop\n      pop\n      pop\n      pop\n      pop\n      jump\t// out\n        /* \"#utility.yul\":19054:19233   */\n    tag_297:\n        /* \"#utility.yul\":19194:19225   */\n      0x63726564656e7469616c206861736820646f65736e2774206578697374000000\n        /* \"#utility.yul\":19190:19191   */\n      0x00\n        /* \"#utility.yul\":19182:19188   */\n      dup3\n        /* \"#utility.yul\":19178:19192   */\n      add\n        /* \"#utility.yul\":19171:19226   */\n      mstore\n        /* \"#utility.yul\":19054:19233   */\n      pop\n      jump\t// out\n        /* \"#utility.yul\":19239:19605   */\n    tag_298:\n        /* \"#utility.yul\":19381:19384   */\n      0x00\n        /* \"#utility.yul\":19402:19469   */\n      tag_499\n        /* \"#utility.yul\":19466:19468   */\n      0x1d\n        /* \"#utility.yul\":19461:19464   */\n      dup4\n        /* \"#utility.yul\":19402:19469   */\n      tag_287\n      jump\t// in\n    tag_499:\n        /* \"#utility.yul\":19395:19469   */\n      swap2\n      pop\n        /* \"#utility.yul\":19478:19571   */\n      tag_500\n        /* \"#utility.yul\":19567:19570   */\n      dup3\n        /* \"#utility.yul\":19478:19571   */\n      tag_297\n      jump\t// in\n    tag_500:\n        /* \"#utility.yul\":19596:19598   */\n      0x20\n        /* \"#utility.yul\":19591:19594   */\n      dup3\n        /* \"#utility.yul\":19587:19599   */\n      add\n        /* \"#utility.yul\":19580:19599   */\n      swap1\n      pop\n        /* \"#utility.yul\":19239:19605   */\n      swap2\n      swap1\n      pop\n      jump\t// out\n        /* \"#utility.yul\":19611:20030   */\n    tag_181:\n        /* \"#utility.yul\":19777:19781   */\n      0x00\n        /* \"#utility.yul\":19815:19817   */\n      0x20\n        /* \"#utility.yul\":19804:19813   */\n      dup3\n        /* \"#utility.yul\":19800:19818   */\n      add\n        /* \"#utility.yul\":19792:19818   */\n      swap1\n      pop\n        /* \"#utility.yul\":19864:19873   */\n      dup2\n        /* \"#utility.yul\":19858:19862   */\n      dup2\n        /* \"#utility.yul\":19854:19874   */\n      sub\n        /* \"#utility.yul\":19850:19851   */\n      0x00\n        /* \"#utility.yul\":19839:19848   */\n      dup4\n        /* \"#utility.yul\":19835:19852   */\n      add\n        /* \"#utility.yul\":19828:19875   */\n      mstore\n        /* \"#utility.yul\":19892:20023   */\n      tag_502\n        /* \"#utility.yul\":20018:20022   */\n      dup2\n        /* \"#utility.yul\":19892:20023   */\n      tag_298\n      jump\t// in\n    tag_502:\n        /* \"#utility.yul\":19884:20023   */\n      swap1\n      pop\n        /* \"#utility.yul\":19611:20030   */\n      swap2\n      swap1\n      pop\n      jump\t// out\n        /* \"#utility.yul\":20036:20215   */\n    tag_299:\n        /* \"#utility.yul\":20176:20207   */\n      0x43726564656e7469616c20697320616c7265616479207265766f6b6564000000\n        /* \"#utility.yul\":20172:20173   */\n      0x00\n        /* \"#utility.yul\":20164:20170   */\n      dup3\n        /* \"#utility.yul\":20160:20174   */\n      add\n        /* \"#utility.yul\":20153:20208   */\n      mstore\n        /* \"#utility.yul\":20036:20215   */\n      pop\n      jump\t// out\n        /* \"#utility.yul\":20221:20587   */\n    tag_300:\n        /* \"#utility.yul\":20363:20366   */\n      0x00\n        /* \"#utility.yul\":20384:20451   */\n      tag_505\n        /* \"#utility.yul\":20448:20450   */\n      0x1d\n        /* \"#utility.yul\":20443:20446   */\n      dup4\n        /* \"#utility.yul\":20384:20451   */\n      tag_287\n      jump\t// in\n    tag_505:\n        /* \"#utility.yul\":20377:20451   */\n      swap2\n      pop\n        /* \"#utility.yul\":20460:20553   */\n      tag_506\n        /* \"#utility.yul\":20549:20552   */\n      dup3\n        /* \"#utility.yul\":20460:20553   */\n      tag_299\n      jump\t// in\n    tag_506:\n        /* \"#utility.yul\":20578:20580   */\n      0x20\n        /* \"#utility.yul\":20573:20576   */\n      dup3\n        /* \"#utility.yul\":20569:20581   */\n      add\n        /* \"#utility.yul\":20562:20581   */\n      swap1\n      pop\n        /* \"#utility.yul\":20221:20587   */\n      swap2\n      swap1\n      pop\n      jump\t// out\n        /* \"#utility.yul\":20593:21012   */\n    tag_184:\n        /* \"#utility.yul\":20759:20763   */\n      0x00\n        /* \"#utility.yul\":20797:20799   */\n      0x20\n        /* \"#utility.yul\":20786:20795   */\n      dup3\n        /* \"#utility.yul\":20782:20800   */\n      add\n        /* \"#utility.yul\":20774:20800   */\n      swap1\n      pop\n        /* \"#utility.yul\":20846:20855   */\n      dup2\n        /* \"#utility.yul\":20840:20844   */\n      dup2\n        /* \"#utility.yul\":20836:20856   */\n      sub\n        /* \"#utility.yul\":20832:20833   */\n      0x00\n        /* \"#utility.yul\":20821:20830   */\n      dup4\n        /* \"#utility.yul\":20817:20834   */\n      add\n        /* \"#utility.yul\":20810:20857   */\n      mstore\n        /* \"#utility.yul\":20874:21005   */\n      tag_508\n        /* \"#utility.yul\":21000:21004   */\n      dup2\n        /* \"#utility.yul\":20874:21005   */\n      tag_300\n      jump\t// in\n    tag_508:\n        /* \"#utility.yul\":20866:21005   */\n      swap1\n      pop\n        /* \"#utility.yul\":20593:21012   */\n      swap2\n      swap1\n      pop\n      jump\t// out\n        /* \"#utility.yul\":21018:21350   */\n    tag_187:\n        /* \"#utility.yul\":21139:21143   */\n      0x00\n        /* \"#utility.yul\":21177:21179   */\n      0x40\n        /* \"#utility.yul\":21166:21175   */\n      dup3\n        /* \"#utility.yul\":21162:21180   */\n      add\n        /* \"#utility.yul\":21154:21180   */\n      swap1\n      pop\n        /* \"#utility.yul\":21190:21261   */\n      tag_510\n        /* \"#utility.yul\":21258:21259   */\n      0x00\n        /* \"#utility.yul\":21247:21256   */\n      dup4\n        /* \"#utility.yul\":21243:21260   */\n      add\n        /* \"#utility.yul\":21234:21240   */\n      dup6\n        /* \"#utility.yul\":21190:21261   */\n      tag_285\n      jump\t// in\n    tag_510:\n        /* \"#utility.yul\":21271:21343   */\n      tag_511\n        /* \"#utility.yul\":21339:21341   */\n      0x20\n        /* \"#utility.yul\":21328:21337   */\n      dup4\n        /* \"#utility.yul\":21324:21342   */\n      add\n        /* \"#utility.yul\":21315:21321   */\n      dup5\n        /* \"#utility.yul\":21271:21343   */\n      tag_286\n      jump\t// in\n    tag_511:\n        /* \"#utility.yul\":21018:21350   */\n      swap4\n      swap3\n      pop\n      pop\n      pop\n      jump\t// out\n        /* \"#utility.yul\":21356:21464   */\n    tag_301:\n        /* \"#utility.yul\":21433:21457   */\n      tag_513\n        /* \"#utility.yul\":21451:21456   */\n      dup2\n        /* \"#utility.yul\":21433:21457   */\n      tag_257\n      jump\t// in\n    tag_513:\n        /* \"#utility.yul\":21428:21431   */\n      dup3\n        /* \"#utility.yul\":21421:21458   */\n      mstore\n        /* \"#utility.yul\":21356:21464   */\n      pop\n      pop\n      jump\t// out\n        /* \"#utility.yul\":21470:21572   */\n    tag_302:\n        /* \"#utility.yul\":21543:21565   */\n      tag_515\n        /* \"#utility.yul\":21559:21564   */\n      dup2\n        /* \"#utility.yul\":21543:21565   */\n      tag_264\n      jump\t// in\n    tag_515:\n        /* \"#utility.yul\":21538:21541   */\n      dup3\n        /* \"#utility.yul\":21531:21566   */\n      mstore\n        /* \"#utility.yul\":21470:21572   */\n      pop\n      pop\n      jump\t// out\n        /* \"#utility.yul\":21662:22334   */\n    tag_303:\n        /* \"#utility.yul\":21813:21817   */\n      0x60\n        /* \"#utility.yul\":21808:21811   */\n      dup3\n        /* \"#utility.yul\":21804:21818   */\n      add\n        /* \"#utility.yul\":21897:21901   */\n      0x00\n        /* \"#utility.yul\":21890:21895   */\n      dup3\n        /* \"#utility.yul\":21886:21902   */\n      add\n        /* \"#utility.yul\":21880:21903   */\n      mload\n        /* \"#utility.yul\":21916:21979   */\n      tag_517\n        /* \"#utility.yul\":21973:21977   */\n      0x00\n        /* \"#utility.yul\":21968:21971   */\n      dup6\n        /* \"#utility.yul\":21964:21978   */\n      add\n        /* \"#utility.yul\":21950:21962   */\n      dup3\n        /* \"#utility.yul\":21916:21979   */\n      tag_301\n      jump\t// in\n    tag_517:\n        /* \"#utility.yul\":21828:21989   */\n      pop\n        /* \"#utility.yul\":22068:22072   */\n      0x20\n        /* \"#utility.yul\":22061:22066   */\n      dup3\n        /* \"#utility.yul\":22057:22073   */\n      add\n        /* \"#utility.yul\":22051:22074   */\n      mload\n        /* \"#utility.yul\":22087:22150   */\n      tag_518\n        /* \"#utility.yul\":22144:22148   */\n      0x20\n        /* \"#utility.yul\":22139:22142   */\n      dup6\n        /* \"#utility.yul\":22135:22149   */\n      add\n        /* \"#utility.yul\":22121:22133   */\n      dup3\n        /* \"#utility.yul\":22087:22150   */\n      tag_301\n      jump\t// in\n    tag_518:\n        /* \"#utility.yul\":21999:22160   */\n      pop\n        /* \"#utility.yul\":22239:22243   */\n      0x40\n        /* \"#utility.yul\":22232:22237   */\n      dup3\n        /* \"#utility.yul\":22228:22244   */\n      add\n        /* \"#utility.yul\":22222:22245   */\n      mload\n        /* \"#utility.yul\":22258:22317   */\n      tag_519\n        /* \"#utility.yul\":22311:22315   */\n      0x40\n        /* \"#utility.yul\":22306:22309   */\n      dup6\n        /* \"#utility.yul\":22302:22316   */\n      add\n        /* \"#utility.yul\":22288:22300   */\n      dup3\n        /* \"#utility.yul\":22258:22317   */\n      tag_302\n      jump\t// in\n    tag_519:\n        /* \"#utility.yul\":22170:22327   */\n      pop\n        /* \"#utility.yul\":21782:22334   */\n      pop\n        /* \"#utility.yul\":21662:22334   */\n      pop\n      pop\n      jump\t// out\n        /* \"#utility.yul\":22340:22879   */\n    tag_236:\n        /* \"#utility.yul\":22537:22541   */\n      0x00\n        /* \"#utility.yul\":22575:22578   */\n      0xa0\n        /* \"#utility.yul\":22564:22573   */\n      dup3\n        /* \"#utility.yul\":22560:22579   */\n      add\n        /* \"#utility.yul\":22552:22579   */\n      swap1\n      pop\n        /* \"#utility.yul\":22589:22660   */\n      tag_521\n        /* \"#utility.yul\":22657:22658   */\n      0x00\n        /* \"#utility.yul\":22646:22655   */\n      dup4\n        /* \"#utility.yul\":22642:22659   */\n      add\n        /* \"#utility.yul\":22633:22639   */\n      dup7\n        /* \"#utility.yul\":22589:22660   */\n      tag_285\n      jump\t// in\n    tag_521:\n        /* \"#utility.yul\":22670:22736   */\n      tag_522\n        /* \"#utility.yul\":22732:22734   */\n      0x20\n        /* \"#utility.yul\":22721:22730   */\n      dup4\n        /* \"#utility.yul\":22717:22735   */\n      add\n        /* \"#utility.yul\":22708:22714   */\n      dup6\n        /* \"#utility.yul\":22670:22736   */\n      tag_256\n      jump\t// in\n    tag_522:\n        /* \"#utility.yul\":22746:22872   */\n      tag_523\n        /* \"#utility.yul\":22868:22870   */\n      0x40\n        /* \"#utility.yul\":22857:22866   */\n      dup4\n        /* \"#utility.yul\":22853:22871   */\n      add\n        /* \"#utility.yul\":22844:22850   */\n      dup5\n        /* \"#utility.yul\":22746:22872   */\n      tag_303\n      jump\t// in\n    tag_523:\n        /* \"#utility.yul\":22340:22879   */\n      swap5\n      swap4\n      pop\n      pop\n      pop\n      pop\n      jump\t// out\n        /* \"#utility.yul\":22885:23217   */\n    tag_241:\n        /* \"#utility.yul\":23006:23010   */\n      0x00\n        /* \"#utility.yul\":23044:23046   */\n      0x40\n        /* \"#utility.yul\":23033:23042   */\n      dup3\n        /* \"#utility.yul\":23029:23047   */\n      add\n        /* \"#utility.yul\":23021:23047   */\n      swap1\n      pop\n        /* \"#utility.yul\":23057:23128   */\n      tag_525\n        /* \"#utility.yul\":23125:23126   */\n      0x00\n        /* \"#utility.yul\":23114:23123   */\n      dup4\n        /* \"#utility.yul\":23110:23127   */\n      add\n        /* \"#utility.yul\":23101:23107   */\n      dup6\n        /* \"#utility.yul\":23057:23128   */\n      tag_285\n      jump\t// in\n    tag_525:\n        /* \"#utility.yul\":23138:23210   */\n      tag_526\n        /* \"#utility.yul\":23206:23208   */\n      0x20\n        /* \"#utility.yul\":23195:23204   */\n      dup4\n        /* \"#utility.yul\":23191:23209   */\n      add\n        /* \"#utility.yul\":23182:23188   */\n      dup5\n        /* \"#utility.yul\":23138:23210   */\n      tag_266\n      jump\t// in\n    tag_526:\n        /* \"#utility.yul\":22885:23217   */\n      swap4\n      swap3\n      pop\n      pop\n      pop\n      jump\t// out\n\n    auxdata: 0xa264697066735822122067f8402193531fca1060f5d069fa16f4ea254a0a9b387eb6632d1ce734c76ea564736f6c63430008150033\n}\n",
				"bytecode": {
					"linkReferences": {},
					"object": "608060405234801562000010575f80fd5b50620000255f801b336200002c60201b60201c565b5062000191565b5f6200003f83836200012760201b60201c565b6200011d5760015f808581526020019081526020015f205f015f8473ffffffffffffffffffffffffffffffffffffffff1673ffffffffffffffffffffffffffffffffffffffff1681526020019081526020015f205f6101000a81548160ff021916908315150217905550620000b96200018a60201b60201c565b73ffffffffffffffffffffffffffffffffffffffff168273ffffffffffffffffffffffffffffffffffffffff16847f2f8788117e7eff1d82e926ec794901d17c78024a50270940304540a733656f0d60405160405180910390a46001905062000121565b5f90505b92915050565b5f805f8481526020019081526020015f205f015f8373ffffffffffffffffffffffffffffffffffffffff1673ffffffffffffffffffffffffffffffffffffffff1681526020019081526020015f205f9054906101000a900460ff16905092915050565b5f33905090565b61298b806200019f5f395ff3fe608060405234801561000f575f80fd5b5060043610610114575f3560e01c806387cf356e116100a0578063a217fddf1161006f578063a217fddf1461034e578063ca6eec781461036c578063d547741f1461039c578063d6d76ed5146103b8578063f078e5db146103e857610114565b806387cf356e1461028e5780639052944e146102be57806391d14854146102ee578063957839d91461031e57610114565b806336568abe116100e757806336568abe146101c4578063448684ac146101e0578063701ee46314610210578063751307471461024057806382aefa241461027057610114565b806301ffc9a71461011857806306b15df414610148578063248a9ca3146101785780632f2ff15d146101a8575b5f80fd5b610132600480360381019061012d9190611e3f565b61041c565b60405161013f9190611e84565b60405180910390f35b610162600480360381019061015d9190611f2a565b610495565b60405161016f9190611f83565b60405180910390f35b610192600480360381019061018d9190611f9c565b6106a2565b60405161019f9190611fd6565b60405180910390f35b6101c260048036038101906101bd9190611f2a565b6106be565b005b6101de60048036038101906101d99190611f2a565b6106e0565b005b6101fa60048036038101906101f59190612050565b61075b565b6040516102079190611e84565b60405180910390f35b61022a600480360381019061022591906121f9565b610772565b6040516102379190611e84565b60405180910390f35b61025a60048036038101906102559190612298565b610a85565b6040516102679190611e84565b60405180910390f35b610278610e8e565b6040516102859190611fd6565b60405180910390f35b6102a860048036038101906102a39190612342565b610eb2565b6040516102b59190611e84565b60405180910390f35b6102d860048036038101906102d391906123aa565b610eea565b6040516102e5919061241d565b60405180910390f35b61030860048036038101906103039190611f2a565b610f41565b6040516103159190611e84565b60405180910390f35b61033860048036038101906103339190611f2a565b610fa4565b6040516103459190611e84565b60405180910390f35b61035661119e565b6040516103639190611fd6565b60405180910390f35b61038660048036038101906103819190611f9c565b6111a4565b6040516103939190611e84565b60405180910390f35b6103b660048036038101906103b19190611f2a565b6114a2565b005b6103d260048036038101906103cd9190612436565b6114c4565b6040516103df9190611e84565b60405180910390f35b61040260048036038101906103fd9190611f2a565b61168f565b604051610413959493929190612483565b60405180910390f35b5f7f7965db0b000000000000000000000000000000000000000000000000000000007bffffffffffffffffffffffffffffffffffffffffffffffffffffffff1916827bffffffffffffffffffffffffffffffffffffffffffffffffffffffff1916148061048e575061048d82611716565b5b9050919050565b5f8060015f8581526020019081526020015f205f8473ffffffffffffffffffffffffffffffffffffffff1673ffffffffffffffffffffffffffffffffffffffff1681526020019081526020015f206040518060c00160405290815f82015f9054906101000a900473ffffffffffffffffffffffffffffffffffffffff1673ffffffffffffffffffffffffffffffffffffffff1673ffffffffffffffffffffffffffffffffffffffff168152602001600182015f9054906101000a900473ffffffffffffffffffffffffffffffffffffffff1673ffffffffffffffffffffffffffffffffffffffff1673ffffffffffffffffffffffffffffffffffffffff168152602001600282015481526020016003820154815260200160048201805480602002602001604051908101604052809291908181526020015f905b8282101561062e578382905f5260205f2090600302016040518060600160405290815f820154815260200160018201548152602001600282015f9054906101000a900460ff1660ff1660ff1681525050815260200190600101906105cf565b505050508152602001600582015f9054906101000a900460ff16151515158152505090505f73ffffffffffffffffffffffffffffffffffffffff16816020015173ffffffffffffffffffffffffffffffffffffffff16146106975780608001515191505061069c565b5f9150505b92915050565b5f805f8381526020019081526020015f20600101549050919050565b6106c7826106a2565b6106d08161177f565b6106da8383611793565b50505050565b6106e861187c565b73ffffffffffffffffffffffffffffffffffffffff168173ffffffffffffffffffffffffffffffffffffffff161461074c576040517f6697b23200000000000000000000000000000000000000000000000000000000815260040160405180910390fd5b6107568282611883565b505050565b5f6107688585858561196c565b9050949350505050565b5f8060015f8681526020019081526020015f205f8573ffffffffffffffffffffffffffffffffffffffff1673ffffffffffffffffffffffffffffffffffffffff1681526020019081526020015f206040518060c00160405290815f82015f9054906101000a900473ffffffffffffffffffffffffffffffffffffffff1673ffffffffffffffffffffffffffffffffffffffff1673ffffffffffffffffffffffffffffffffffffffff168152602001600182015f9054906101000a900473ffffffffffffffffffffffffffffffffffffffff1673ffffffffffffffffffffffffffffffffffffffff1673ffffffffffffffffffffffffffffffffffffffff168152602001600282015481526020016003820154815260200160048201805480602002602001604051908101604052809291908181526020015f905b8282101561090b578382905f5260205f2090600302016040518060600160405290815f820154815260200160018201548152602001600282015f9054906101000a900460ff1660ff1660ff1681525050815260200190600101906108ac565b505050508152602001600582015f9054906101000a900460ff16151515158152505090505f73ffffffffffffffffffffffffffffffffffffffff16816020015173ffffffffffffffffffffffffffffffffffffffff16036109a1576040517f08c379a00000000000000000000000000000000000000000000000000000000081526004016109989061252e565b60405180910390fd5b5f805f602086015192506040860151915060608601515f1a90505f60405180606001604052808581526020018481526020018360ff1681525090505f805b8660800151518160ff161080156109f4575081155b15610a7457825f015187608001518260ff1681518110610a1757610a1661254c565b5b60200260200101515f0151148015610a575750826020015187608001518260ff1681518110610a4957610a4861254c565b5b602002602001015160200151145b15610a6157600191505b8080610a6c906125a6565b9150506109df565b819750505050505050509392505050565b5f610ab07f114e74f6ea3bd819998f78687bfcb11b140da08e9b7d222fa9c1f1ba1f2aa12233610f41565b610aef576040517f08c379a0000000000000000000000000000000000000000000000000000000008152600401610ae690612618565b60405180910390fd5b5f60015f8881526020019081526020015f205f8a73ffffffffffffffffffffffffffffffffffffffff1673ffffffffffffffffffffffffffffffffffffffff1681526020019081526020015f2090505f73ffffffffffffffffffffffffffffffffffffffff16816001015f9054906101000a900473ffffffffffffffffffffffffffffffffffffffff1673ffffffffffffffffffffffffffffffffffffffff1614610bcf576040517f08c379a0000000000000000000000000000000000000000000000000000000008152600401610bc690612680565b60405180910390fd5b88815f015f6101000a81548173ffffffffffffffffffffffffffffffffffffffff021916908373ffffffffffffffffffffffffffffffffffffffff16021790555087816001015f6101000a81548173ffffffffffffffffffffffffffffffffffffffff021916908373ffffffffffffffffffffffffffffffffffffffff1602179055508581600201819055508481600301819055506001816005015f6101000a81548160ff0219169083151502179055508060015f8981526020019081526020015f205f8b73ffffffffffffffffffffffffffffffffffffffff1673ffffffffffffffffffffffffffffffffffffffff1681526020019081526020015f205f82015f9054906101000a900473ffffffffffffffffffffffffffffffffffffffff16815f015f6101000a81548173ffffffffffffffffffffffffffffffffffffffff021916908373ffffffffffffffffffffffffffffffffffffffff160217905550600182015f9054906101000a900473ffffffffffffffffffffffffffffffffffffffff16816001015f6101000a81548173ffffffffffffffffffffffffffffffffffffffff021916908373ffffffffffffffffffffffffffffffffffffffff16021790555060028201548160020155600382015481600301556004820181600401908054610dbf929190611d10565b50600582015f9054906101000a900460ff16816005015f6101000a81548160ff0219169083151502179055509050505f610dfb888b878761196c565b905080610e3d576040517f08c379a0000000000000000000000000000000000000000000000000000000008152600401610e349061270e565b60405180910390fd5b877f889569e4303664728fba29a472b24d3032707e6ebbee9a46e070c5c8f2ae4c258b8b8560020154604051610e759392919061272c565b60405180910390a2600192505050979650505050505050565b7f114e74f6ea3bd819998f78687bfcb11b140da08e9b7d222fa9c1f1ba1f2aa12281565b5f8173ffffffffffffffffffffffffffffffffffffffff168373ffffffffffffffffffffffffffffffffffffffff1614905092915050565b5f6001858585856040515f8152602001604052604051610f0d9493929190612761565b6020604051602081039080840390855afa158015610f2d573d5f803e3d5ffd5b505050602060405103519050949350505050565b5f805f8481526020019081526020015f205f015f8373ffffffffffffffffffffffffffffffffffffffff1673ffffffffffffffffffffffffffffffffffffffff1681526020019081526020015f205f9054906101000a900460ff16905092915050565b5f8060015f8581526020019081526020015f205f8473ffffffffffffffffffffffffffffffffffffffff1673ffffffffffffffffffffffffffffffffffffffff1681526020019081526020015f206040518060c00160405290815f82015f9054906101000a900473ffffffffffffffffffffffffffffffffffffffff1673ffffffffffffffffffffffffffffffffffffffff1673ffffffffffffffffffffffffffffffffffffffff168152602001600182015f9054906101000a900473ffffffffffffffffffffffffffffffffffffffff1673ffffffffffffffffffffffffffffffffffffffff1673ffffffffffffffffffffffffffffffffffffffff168152602001600282015481526020016003820154815260200160048201805480602002602001604051908101604052809291908181526020015f905b8282101561113d578382905f5260205f2090600302016040518060600160405290815f820154815260200160018201548152602001600282015f9054906101000a900460ff1660ff1660ff1681525050815260200190600101906110de565b505050508152602001600582015f9054906101000a900460ff16151515158152505090505f73ffffffffffffffffffffffffffffffffffffffff16816020015173ffffffffffffffffffffffffffffffffffffffff16141591505092915050565b5f801b81565b5f8060015f8481526020019081526020015f205f3373ffffffffffffffffffffffffffffffffffffffff1673ffffffffffffffffffffffffffffffffffffffff1681526020019081526020015f2090505f73ffffffffffffffffffffffffffffffffffffffff16816001015f9054906101000a900473ffffffffffffffffffffffffffffffffffffffff1673ffffffffffffffffffffffffffffffffffffffff1603611285576040517f08c379a000000000000000000000000000000000000000000000000000000000815260040161127c906127ee565b60405180910390fd5b806005015f9054906101000a900460ff166112d5576040517f08c379a00000000000000000000000000000000000000000000000000000000081526004016112cc90612856565b60405180910390fd5b5f816005015f6101000a81548160ff0219169083151502179055508060015f8581526020019081526020015f205f3373ffffffffffffffffffffffffffffffffffffffff1673ffffffffffffffffffffffffffffffffffffffff1681526020019081526020015f205f82015f9054906101000a900473ffffffffffffffffffffffffffffffffffffffff16815f015f6101000a81548173ffffffffffffffffffffffffffffffffffffffff021916908373ffffffffffffffffffffffffffffffffffffffff160217905550600182015f9054906101000a900473ffffffffffffffffffffffffffffffffffffffff16816001015f6101000a81548173ffffffffffffffffffffffffffffffffffffffff021916908373ffffffffffffffffffffffffffffffffffffffff1602179055506002820154816002015560038201548160030155600482018160040190805461142f929190611d10565b50600582015f9054906101000a900460ff16816005015f6101000a81548160ff021916908315150217905550905050827f80d4746828447d65eceb938c7f9d85fbeb232fe7819d5209ed452b3940f8904b3342604051611490929190612874565b60405180910390a26001915050919050565b6114ab826106a2565b6114b48161177f565b6114be8383611883565b50505050565b5f8060015f8481526020019081526020015f205f8573ffffffffffffffffffffffffffffffffffffffff1673ffffffffffffffffffffffffffffffffffffffff1681526020019081526020015f206040518060c00160405290815f82015f9054906101000a900473ffffffffffffffffffffffffffffffffffffffff1673ffffffffffffffffffffffffffffffffffffffff1673ffffffffffffffffffffffffffffffffffffffff168152602001600182015f9054906101000a900473ffffffffffffffffffffffffffffffffffffffff1673ffffffffffffffffffffffffffffffffffffffff1673ffffffffffffffffffffffffffffffffffffffff168152602001600282015481526020016003820154815260200160048201805480602002602001604051908101604052809291908181526020015f905b8282101561165d578382905f5260205f2090600302016040518060600160405290815f820154815260200160018201548152602001600282015f9054906101000a900460ff1660ff1660ff1681525050815260200190600101906115fe565b505050508152602001600582015f9054906101000a900460ff16151515158152505090508060a0015191505092915050565b6001602052815f5260405f20602052805f5260405f205f9150915050805f015f9054906101000a900473ffffffffffffffffffffffffffffffffffffffff1690806001015f9054906101000a900473ffffffffffffffffffffffffffffffffffffffff1690806002015490806003015490806005015f9054906101000a900460ff16905085565b5f7f01ffc9a7000000000000000000000000000000000000000000000000000000007bffffffffffffffffffffffffffffffffffffffffffffffffffffffff1916827bffffffffffffffffffffffffffffffffffffffffffffffffffffffff1916149050919050565b6117908161178b61187c565b611cbf565b50565b5f61179e8383610f41565b6118725760015f808581526020019081526020015f205f015f8473ffffffffffffffffffffffffffffffffffffffff1673ffffffffffffffffffffffffffffffffffffffff1681526020019081526020015f205f6101000a81548160ff02191690831515021790555061180f61187c565b73ffffffffffffffffffffffffffffffffffffffff168273ffffffffffffffffffffffffffffffffffffffff16847f2f8788117e7eff1d82e926ec794901d17c78024a50270940304540a733656f0d60405160405180910390a460019050611876565b5f90505b92915050565b5f33905090565b5f61188e8383610f41565b15611962575f805f8581526020019081526020015f205f015f8473ffffffffffffffffffffffffffffffffffffffff1673ffffffffffffffffffffffffffffffffffffffff1681526020019081526020015f205f6101000a81548160ff0219169083151502179055506118ff61187c565b73ffffffffffffffffffffffffffffffffffffffff168273ffffffffffffffffffffffffffffffffffffffff16847ff6391f5c32d9c69d2a47ea670b442974b53935d1edc7fd64eb21e047a839171b60405160405180910390a460019050611966565b5f90505b92915050565b5f6119977f114e74f6ea3bd819998f78687bfcb11b140da08e9b7d222fa9c1f1ba1f2aa12233610f41565b6119d6576040517f08c379a00000000000000000000000000000000000000000000000000000000081526004016119cd90612618565b60405180910390fd5b5f60015f8781526020019081526020015f205f8673ffffffffffffffffffffffffffffffffffffffff1673ffffffffffffffffffffffffffffffffffffffff1681526020019081526020015f2090505f73ffffffffffffffffffffffffffffffffffffffff16816001015f9054906101000a900473ffffffffffffffffffffffffffffffffffffffff1673ffffffffffffffffffffffffffffffffffffffff1603611ab6576040517f08c379a0000000000000000000000000000000000000000000000000000000008152600401611aad9061252e565b60405180910390fd5b5f84848080601f0160208091040260200160405190810160405280939291908181526020018383808284375f81840152601f19601f8201169050808301925050505050505090505f805f602084015192506040840151915060608401515f1a90505f60405180606001604052808581526020018481526020018360ff1681525090505f805b87600401805490508160ff16108015611b52575081155b15611bd857825f0151886004018260ff1681548110611b7457611b7361254c565b5b905f5260205f2090600302015f0154148015611bbb57508260200151886004018260ff1681548110611ba957611ba861254c565b5b905f5260205f20906003020160010154145b15611bc557600191505b8080611bd0906125a6565b915050611b3b565b8115611bee575f98505050505050505050611cb7565b8760040183908060018154018082558091505060019003905f5260205f2090600302015f909190919091505f820151815f0155602082015181600101556040820151816002015f6101000a81548160ff021916908360ff16021790555050507f0ffaced37e4d6f4a46de47c31d21fccaad48817a7da7f346154835a547780ecd885f015f9054906101000a900473ffffffffffffffffffffffffffffffffffffffff168385604051611ca2939291906128f9565b60405180910390a16001985050505050505050505b949350505050565b611cc98282610f41565b611d0c5780826040517fe2517d3f000000000000000000000000000000000000000000000000000000008152600401611d0392919061292e565b60405180910390fd5b5050565b828054828255905f5260205f20906003028101928215611d91575f5260205f209160030282015b82811115611d905782825f820154815f015560018201548160010155600282015f9054906101000a900460ff16816002015f6101000a81548160ff021916908360ff160217905550505091600301919060030190611d37565b5b509050611d9e9190611da2565b5090565b5b80821115611dd5575f8082015f9055600182015f9055600282015f6101000a81549060ff021916905550600301611da3565b5090565b5f604051905090565b5f80fd5b5f80fd5b5f7fffffffff0000000000000000000000000000000000000000000000000000000082169050919050565b611e1e81611dea565b8114611e28575f80fd5b50565b5f81359050611e3981611e15565b92915050565b5f60208284031215611e5457611e53611de2565b5b5f611e6184828501611e2b565b91505092915050565b5f8115159050919050565b611e7e81611e6a565b82525050565b5f602082019050611e975f830184611e75565b92915050565b5f819050919050565b611eaf81611e9d565b8114611eb9575f80fd5b50565b5f81359050611eca81611ea6565b92915050565b5f73ffffffffffffffffffffffffffffffffffffffff82169050919050565b5f611ef982611ed0565b9050919050565b611f0981611eef565b8114611f13575f80fd5b50565b5f81359050611f2481611f00565b92915050565b5f8060408385031215611f4057611f3f611de2565b5b5f611f4d85828601611ebc565b9250506020611f5e85828601611f16565b9150509250929050565b5f60ff82169050919050565b611f7d81611f68565b82525050565b5f602082019050611f965f830184611f74565b92915050565b5f60208284031215611fb157611fb0611de2565b5b5f611fbe84828501611ebc565b91505092915050565b611fd081611e9d565b82525050565b5f602082019050611fe95f830184611fc7565b92915050565b5f80fd5b5f80fd5b5f80fd5b5f8083601f8401126120105761200f611fef565b5b8235905067ffffffffffffffff81111561202d5761202c611ff3565b5b60208301915083600182028301111561204957612048611ff7565b5b9250929050565b5f805f806060858703121561206857612067611de2565b5b5f61207587828801611ebc565b945050602061208687828801611f16565b935050604085013567ffffffffffffffff8111156120a7576120a6611de6565b5b6120b387828801611ffb565b925092505092959194509250565b5f80fd5b5f601f19601f8301169050919050565b7f4e487b71000000000000000000000000000000000000000000000000000000005f52604160045260245ffd5b61210b826120c5565b810181811067ffffffffffffffff8211171561212a576121296120d5565b5b80604052505050565b5f61213c611dd9565b90506121488282612102565b919050565b5f67ffffffffffffffff821115612167576121666120d5565b5b612170826120c5565b9050602081019050919050565b828183375f83830152505050565b5f61219d6121988461214d565b612133565b9050828152602081018484840111156121b9576121b86120c1565b5b6121c484828561217d565b509392505050565b5f82601f8301126121e0576121df611fef565b5b81356121f084826020860161218b565b91505092915050565b5f805f606084860312156122105761220f611de2565b5b5f61221d86828701611ebc565b935050602061222e86828701611f16565b925050604084013567ffffffffffffffff81111561224f5761224e611de6565b5b61225b868287016121cc565b9150509250925092565b5f819050919050565b61227781612265565b8114612281575f80fd5b50565b5f813590506122928161226e565b92915050565b5f805f805f805f60c0888a0312156122b3576122b2611de2565b5b5f6122c08a828b01611f16565b97505060206122d18a828b01611f16565b96505060406122e28a828b01611ebc565b95505060606122f38a828b01612284565b94505060806123048a828b01612284565b93505060a088013567ffffffffffffffff81111561232557612324611de6565b5b6123318a828b01611ffb565b925092505092959891949750929550565b5f806040838503121561235857612357611de2565b5b5f61236585828601611f16565b925050602061237685828601611f16565b9150509250929050565b61238981611f68565b8114612393575f80fd5b50565b5f813590506123a481612380565b92915050565b5f805f80608085870312156123c2576123c1611de2565b5b5f6123cf87828801611ebc565b94505060206123e087828801612396565b93505060406123f187828801611ebc565b925050606061240287828801611ebc565b91505092959194509250565b61241781611eef565b82525050565b5f6020820190506124305f83018461240e565b92915050565b5f806040838503121561244c5761244b611de2565b5b5f61245985828601611f16565b925050602061246a85828601611ebc565b9150509250929050565b61247d81612265565b82525050565b5f60a0820190506124965f83018861240e565b6124a3602083018761240e565b6124b06040830186612474565b6124bd6060830185612474565b6124ca6080830184611e75565b9695505050505050565b5f82825260208201905092915050565b7f43726564656e7469616c20646f65736e277420657869737473000000000000005f82015250565b5f6125186019836124d4565b9150612523826124e4565b602082019050919050565b5f6020820190508181035f8301526125458161250c565b9050919050565b7f4e487b71000000000000000000000000000000000000000000000000000000005f52603260045260245ffd5b7f4e487b71000000000000000000000000000000000000000000000000000000005f52601160045260245ffd5b5f6125b082611f68565b915060ff82036125c3576125c2612579565b5b600182019050919050565b7f43616c6c6572206973206e6f74206120697373756572203200000000000000005f82015250565b5f6126026018836124d4565b915061260d826125ce565b602082019050919050565b5f6020820190508181035f83015261262f816125f6565b9050919050565b7f43726564656e7469616c20616c726561647920657869737473000000000000005f82015250565b5f61266a6019836124d4565b915061267582612636565b602082019050919050565b5f6020820190508181035f8301526126978161265e565b9050919050565b7f496d706f7369626c6520746f20636f6d706c65746520746865207369676e61745f8201527f7572650000000000000000000000000000000000000000000000000000000000602082015250565b5f6126f86023836124d4565b91506127038261269e565b604082019050919050565b5f6020820190508181035f830152612725816126ec565b9050919050565b5f60608201905061273f5f83018661240e565b61274c602083018561240e565b6127596040830184612474565b949350505050565b5f6080820190506127745f830187611fc7565b6127816020830186611f74565b61278e6040830185611fc7565b61279b6060830184611fc7565b95945050505050565b7f63726564656e7469616c206861736820646f65736e27742065786973740000005f82015250565b5f6127d8601d836124d4565b91506127e3826127a4565b602082019050919050565b5f6020820190508181035f830152612805816127cc565b9050919050565b7f43726564656e7469616c20697320616c7265616479207265766f6b65640000005f82015250565b5f612840601d836124d4565b915061284b8261280c565b602082019050919050565b5f6020820190508181035f83015261286d81612834565b9050919050565b5f6040820190506128875f83018561240e565b6128946020830184612474565b9392505050565b6128a481611e9d565b82525050565b6128b381611f68565b82525050565b606082015f8201516128cd5f85018261289b565b5060208201516128e0602085018261289b565b5060408201516128f360408501826128aa565b50505050565b5f60a08201905061290c5f83018661240e565b6129196020830185611e75565b61292660408301846128b9565b949350505050565b5f6040820190506129415f83018561240e565b61294e6020830184611fc7565b939250505056fea264697066735822122067f8402193531fca1060f5d069fa16f4ea254a0a9b387eb6632d1ce734c76ea564736f6c63430008150033",
					"opcodes": "PUSH1 0x80 PUSH1 0x40 MSTORE CALLVALUE DUP1 ISZERO PUSH3 0x10 JUMPI PUSH0 DUP1 REVERT JUMPDEST POP PUSH3 0x25 PUSH0 DUP1 SHL CALLER PUSH3 0x2C PUSH1 0x20 SHL PUSH1 0x20 SHR JUMP JUMPDEST POP PUSH3 0x191 JUMP JUMPDEST PUSH0 PUSH3 0x3F DUP4 DUP4 PUSH3 0x127 PUSH1 0x20 SHL PUSH1 0x20 SHR JUMP JUMPDEST PUSH3 0x11D JUMPI PUSH1 0x1 PUSH0 DUP1 DUP6 DUP2 MSTORE PUSH1 0x20 ADD SWAP1 DUP2 MSTORE PUSH1 0x20 ADD PUSH0 KECCAK256 PUSH0 ADD PUSH0 DUP5 PUSH20 0xFFFFFFFFFFFFFFFFFFFFFFFFFFFFFFFFFFFFFFFF AND PUSH20 0xFFFFFFFFFFFFFFFFFFFFFFFFFFFFFFFFFFFFFFFF AND DUP2 MSTORE PUSH1 0x20 ADD SWAP1 DUP2 MSTORE PUSH1 0x20 ADD PUSH0 KECCAK256 PUSH0 PUSH2 0x100 EXP DUP2 SLOAD DUP2 PUSH1 0xFF MUL NOT AND SWAP1 DUP4 ISZERO ISZERO MUL OR SWAP1 SSTORE POP PUSH3 0xB9 PUSH3 0x18A PUSH1 0x20 SHL PUSH1 0x20 SHR JUMP JUMPDEST PUSH20 0xFFFFFFFFFFFFFFFFFFFFFFFFFFFFFFFFFFFFFFFF AND DUP3 PUSH20 0xFFFFFFFFFFFFFFFFFFFFFFFFFFFFFFFFFFFFFFFF AND DUP5 PUSH32 0x2F8788117E7EFF1D82E926EC794901D17C78024A50270940304540A733656F0D PUSH1 0x40 MLOAD PUSH1 0x40 MLOAD DUP1 SWAP2 SUB SWAP1 LOG4 PUSH1 0x1 SWAP1 POP PUSH3 0x121 JUMP JUMPDEST PUSH0 SWAP1 POP JUMPDEST SWAP3 SWAP2 POP POP JUMP JUMPDEST PUSH0 DUP1 PUSH0 DUP5 DUP2 MSTORE PUSH1 0x20 ADD SWAP1 DUP2 MSTORE PUSH1 0x20 ADD PUSH0 KECCAK256 PUSH0 ADD PUSH0 DUP4 PUSH20 0xFFFFFFFFFFFFFFFFFFFFFFFFFFFFFFFFFFFFFFFF AND PUSH20 0xFFFFFFFFFFFFFFFFFFFFFFFFFFFFFFFFFFFFFFFF AND DUP2 MSTORE PUSH1 0x20 ADD SWAP1 DUP2 MSTORE PUSH1 0x20 ADD PUSH0 KECCAK256 PUSH0 SWAP1 SLOAD SWAP1 PUSH2 0x100 EXP SWAP1 DIV PUSH1 0xFF AND SWAP1 POP SWAP3 SWAP2 POP POP JUMP JUMPDEST PUSH0 CALLER SWAP1 POP SWAP1 JUMP JUMPDEST PUSH2 0x298B DUP1 PUSH3 0x19F PUSH0 CODECOPY PUSH0 RETURN INVALID PUSH1 0x80 PUSH1 0x40 MSTORE CALLVALUE DUP1 ISZERO PUSH2 0xF JUMPI PUSH0 DUP1 REVERT JUMPDEST POP PUSH1 0x4 CALLDATASIZE LT PUSH2 0x114 JUMPI PUSH0 CALLDATALOAD PUSH1 0xE0 SHR DUP1 PUSH4 0x87CF356E GT PUSH2 0xA0 JUMPI DUP1 PUSH4 0xA217FDDF GT PUSH2 0x6F JUMPI DUP1 PUSH4 0xA217FDDF EQ PUSH2 0x34E JUMPI DUP1 PUSH4 0xCA6EEC78 EQ PUSH2 0x36C JUMPI DUP1 PUSH4 0xD547741F EQ PUSH2 0x39C JUMPI DUP1 PUSH4 0xD6D76ED5 EQ PUSH2 0x3B8 JUMPI DUP1 PUSH4 0xF078E5DB EQ PUSH2 0x3E8 JUMPI PUSH2 0x114 JUMP JUMPDEST DUP1 PUSH4 0x87CF356E EQ PUSH2 0x28E JUMPI DUP1 PUSH4 0x9052944E EQ PUSH2 0x2BE JUMPI DUP1 PUSH4 0x91D14854 EQ PUSH2 0x2EE JUMPI DUP1 PUSH4 0x957839D9 EQ PUSH2 0x31E JUMPI PUSH2 0x114 JUMP JUMPDEST DUP1 PUSH4 0x36568ABE GT PUSH2 0xE7 JUMPI DUP1 PUSH4 0x36568ABE EQ PUSH2 0x1C4 JUMPI DUP1 PUSH4 0x448684AC EQ PUSH2 0x1E0 JUMPI DUP1 PUSH4 0x701EE463 EQ PUSH2 0x210 JUMPI DUP1 PUSH4 0x75130747 EQ PUSH2 0x240 JUMPI DUP1 PUSH4 0x82AEFA24 EQ PUSH2 0x270 JUMPI PUSH2 0x114 JUMP JUMPDEST DUP1 PUSH4 0x1FFC9A7 EQ PUSH2 0x118 JUMPI DUP1 PUSH4 0x6B15DF4 EQ PUSH2 0x148 JUMPI DUP1 PUSH4 0x248A9CA3 EQ PUSH2 0x178 JUMPI DUP1 PUSH4 0x2F2FF15D EQ PUSH2 0x1A8 JUMPI JUMPDEST PUSH0 DUP1 REVERT JUMPDEST PUSH2 0x132 PUSH1 0x4 DUP1 CALLDATASIZE SUB DUP2 ADD SWAP1 PUSH2 0x12D SWAP2 SWAP1 PUSH2 0x1E3F JUMP JUMPDEST PUSH2 0x41C JUMP JUMPDEST PUSH1 0x40 MLOAD PUSH2 0x13F SWAP2 SWAP1 PUSH2 0x1E84 JUMP JUMPDEST PUSH1 0x40 MLOAD DUP1 SWAP2 SUB SWAP1 RETURN JUMPDEST PUSH2 0x162 PUSH1 0x4 DUP1 CALLDATASIZE SUB DUP2 ADD SWAP1 PUSH2 0x15D SWAP2 SWAP1 PUSH2 0x1F2A JUMP JUMPDEST PUSH2 0x495 JUMP JUMPDEST PUSH1 0x40 MLOAD PUSH2 0x16F SWAP2 SWAP1 PUSH2 0x1F83 JUMP JUMPDEST PUSH1 0x40 MLOAD DUP1 SWAP2 SUB SWAP1 RETURN JUMPDEST PUSH2 0x192 PUSH1 0x4 DUP1 CALLDATASIZE SUB DUP2 ADD SWAP1 PUSH2 0x18D SWAP2 SWAP1 PUSH2 0x1F9C JUMP JUMPDEST PUSH2 0x6A2 JUMP JUMPDEST PUSH1 0x40 MLOAD PUSH2 0x19F SWAP2 SWAP1 PUSH2 0x1FD6 JUMP JUMPDEST PUSH1 0x40 MLOAD DUP1 SWAP2 SUB SWAP1 RETURN JUMPDEST PUSH2 0x1C2 PUSH1 0x4 DUP1 CALLDATASIZE SUB DUP2 ADD SWAP1 PUSH2 0x1BD SWAP2 SWAP1 PUSH2 0x1F2A JUMP JUMPDEST PUSH2 0x6BE JUMP JUMPDEST STOP JUMPDEST PUSH2 0x1DE PUSH1 0x4 DUP1 CALLDATASIZE SUB DUP2 ADD SWAP1 PUSH2 0x1D9 SWAP2 SWAP1 PUSH2 0x1F2A JUMP JUMPDEST PUSH2 0x6E0 JUMP JUMPDEST STOP JUMPDEST PUSH2 0x1FA PUSH1 0x4 DUP1 CALLDATASIZE SUB DUP2 ADD SWAP1 PUSH2 0x1F5 SWAP2 SWAP1 PUSH2 0x2050 JUMP JUMPDEST PUSH2 0x75B JUMP JUMPDEST PUSH1 0x40 MLOAD PUSH2 0x207 SWAP2 SWAP1 PUSH2 0x1E84 JUMP JUMPDEST PUSH1 0x40 MLOAD DUP1 SWAP2 SUB SWAP1 RETURN JUMPDEST PUSH2 0x22A PUSH1 0x4 DUP1 CALLDATASIZE SUB DUP2 ADD SWAP1 PUSH2 0x225 SWAP2 SWAP1 PUSH2 0x21F9 JUMP JUMPDEST PUSH2 0x772 JUMP JUMPDEST PUSH1 0x40 MLOAD PUSH2 0x237 SWAP2 SWAP1 PUSH2 0x1E84 JUMP JUMPDEST PUSH1 0x40 MLOAD DUP1 SWAP2 SUB SWAP1 RETURN JUMPDEST PUSH2 0x25A PUSH1 0x4 DUP1 CALLDATASIZE SUB DUP2 ADD SWAP1 PUSH2 0x255 SWAP2 SWAP1 PUSH2 0x2298 JUMP JUMPDEST PUSH2 0xA85 JUMP JUMPDEST PUSH1 0x40 MLOAD PUSH2 0x267 SWAP2 SWAP1 PUSH2 0x1E84 JUMP JUMPDEST PUSH1 0x40 MLOAD DUP1 SWAP2 SUB SWAP1 RETURN JUMPDEST PUSH2 0x278 PUSH2 0xE8E JUMP JUMPDEST PUSH1 0x40 MLOAD PUSH2 0x285 SWAP2 SWAP1 PUSH2 0x1FD6 JUMP JUMPDEST PUSH1 0x40 MLOAD DUP1 SWAP2 SUB SWAP1 RETURN JUMPDEST PUSH2 0x2A8 PUSH1 0x4 DUP1 CALLDATASIZE SUB DUP2 ADD SWAP1 PUSH2 0x2A3 SWAP2 SWAP1 PUSH2 0x2342 JUMP JUMPDEST PUSH2 0xEB2 JUMP JUMPDEST PUSH1 0x40 MLOAD PUSH2 0x2B5 SWAP2 SWAP1 PUSH2 0x1E84 JUMP JUMPDEST PUSH1 0x40 MLOAD DUP1 SWAP2 SUB SWAP1 RETURN JUMPDEST PUSH2 0x2D8 PUSH1 0x4 DUP1 CALLDATASIZE SUB DUP2 ADD SWAP1 PUSH2 0x2D3 SWAP2 SWAP1 PUSH2 0x23AA JUMP JUMPDEST PUSH2 0xEEA JUMP JUMPDEST PUSH1 0x40 MLOAD PUSH2 0x2E5 SWAP2 SWAP1 PUSH2 0x241D JUMP JUMPDEST PUSH1 0x40 MLOAD DUP1 SWAP2 SUB SWAP1 RETURN JUMPDEST PUSH2 0x308 PUSH1 0x4 DUP1 CALLDATASIZE SUB DUP2 ADD SWAP1 PUSH2 0x303 SWAP2 SWAP1 PUSH2 0x1F2A JUMP JUMPDEST PUSH2 0xF41 JUMP JUMPDEST PUSH1 0x40 MLOAD PUSH2 0x315 SWAP2 SWAP1 PUSH2 0x1E84 JUMP JUMPDEST PUSH1 0x40 MLOAD DUP1 SWAP2 SUB SWAP1 RETURN JUMPDEST PUSH2 0x338 PUSH1 0x4 DUP1 CALLDATASIZE SUB DUP2 ADD SWAP1 PUSH2 0x333 SWAP2 SWAP1 PUSH2 0x1F2A JUMP JUMPDEST PUSH2 0xFA4 JUMP JUMPDEST PUSH1 0x40 MLOAD PUSH2 0x345 SWAP2 SWAP1 PUSH2 0x1E84 JUMP JUMPDEST PUSH1 0x40 MLOAD DUP1 SWAP2 SUB SWAP1 RETURN JUMPDEST PUSH2 0x356 PUSH2 0x119E JUMP JUMPDEST PUSH1 0x40 MLOAD PUSH2 0x363 SWAP2 SWAP1 PUSH2 0x1FD6 JUMP JUMPDEST PUSH1 0x40 MLOAD DUP1 SWAP2 SUB SWAP1 RETURN JUMPDEST PUSH2 0x386 PUSH1 0x4 DUP1 CALLDATASIZE SUB DUP2 ADD SWAP1 PUSH2 0x381 SWAP2 SWAP1 PUSH2 0x1F9C JUMP JUMPDEST PUSH2 0x11A4 JUMP JUMPDEST PUSH1 0x40 MLOAD PUSH2 0x393 SWAP2 SWAP1 PUSH2 0x1E84 JUMP JUMPDEST PUSH1 0x40 MLOAD DUP1 SWAP2 SUB SWAP1 RETURN JUMPDEST PUSH2 0x3B6 PUSH1 0x4 DUP1 CALLDATASIZE SUB DUP2 ADD SWAP1 PUSH2 0x3B1 SWAP2 SWAP1 PUSH2 0x1F2A JUMP JUMPDEST PUSH2 0x14A2 JUMP JUMPDEST STOP JUMPDEST PUSH2 0x3D2 PUSH1 0x4 DUP1 CALLDATASIZE SUB DUP2 ADD SWAP1 PUSH2 0x3CD SWAP2 SWAP1 PUSH2 0x2436 JUMP JUMPDEST PUSH2 0x14C4 JUMP JUMPDEST PUSH1 0x40 MLOAD PUSH2 0x3DF SWAP2 SWAP1 PUSH2 0x1E84 JUMP JUMPDEST PUSH1 0x40 MLOAD DUP1 SWAP2 SUB SWAP1 RETURN JUMPDEST PUSH2 0x402 PUSH1 0x4 DUP1 CALLDATASIZE SUB DUP2 ADD SWAP1 PUSH2 0x3FD SWAP2 SWAP1 PUSH2 0x1F2A JUMP JUMPDEST PUSH2 0x168F JUMP JUMPDEST PUSH1 0x40 MLOAD PUSH2 0x413 SWAP6 SWAP5 SWAP4 SWAP3 SWAP2 SWAP1 PUSH2 0x2483 JUMP JUMPDEST PUSH1 0x40 MLOAD DUP1 SWAP2 SUB SWAP1 RETURN JUMPDEST PUSH0 PUSH32 0x7965DB0B00000000000000000000000000000000000000000000000000000000 PUSH28 0xFFFFFFFFFFFFFFFFFFFFFFFFFFFFFFFFFFFFFFFFFFFFFFFFFFFFFFFF NOT AND DUP3 PUSH28 0xFFFFFFFFFFFFFFFFFFFFFFFFFFFFFFFFFFFFFFFFFFFFFFFFFFFFFFFF NOT AND EQ DUP1 PUSH2 0x48E JUMPI POP PUSH2 0x48D DUP3 PUSH2 0x1716 JUMP JUMPDEST JUMPDEST SWAP1 POP SWAP2 SWAP1 POP JUMP JUMPDEST PUSH0 DUP1 PUSH1 0x1 PUSH0 DUP6 DUP2 MSTORE PUSH1 0x20 ADD SWAP1 DUP2 MSTORE PUSH1 0x20 ADD PUSH0 KECCAK256 PUSH0 DUP5 PUSH20 0xFFFFFFFFFFFFFFFFFFFFFFFFFFFFFFFFFFFFFFFF AND PUSH20 0xFFFFFFFFFFFFFFFFFFFFFFFFFFFFFFFFFFFFFFFF AND DUP2 MSTORE PUSH1 0x20 ADD SWAP1 DUP2 MSTORE PUSH1 0x20 ADD PUSH0 KECCAK256 PUSH1 0x40 MLOAD DUP1 PUSH1 0xC0 ADD PUSH1 0x40 MSTORE SWAP1 DUP2 PUSH0 DUP3 ADD PUSH0 SWAP1 SLOAD SWAP1 PUSH2 0x100 EXP SWAP1 DIV PUSH20 0xFFFFFFFFFFFFFFFFFFFFFFFFFFFFFFFFFFFFFFFF AND PUSH20 0xFFFFFFFFFFFFFFFFFFFFFFFFFFFFFFFFFFFFFFFF AND PUSH20 0xFFFFFFFFFFFFFFFFFFFFFFFFFFFFFFFFFFFFFFFF AND DUP2 MSTORE PUSH1 0x20 ADD PUSH1 0x1 DUP3 ADD PUSH0 SWAP1 SLOAD SWAP1 PUSH2 0x100 EXP SWAP1 DIV PUSH20 0xFFFFFFFFFFFFFFFFFFFFFFFFFFFFFFFFFFFFFFFF AND PUSH20 0xFFFFFFFFFFFFFFFFFFFFFFFFFFFFFFFFFFFFFFFF AND PUSH20 0xFFFFFFFFFFFFFFFFFFFFFFFFFFFFFFFFFFFFFFFF AND DUP2 MSTORE PUSH1 0x20 ADD PUSH1 0x2 DUP3 ADD SLOAD DUP2 MSTORE PUSH1 0x20 ADD PUSH1 0x3 DUP3 ADD SLOAD DUP2 MSTORE PUSH1 0x20 ADD PUSH1 0x4 DUP3 ADD DUP1 SLOAD DUP1 PUSH1 0x20 MUL PUSH1 0x20 ADD PUSH1 0x40 MLOAD SWAP1 DUP2 ADD PUSH1 0x40 MSTORE DUP1 SWAP3 SWAP2 SWAP1 DUP2 DUP2 MSTORE PUSH1 0x20 ADD PUSH0 SWAP1 JUMPDEST DUP3 DUP3 LT ISZERO PUSH2 0x62E JUMPI DUP4 DUP3 SWAP1 PUSH0 MSTORE PUSH1 0x20 PUSH0 KECCAK256 SWAP1 PUSH1 0x3 MUL ADD PUSH1 0x40 MLOAD DUP1 PUSH1 0x60 ADD PUSH1 0x40 MSTORE SWAP1 DUP2 PUSH0 DUP3 ADD SLOAD DUP2 MSTORE PUSH1 0x20 ADD PUSH1 0x1 DUP3 ADD SLOAD DUP2 MSTORE PUSH1 0x20 ADD PUSH1 0x2 DUP3 ADD PUSH0 SWAP1 SLOAD SWAP1 PUSH2 0x100 EXP SWAP1 DIV PUSH1 0xFF AND PUSH1 0xFF AND PUSH1 0xFF AND DUP2 MSTORE POP POP DUP2 MSTORE PUSH1 0x20 ADD SWAP1 PUSH1 0x1 ADD SWAP1 PUSH2 0x5CF JUMP JUMPDEST POP POP POP POP DUP2 MSTORE PUSH1 0x20 ADD PUSH1 0x5 DUP3 ADD PUSH0 SWAP1 SLOAD SWAP1 PUSH2 0x100 EXP SWAP1 DIV PUSH1 0xFF AND ISZERO ISZERO ISZERO ISZERO DUP2 MSTORE POP POP SWAP1 POP PUSH0 PUSH20 0xFFFFFFFFFFFFFFFFFFFFFFFFFFFFFFFFFFFFFFFF AND DUP2 PUSH1 0x20 ADD MLOAD PUSH20 0xFFFFFFFFFFFFFFFFFFFFFFFFFFFFFFFFFFFFFFFF AND EQ PUSH2 0x697 JUMPI DUP1 PUSH1 0x80 ADD MLOAD MLOAD SWAP2 POP POP PUSH2 0x69C JUMP JUMPDEST PUSH0 SWAP2 POP POP JUMPDEST SWAP3 SWAP2 POP POP JUMP JUMPDEST PUSH0 DUP1 PUSH0 DUP4 DUP2 MSTORE PUSH1 0x20 ADD SWAP1 DUP2 MSTORE PUSH1 0x20 ADD PUSH0 KECCAK256 PUSH1 0x1 ADD SLOAD SWAP1 POP SWAP2 SWAP1 POP JUMP JUMPDEST PUSH2 0x6C7 DUP3 PUSH2 0x6A2 JUMP JUMPDEST PUSH2 0x6D0 DUP2 PUSH2 0x177F JUMP JUMPDEST PUSH2 0x6DA DUP4 DUP4 PUSH2 0x1793 JUMP JUMPDEST POP POP POP POP JUMP JUMPDEST PUSH2 0x6E8 PUSH2 0x187C JUMP JUMPDEST PUSH20 0xFFFFFFFFFFFFFFFFFFFFFFFFFFFFFFFFFFFFFFFF AND DUP2 PUSH20 0xFFFFFFFFFFFFFFFFFFFFFFFFFFFFFFFFFFFFFFFF AND EQ PUSH2 0x74C JUMPI PUSH1 0x40 MLOAD PUSH32 0x6697B23200000000000000000000000000000000000000000000000000000000 DUP2 MSTORE PUSH1 0x4 ADD PUSH1 0x40 MLOAD DUP1 SWAP2 SUB SWAP1 REVERT JUMPDEST PUSH2 0x756 DUP3 DUP3 PUSH2 0x1883 JUMP JUMPDEST POP POP POP JUMP JUMPDEST PUSH0 PUSH2 0x768 DUP6 DUP6 DUP6 DUP6 PUSH2 0x196C JUMP JUMPDEST SWAP1 POP SWAP5 SWAP4 POP POP POP POP JUMP JUMPDEST PUSH0 DUP1 PUSH1 0x1 PUSH0 DUP7 DUP2 MSTORE PUSH1 0x20 ADD SWAP1 DUP2 MSTORE PUSH1 0x20 ADD PUSH0 KECCAK256 PUSH0 DUP6 PUSH20 0xFFFFFFFFFFFFFFFFFFFFFFFFFFFFFFFFFFFFFFFF AND PUSH20 0xFFFFFFFFFFFFFFFFFFFFFFFFFFFFFFFFFFFFFFFF AND DUP2 MSTORE PUSH1 0x20 ADD SWAP1 DUP2 MSTORE PUSH1 0x20 ADD PUSH0 KECCAK256 PUSH1 0x40 MLOAD DUP1 PUSH1 0xC0 ADD PUSH1 0x40 MSTORE SWAP1 DUP2 PUSH0 DUP3 ADD PUSH0 SWAP1 SLOAD SWAP1 PUSH2 0x100 EXP SWAP1 DIV PUSH20 0xFFFFFFFFFFFFFFFFFFFFFFFFFFFFFFFFFFFFFFFF AND PUSH20 0xFFFFFFFFFFFFFFFFFFFFFFFFFFFFFFFFFFFFFFFF AND PUSH20 0xFFFFFFFFFFFFFFFFFFFFFFFFFFFFFFFFFFFFFFFF AND DUP2 MSTORE PUSH1 0x20 ADD PUSH1 0x1 DUP3 ADD PUSH0 SWAP1 SLOAD SWAP1 PUSH2 0x100 EXP SWAP1 DIV PUSH20 0xFFFFFFFFFFFFFFFFFFFFFFFFFFFFFFFFFFFFFFFF AND PUSH20 0xFFFFFFFFFFFFFFFFFFFFFFFFFFFFFFFFFFFFFFFF AND PUSH20 0xFFFFFFFFFFFFFFFFFFFFFFFFFFFFFFFFFFFFFFFF AND DUP2 MSTORE PUSH1 0x20 ADD PUSH1 0x2 DUP3 ADD SLOAD DUP2 MSTORE PUSH1 0x20 ADD PUSH1 0x3 DUP3 ADD SLOAD DUP2 MSTORE PUSH1 0x20 ADD PUSH1 0x4 DUP3 ADD DUP1 SLOAD DUP1 PUSH1 0x20 MUL PUSH1 0x20 ADD PUSH1 0x40 MLOAD SWAP1 DUP2 ADD PUSH1 0x40 MSTORE DUP1 SWAP3 SWAP2 SWAP1 DUP2 DUP2 MSTORE PUSH1 0x20 ADD PUSH0 SWAP1 JUMPDEST DUP3 DUP3 LT ISZERO PUSH2 0x90B JUMPI DUP4 DUP3 SWAP1 PUSH0 MSTORE PUSH1 0x20 PUSH0 KECCAK256 SWAP1 PUSH1 0x3 MUL ADD PUSH1 0x40 MLOAD DUP1 PUSH1 0x60 ADD PUSH1 0x40 MSTORE SWAP1 DUP2 PUSH0 DUP3 ADD SLOAD DUP2 MSTORE PUSH1 0x20 ADD PUSH1 0x1 DUP3 ADD SLOAD DUP2 MSTORE PUSH1 0x20 ADD PUSH1 0x2 DUP3 ADD PUSH0 SWAP1 SLOAD SWAP1 PUSH2 0x100 EXP SWAP1 DIV PUSH1 0xFF AND PUSH1 0xFF AND PUSH1 0xFF AND DUP2 MSTORE POP POP DUP2 MSTORE PUSH1 0x20 ADD SWAP1 PUSH1 0x1 ADD SWAP1 PUSH2 0x8AC JUMP JUMPDEST POP POP POP POP DUP2 MSTORE PUSH1 0x20 ADD PUSH1 0x5 DUP3 ADD PUSH0 SWAP1 SLOAD SWAP1 PUSH2 0x100 EXP SWAP1 DIV PUSH1 0xFF AND ISZERO ISZERO ISZERO ISZERO DUP2 MSTORE POP POP SWAP1 POP PUSH0 PUSH20 0xFFFFFFFFFFFFFFFFFFFFFFFFFFFFFFFFFFFFFFFF AND DUP2 PUSH1 0x20 ADD MLOAD PUSH20 0xFFFFFFFFFFFFFFFFFFFFFFFFFFFFFFFFFFFFFFFF AND SUB PUSH2 0x9A1 JUMPI PUSH1 0x40 MLOAD PUSH32 0x8C379A000000000000000000000000000000000000000000000000000000000 DUP2 MSTORE PUSH1 0x4 ADD PUSH2 0x998 SWAP1 PUSH2 0x252E JUMP JUMPDEST PUSH1 0x40 MLOAD DUP1 SWAP2 SUB SWAP1 REVERT JUMPDEST PUSH0 DUP1 PUSH0 PUSH1 0x20 DUP7 ADD MLOAD SWAP3 POP PUSH1 0x40 DUP7 ADD MLOAD SWAP2 POP PUSH1 0x60 DUP7 ADD MLOAD PUSH0 BYTE SWAP1 POP PUSH0 PUSH1 0x40 MLOAD DUP1 PUSH1 0x60 ADD PUSH1 0x40 MSTORE DUP1 DUP6 DUP2 MSTORE PUSH1 0x20 ADD DUP5 DUP2 MSTORE PUSH1 0x20 ADD DUP4 PUSH1 0xFF AND DUP2 MSTORE POP SWAP1 POP PUSH0 DUP1 JUMPDEST DUP7 PUSH1 0x80 ADD MLOAD MLOAD DUP2 PUSH1 0xFF AND LT DUP1 ISZERO PUSH2 0x9F4 JUMPI POP DUP2 ISZERO JUMPDEST ISZERO PUSH2 0xA74 JUMPI DUP3 PUSH0 ADD MLOAD DUP8 PUSH1 0x80 ADD MLOAD DUP3 PUSH1 0xFF AND DUP2 MLOAD DUP2 LT PUSH2 0xA17 JUMPI PUSH2 0xA16 PUSH2 0x254C JUMP JUMPDEST JUMPDEST PUSH1 0x20 MUL PUSH1 0x20 ADD ADD MLOAD PUSH0 ADD MLOAD EQ DUP1 ISZERO PUSH2 0xA57 JUMPI POP DUP3 PUSH1 0x20 ADD MLOAD DUP8 PUSH1 0x80 ADD MLOAD DUP3 PUSH1 0xFF AND DUP2 MLOAD DUP2 LT PUSH2 0xA49 JUMPI PUSH2 0xA48 PUSH2 0x254C JUMP JUMPDEST JUMPDEST PUSH1 0x20 MUL PUSH1 0x20 ADD ADD MLOAD PUSH1 0x20 ADD MLOAD EQ JUMPDEST ISZERO PUSH2 0xA61 JUMPI PUSH1 0x1 SWAP2 POP JUMPDEST DUP1 DUP1 PUSH2 0xA6C SWAP1 PUSH2 0x25A6 JUMP JUMPDEST SWAP2 POP POP PUSH2 0x9DF JUMP JUMPDEST DUP2 SWAP8 POP POP POP POP POP POP POP POP SWAP4 SWAP3 POP POP POP JUMP JUMPDEST PUSH0 PUSH2 0xAB0 PUSH32 0x114E74F6EA3BD819998F78687BFCB11B140DA08E9B7D222FA9C1F1BA1F2AA122 CALLER PUSH2 0xF41 JUMP JUMPDEST PUSH2 0xAEF JUMPI PUSH1 0x40 MLOAD PUSH32 0x8C379A000000000000000000000000000000000000000000000000000000000 DUP2 MSTORE PUSH1 0x4 ADD PUSH2 0xAE6 SWAP1 PUSH2 0x2618 JUMP JUMPDEST PUSH1 0x40 MLOAD DUP1 SWAP2 SUB SWAP1 REVERT JUMPDEST PUSH0 PUSH1 0x1 PUSH0 DUP9 DUP2 MSTORE PUSH1 0x20 ADD SWAP1 DUP2 MSTORE PUSH1 0x20 ADD PUSH0 KECCAK256 PUSH0 DUP11 PUSH20 0xFFFFFFFFFFFFFFFFFFFFFFFFFFFFFFFFFFFFFFFF AND PUSH20 0xFFFFFFFFFFFFFFFFFFFFFFFFFFFFFFFFFFFFFFFF AND DUP2 MSTORE PUSH1 0x20 ADD SWAP1 DUP2 MSTORE PUSH1 0x20 ADD PUSH0 KECCAK256 SWAP1 POP PUSH0 PUSH20 0xFFFFFFFFFFFFFFFFFFFFFFFFFFFFFFFFFFFFFFFF AND DUP2 PUSH1 0x1 ADD PUSH0 SWAP1 SLOAD SWAP1 PUSH2 0x100 EXP SWAP1 DIV PUSH20 0xFFFFFFFFFFFFFFFFFFFFFFFFFFFFFFFFFFFFFFFF AND PUSH20 0xFFFFFFFFFFFFFFFFFFFFFFFFFFFFFFFFFFFFFFFF AND EQ PUSH2 0xBCF JUMPI PUSH1 0x40 MLOAD PUSH32 0x8C379A000000000000000000000000000000000000000000000000000000000 DUP2 MSTORE PUSH1 0x4 ADD PUSH2 0xBC6 SWAP1 PUSH2 0x2680 JUMP JUMPDEST PUSH1 0x40 MLOAD DUP1 SWAP2 SUB SWAP1 REVERT JUMPDEST DUP9 DUP2 PUSH0 ADD PUSH0 PUSH2 0x100 EXP DUP2 SLOAD DUP2 PUSH20 0xFFFFFFFFFFFFFFFFFFFFFFFFFFFFFFFFFFFFFFFF MUL NOT AND SWAP1 DUP4 PUSH20 0xFFFFFFFFFFFFFFFFFFFFFFFFFFFFFFFFFFFFFFFF AND MUL OR SWAP1 SSTORE POP DUP8 DUP2 PUSH1 0x1 ADD PUSH0 PUSH2 0x100 EXP DUP2 SLOAD DUP2 PUSH20 0xFFFFFFFFFFFFFFFFFFFFFFFFFFFFFFFFFFFFFFFF MUL NOT AND SWAP1 DUP4 PUSH20 0xFFFFFFFFFFFFFFFFFFFFFFFFFFFFFFFFFFFFFFFF AND MUL OR SWAP1 SSTORE POP DUP6 DUP2 PUSH1 0x2 ADD DUP2 SWAP1 SSTORE POP DUP5 DUP2 PUSH1 0x3 ADD DUP2 SWAP1 SSTORE POP PUSH1 0x1 DUP2 PUSH1 0x5 ADD PUSH0 PUSH2 0x100 EXP DUP2 SLOAD DUP2 PUSH1 0xFF MUL NOT AND SWAP1 DUP4 ISZERO ISZERO MUL OR SWAP1 SSTORE POP DUP1 PUSH1 0x1 PUSH0 DUP10 DUP2 MSTORE PUSH1 0x20 ADD SWAP1 DUP2 MSTORE PUSH1 0x20 ADD PUSH0 KECCAK256 PUSH0 DUP12 PUSH20 0xFFFFFFFFFFFFFFFFFFFFFFFFFFFFFFFFFFFFFFFF AND PUSH20 0xFFFFFFFFFFFFFFFFFFFFFFFFFFFFFFFFFFFFFFFF AND DUP2 MSTORE PUSH1 0x20 ADD SWAP1 DUP2 MSTORE PUSH1 0x20 ADD PUSH0 KECCAK256 PUSH0 DUP3 ADD PUSH0 SWAP1 SLOAD SWAP1 PUSH2 0x100 EXP SWAP1 DIV PUSH20 0xFFFFFFFFFFFFFFFFFFFFFFFFFFFFFFFFFFFFFFFF AND DUP2 PUSH0 ADD PUSH0 PUSH2 0x100 EXP DUP2 SLOAD DUP2 PUSH20 0xFFFFFFFFFFFFFFFFFFFFFFFFFFFFFFFFFFFFFFFF MUL NOT AND SWAP1 DUP4 PUSH20 0xFFFFFFFFFFFFFFFFFFFFFFFFFFFFFFFFFFFFFFFF AND MUL OR SWAP1 SSTORE POP PUSH1 0x1 DUP3 ADD PUSH0 SWAP1 SLOAD SWAP1 PUSH2 0x100 EXP SWAP1 DIV PUSH20 0xFFFFFFFFFFFFFFFFFFFFFFFFFFFFFFFFFFFFFFFF AND DUP2 PUSH1 0x1 ADD PUSH0 PUSH2 0x100 EXP DUP2 SLOAD DUP2 PUSH20 0xFFFFFFFFFFFFFFFFFFFFFFFFFFFFFFFFFFFFFFFF MUL NOT AND SWAP1 DUP4 PUSH20 0xFFFFFFFFFFFFFFFFFFFFFFFFFFFFFFFFFFFFFFFF AND MUL OR SWAP1 SSTORE POP PUSH1 0x2 DUP3 ADD SLOAD DUP2 PUSH1 0x2 ADD SSTORE PUSH1 0x3 DUP3 ADD SLOAD DUP2 PUSH1 0x3 ADD SSTORE PUSH1 0x4 DUP3 ADD DUP2 PUSH1 0x4 ADD SWAP1 DUP1 SLOAD PUSH2 0xDBF SWAP3 SWAP2 SWAP1 PUSH2 0x1D10 JUMP JUMPDEST POP PUSH1 0x5 DUP3 ADD PUSH0 SWAP1 SLOAD SWAP1 PUSH2 0x100 EXP SWAP1 DIV PUSH1 0xFF AND DUP2 PUSH1 0x5 ADD PUSH0 PUSH2 0x100 EXP DUP2 SLOAD DUP2 PUSH1 0xFF MUL NOT AND SWAP1 DUP4 ISZERO ISZERO MUL OR SWAP1 SSTORE POP SWAP1 POP POP PUSH0 PUSH2 0xDFB DUP9 DUP12 DUP8 DUP8 PUSH2 0x196C JUMP JUMPDEST SWAP1 POP DUP1 PUSH2 0xE3D JUMPI PUSH1 0x40 MLOAD PUSH32 0x8C379A000000000000000000000000000000000000000000000000000000000 DUP2 MSTORE PUSH1 0x4 ADD PUSH2 0xE34 SWAP1 PUSH2 0x270E JUMP JUMPDEST PUSH1 0x40 MLOAD DUP1 SWAP2 SUB SWAP1 REVERT JUMPDEST DUP8 PUSH32 0x889569E4303664728FBA29A472B24D3032707E6EBBEE9A46E070C5C8F2AE4C25 DUP12 DUP12 DUP6 PUSH1 0x2 ADD SLOAD PUSH1 0x40 MLOAD PUSH2 0xE75 SWAP4 SWAP3 SWAP2 SWAP1 PUSH2 0x272C JUMP JUMPDEST PUSH1 0x40 MLOAD DUP1 SWAP2 SUB SWAP1 LOG2 PUSH1 0x1 SWAP3 POP POP POP SWAP8 SWAP7 POP POP POP POP POP POP POP JUMP JUMPDEST PUSH32 0x114E74F6EA3BD819998F78687BFCB11B140DA08E9B7D222FA9C1F1BA1F2AA122 DUP2 JUMP JUMPDEST PUSH0 DUP2 PUSH20 0xFFFFFFFFFFFFFFFFFFFFFFFFFFFFFFFFFFFFFFFF AND DUP4 PUSH20 0xFFFFFFFFFFFFFFFFFFFFFFFFFFFFFFFFFFFFFFFF AND EQ SWAP1 POP SWAP3 SWAP2 POP POP JUMP JUMPDEST PUSH0 PUSH1 0x1 DUP6 DUP6 DUP6 DUP6 PUSH1 0x40 MLOAD PUSH0 DUP2 MSTORE PUSH1 0x20 ADD PUSH1 0x40 MSTORE PUSH1 0x40 MLOAD PUSH2 0xF0D SWAP5 SWAP4 SWAP3 SWAP2 SWAP1 PUSH2 0x2761 JUMP JUMPDEST PUSH1 0x20 PUSH1 0x40 MLOAD PUSH1 0x20 DUP2 SUB SWAP1 DUP1 DUP5 SUB SWAP1 DUP6 GAS STATICCALL ISZERO DUP1 ISZERO PUSH2 0xF2D JUMPI RETURNDATASIZE PUSH0 DUP1 RETURNDATACOPY RETURNDATASIZE PUSH0 REVERT JUMPDEST POP POP POP PUSH1 0x20 PUSH1 0x40 MLOAD SUB MLOAD SWAP1 POP SWAP5 SWAP4 POP POP POP POP JUMP JUMPDEST PUSH0 DUP1 PUSH0 DUP5 DUP2 MSTORE PUSH1 0x20 ADD SWAP1 DUP2 MSTORE PUSH1 0x20 ADD PUSH0 KECCAK256 PUSH0 ADD PUSH0 DUP4 PUSH20 0xFFFFFFFFFFFFFFFFFFFFFFFFFFFFFFFFFFFFFFFF AND PUSH20 0xFFFFFFFFFFFFFFFFFFFFFFFFFFFFFFFFFFFFFFFF AND DUP2 MSTORE PUSH1 0x20 ADD SWAP1 DUP2 MSTORE PUSH1 0x20 ADD PUSH0 KECCAK256 PUSH0 SWAP1 SLOAD SWAP1 PUSH2 0x100 EXP SWAP1 DIV PUSH1 0xFF AND SWAP1 POP SWAP3 SWAP2 POP POP JUMP JUMPDEST PUSH0 DUP1 PUSH1 0x1 PUSH0 DUP6 DUP2 MSTORE PUSH1 0x20 ADD SWAP1 DUP2 MSTORE PUSH1 0x20 ADD PUSH0 KECCAK256 PUSH0 DUP5 PUSH20 0xFFFFFFFFFFFFFFFFFFFFFFFFFFFFFFFFFFFFFFFF AND PUSH20 0xFFFFFFFFFFFFFFFFFFFFFFFFFFFFFFFFFFFFFFFF AND DUP2 MSTORE PUSH1 0x20 ADD SWAP1 DUP2 MSTORE PUSH1 0x20 ADD PUSH0 KECCAK256 PUSH1 0x40 MLOAD DUP1 PUSH1 0xC0 ADD PUSH1 0x40 MSTORE SWAP1 DUP2 PUSH0 DUP3 ADD PUSH0 SWAP1 SLOAD SWAP1 PUSH2 0x100 EXP SWAP1 DIV PUSH20 0xFFFFFFFFFFFFFFFFFFFFFFFFFFFFFFFFFFFFFFFF AND PUSH20 0xFFFFFFFFFFFFFFFFFFFFFFFFFFFFFFFFFFFFFFFF AND PUSH20 0xFFFFFFFFFFFFFFFFFFFFFFFFFFFFFFFFFFFFFFFF AND DUP2 MSTORE PUSH1 0x20 ADD PUSH1 0x1 DUP3 ADD PUSH0 SWAP1 SLOAD SWAP1 PUSH2 0x100 EXP SWAP1 DIV PUSH20 0xFFFFFFFFFFFFFFFFFFFFFFFFFFFFFFFFFFFFFFFF AND PUSH20 0xFFFFFFFFFFFFFFFFFFFFFFFFFFFFFFFFFFFFFFFF AND PUSH20 0xFFFFFFFFFFFFFFFFFFFFFFFFFFFFFFFFFFFFFFFF AND DUP2 MSTORE PUSH1 0x20 ADD PUSH1 0x2 DUP3 ADD SLOAD DUP2 MSTORE PUSH1 0x20 ADD PUSH1 0x3 DUP3 ADD SLOAD DUP2 MSTORE PUSH1 0x20 ADD PUSH1 0x4 DUP3 ADD DUP1 SLOAD DUP1 PUSH1 0x20 MUL PUSH1 0x20 ADD PUSH1 0x40 MLOAD SWAP1 DUP2 ADD PUSH1 0x40 MSTORE DUP1 SWAP3 SWAP2 SWAP1 DUP2 DUP2 MSTORE PUSH1 0x20 ADD PUSH0 SWAP1 JUMPDEST DUP3 DUP3 LT ISZERO PUSH2 0x113D JUMPI DUP4 DUP3 SWAP1 PUSH0 MSTORE PUSH1 0x20 PUSH0 KECCAK256 SWAP1 PUSH1 0x3 MUL ADD PUSH1 0x40 MLOAD DUP1 PUSH1 0x60 ADD PUSH1 0x40 MSTORE SWAP1 DUP2 PUSH0 DUP3 ADD SLOAD DUP2 MSTORE PUSH1 0x20 ADD PUSH1 0x1 DUP3 ADD SLOAD DUP2 MSTORE PUSH1 0x20 ADD PUSH1 0x2 DUP3 ADD PUSH0 SWAP1 SLOAD SWAP1 PUSH2 0x100 EXP SWAP1 DIV PUSH1 0xFF AND PUSH1 0xFF AND PUSH1 0xFF AND DUP2 MSTORE POP POP DUP2 MSTORE PUSH1 0x20 ADD SWAP1 PUSH1 0x1 ADD SWAP1 PUSH2 0x10DE JUMP JUMPDEST POP POP POP POP DUP2 MSTORE PUSH1 0x20 ADD PUSH1 0x5 DUP3 ADD PUSH0 SWAP1 SLOAD SWAP1 PUSH2 0x100 EXP SWAP1 DIV PUSH1 0xFF AND ISZERO ISZERO ISZERO ISZERO DUP2 MSTORE POP POP SWAP1 POP PUSH0 PUSH20 0xFFFFFFFFFFFFFFFFFFFFFFFFFFFFFFFFFFFFFFFF AND DUP2 PUSH1 0x20 ADD MLOAD PUSH20 0xFFFFFFFFFFFFFFFFFFFFFFFFFFFFFFFFFFFFFFFF AND EQ ISZERO SWAP2 POP POP SWAP3 SWAP2 POP POP JUMP JUMPDEST PUSH0 DUP1 SHL DUP2 JUMP JUMPDEST PUSH0 DUP1 PUSH1 0x1 PUSH0 DUP5 DUP2 MSTORE PUSH1 0x20 ADD SWAP1 DUP2 MSTORE PUSH1 0x20 ADD PUSH0 KECCAK256 PUSH0 CALLER PUSH20 0xFFFFFFFFFFFFFFFFFFFFFFFFFFFFFFFFFFFFFFFF AND PUSH20 0xFFFFFFFFFFFFFFFFFFFFFFFFFFFFFFFFFFFFFFFF AND DUP2 MSTORE PUSH1 0x20 ADD SWAP1 DUP2 MSTORE PUSH1 0x20 ADD PUSH0 KECCAK256 SWAP1 POP PUSH0 PUSH20 0xFFFFFFFFFFFFFFFFFFFFFFFFFFFFFFFFFFFFFFFF AND DUP2 PUSH1 0x1 ADD PUSH0 SWAP1 SLOAD SWAP1 PUSH2 0x100 EXP SWAP1 DIV PUSH20 0xFFFFFFFFFFFFFFFFFFFFFFFFFFFFFFFFFFFFFFFF AND PUSH20 0xFFFFFFFFFFFFFFFFFFFFFFFFFFFFFFFFFFFFFFFF AND SUB PUSH2 0x1285 JUMPI PUSH1 0x40 MLOAD PUSH32 0x8C379A000000000000000000000000000000000000000000000000000000000 DUP2 MSTORE PUSH1 0x4 ADD PUSH2 0x127C SWAP1 PUSH2 0x27EE JUMP JUMPDEST PUSH1 0x40 MLOAD DUP1 SWAP2 SUB SWAP1 REVERT JUMPDEST DUP1 PUSH1 0x5 ADD PUSH0 SWAP1 SLOAD SWAP1 PUSH2 0x100 EXP SWAP1 DIV PUSH1 0xFF AND PUSH2 0x12D5 JUMPI PUSH1 0x40 MLOAD PUSH32 0x8C379A000000000000000000000000000000000000000000000000000000000 DUP2 MSTORE PUSH1 0x4 ADD PUSH2 0x12CC SWAP1 PUSH2 0x2856 JUMP JUMPDEST PUSH1 0x40 MLOAD DUP1 SWAP2 SUB SWAP1 REVERT JUMPDEST PUSH0 DUP2 PUSH1 0x5 ADD PUSH0 PUSH2 0x100 EXP DUP2 SLOAD DUP2 PUSH1 0xFF MUL NOT AND SWAP1 DUP4 ISZERO ISZERO MUL OR SWAP1 SSTORE POP DUP1 PUSH1 0x1 PUSH0 DUP6 DUP2 MSTORE PUSH1 0x20 ADD SWAP1 DUP2 MSTORE PUSH1 0x20 ADD PUSH0 KECCAK256 PUSH0 CALLER PUSH20 0xFFFFFFFFFFFFFFFFFFFFFFFFFFFFFFFFFFFFFFFF AND PUSH20 0xFFFFFFFFFFFFFFFFFFFFFFFFFFFFFFFFFFFFFFFF AND DUP2 MSTORE PUSH1 0x20 ADD SWAP1 DUP2 MSTORE PUSH1 0x20 ADD PUSH0 KECCAK256 PUSH0 DUP3 ADD PUSH0 SWAP1 SLOAD SWAP1 PUSH2 0x100 EXP SWAP1 DIV PUSH20 0xFFFFFFFFFFFFFFFFFFFFFFFFFFFFFFFFFFFFFFFF AND DUP2 PUSH0 ADD PUSH0 PUSH2 0x100 EXP DUP2 SLOAD DUP2 PUSH20 0xFFFFFFFFFFFFFFFFFFFFFFFFFFFFFFFFFFFFFFFF MUL NOT AND SWAP1 DUP4 PUSH20 0xFFFFFFFFFFFFFFFFFFFFFFFFFFFFFFFFFFFFFFFF AND MUL OR SWAP1 SSTORE POP PUSH1 0x1 DUP3 ADD PUSH0 SWAP1 SLOAD SWAP1 PUSH2 0x100 EXP SWAP1 DIV PUSH20 0xFFFFFFFFFFFFFFFFFFFFFFFFFFFFFFFFFFFFFFFF AND DUP2 PUSH1 0x1 ADD PUSH0 PUSH2 0x100 EXP DUP2 SLOAD DUP2 PUSH20 0xFFFFFFFFFFFFFFFFFFFFFFFFFFFFFFFFFFFFFFFF MUL NOT AND SWAP1 DUP4 PUSH20 0xFFFFFFFFFFFFFFFFFFFFFFFFFFFFFFFFFFFFFFFF AND MUL OR SWAP1 SSTORE POP PUSH1 0x2 DUP3 ADD SLOAD DUP2 PUSH1 0x2 ADD SSTORE PUSH1 0x3 DUP3 ADD SLOAD DUP2 PUSH1 0x3 ADD SSTORE PUSH1 0x4 DUP3 ADD DUP2 PUSH1 0x4 ADD SWAP1 DUP1 SLOAD PUSH2 0x142F SWAP3 SWAP2 SWAP1 PUSH2 0x1D10 JUMP JUMPDEST POP PUSH1 0x5 DUP3 ADD PUSH0 SWAP1 SLOAD SWAP1 PUSH2 0x100 EXP SWAP1 DIV PUSH1 0xFF AND DUP2 PUSH1 0x5 ADD PUSH0 PUSH2 0x100 EXP DUP2 SLOAD DUP2 PUSH1 0xFF MUL NOT AND SWAP1 DUP4 ISZERO ISZERO MUL OR SWAP1 SSTORE POP SWAP1 POP POP DUP3 PUSH32 0x80D4746828447D65ECEB938C7F9D85FBEB232FE7819D5209ED452B3940F8904B CALLER TIMESTAMP PUSH1 0x40 MLOAD PUSH2 0x1490 SWAP3 SWAP2 SWAP1 PUSH2 0x2874 JUMP JUMPDEST PUSH1 0x40 MLOAD DUP1 SWAP2 SUB SWAP1 LOG2 PUSH1 0x1 SWAP2 POP POP SWAP2 SWAP1 POP JUMP JUMPDEST PUSH2 0x14AB DUP3 PUSH2 0x6A2 JUMP JUMPDEST PUSH2 0x14B4 DUP2 PUSH2 0x177F JUMP JUMPDEST PUSH2 0x14BE DUP4 DUP4 PUSH2 0x1883 JUMP JUMPDEST POP POP POP POP JUMP JUMPDEST PUSH0 DUP1 PUSH1 0x1 PUSH0 DUP5 DUP2 MSTORE PUSH1 0x20 ADD SWAP1 DUP2 MSTORE PUSH1 0x20 ADD PUSH0 KECCAK256 PUSH0 DUP6 PUSH20 0xFFFFFFFFFFFFFFFFFFFFFFFFFFFFFFFFFFFFFFFF AND PUSH20 0xFFFFFFFFFFFFFFFFFFFFFFFFFFFFFFFFFFFFFFFF AND DUP2 MSTORE PUSH1 0x20 ADD SWAP1 DUP2 MSTORE PUSH1 0x20 ADD PUSH0 KECCAK256 PUSH1 0x40 MLOAD DUP1 PUSH1 0xC0 ADD PUSH1 0x40 MSTORE SWAP1 DUP2 PUSH0 DUP3 ADD PUSH0 SWAP1 SLOAD SWAP1 PUSH2 0x100 EXP SWAP1 DIV PUSH20 0xFFFFFFFFFFFFFFFFFFFFFFFFFFFFFFFFFFFFFFFF AND PUSH20 0xFFFFFFFFFFFFFFFFFFFFFFFFFFFFFFFFFFFFFFFF AND PUSH20 0xFFFFFFFFFFFFFFFFFFFFFFFFFFFFFFFFFFFFFFFF AND DUP2 MSTORE PUSH1 0x20 ADD PUSH1 0x1 DUP3 ADD PUSH0 SWAP1 SLOAD SWAP1 PUSH2 0x100 EXP SWAP1 DIV PUSH20 0xFFFFFFFFFFFFFFFFFFFFFFFFFFFFFFFFFFFFFFFF AND PUSH20 0xFFFFFFFFFFFFFFFFFFFFFFFFFFFFFFFFFFFFFFFF AND PUSH20 0xFFFFFFFFFFFFFFFFFFFFFFFFFFFFFFFFFFFFFFFF AND DUP2 MSTORE PUSH1 0x20 ADD PUSH1 0x2 DUP3 ADD SLOAD DUP2 MSTORE PUSH1 0x20 ADD PUSH1 0x3 DUP3 ADD SLOAD DUP2 MSTORE PUSH1 0x20 ADD PUSH1 0x4 DUP3 ADD DUP1 SLOAD DUP1 PUSH1 0x20 MUL PUSH1 0x20 ADD PUSH1 0x40 MLOAD SWAP1 DUP2 ADD PUSH1 0x40 MSTORE DUP1 SWAP3 SWAP2 SWAP1 DUP2 DUP2 MSTORE PUSH1 0x20 ADD PUSH0 SWAP1 JUMPDEST DUP3 DUP3 LT ISZERO PUSH2 0x165D JUMPI DUP4 DUP3 SWAP1 PUSH0 MSTORE PUSH1 0x20 PUSH0 KECCAK256 SWAP1 PUSH1 0x3 MUL ADD PUSH1 0x40 MLOAD DUP1 PUSH1 0x60 ADD PUSH1 0x40 MSTORE SWAP1 DUP2 PUSH0 DUP3 ADD SLOAD DUP2 MSTORE PUSH1 0x20 ADD PUSH1 0x1 DUP3 ADD SLOAD DUP2 MSTORE PUSH1 0x20 ADD PUSH1 0x2 DUP3 ADD PUSH0 SWAP1 SLOAD SWAP1 PUSH2 0x100 EXP SWAP1 DIV PUSH1 0xFF AND PUSH1 0xFF AND PUSH1 0xFF AND DUP2 MSTORE POP POP DUP2 MSTORE PUSH1 0x20 ADD SWAP1 PUSH1 0x1 ADD SWAP1 PUSH2 0x15FE JUMP JUMPDEST POP POP POP POP DUP2 MSTORE PUSH1 0x20 ADD PUSH1 0x5 DUP3 ADD PUSH0 SWAP1 SLOAD SWAP1 PUSH2 0x100 EXP SWAP1 DIV PUSH1 0xFF AND ISZERO ISZERO ISZERO ISZERO DUP2 MSTORE POP POP SWAP1 POP DUP1 PUSH1 0xA0 ADD MLOAD SWAP2 POP POP SWAP3 SWAP2 POP POP JUMP JUMPDEST PUSH1 0x1 PUSH1 0x20 MSTORE DUP2 PUSH0 MSTORE PUSH1 0x40 PUSH0 KECCAK256 PUSH1 0x20 MSTORE DUP1 PUSH0 MSTORE PUSH1 0x40 PUSH0 KECCAK256 PUSH0 SWAP2 POP SWAP2 POP POP DUP1 PUSH0 ADD PUSH0 SWAP1 SLOAD SWAP1 PUSH2 0x100 EXP SWAP1 DIV PUSH20 0xFFFFFFFFFFFFFFFFFFFFFFFFFFFFFFFFFFFFFFFF AND SWAP1 DUP1 PUSH1 0x1 ADD PUSH0 SWAP1 SLOAD SWAP1 PUSH2 0x100 EXP SWAP1 DIV PUSH20 0xFFFFFFFFFFFFFFFFFFFFFFFFFFFFFFFFFFFFFFFF AND SWAP1 DUP1 PUSH1 0x2 ADD SLOAD SWAP1 DUP1 PUSH1 0x3 ADD SLOAD SWAP1 DUP1 PUSH1 0x5 ADD PUSH0 SWAP1 SLOAD SWAP1 PUSH2 0x100 EXP SWAP1 DIV PUSH1 0xFF AND SWAP1 POP DUP6 JUMP JUMPDEST PUSH0 PUSH32 0x1FFC9A700000000000000000000000000000000000000000000000000000000 PUSH28 0xFFFFFFFFFFFFFFFFFFFFFFFFFFFFFFFFFFFFFFFFFFFFFFFFFFFFFFFF NOT AND DUP3 PUSH28 0xFFFFFFFFFFFFFFFFFFFFFFFFFFFFFFFFFFFFFFFFFFFFFFFFFFFFFFFF NOT AND EQ SWAP1 POP SWAP2 SWAP1 POP JUMP JUMPDEST PUSH2 0x1790 DUP2 PUSH2 0x178B PUSH2 0x187C JUMP JUMPDEST PUSH2 0x1CBF JUMP JUMPDEST POP JUMP JUMPDEST PUSH0 PUSH2 0x179E DUP4 DUP4 PUSH2 0xF41 JUMP JUMPDEST PUSH2 0x1872 JUMPI PUSH1 0x1 PUSH0 DUP1 DUP6 DUP2 MSTORE PUSH1 0x20 ADD SWAP1 DUP2 MSTORE PUSH1 0x20 ADD PUSH0 KECCAK256 PUSH0 ADD PUSH0 DUP5 PUSH20 0xFFFFFFFFFFFFFFFFFFFFFFFFFFFFFFFFFFFFFFFF AND PUSH20 0xFFFFFFFFFFFFFFFFFFFFFFFFFFFFFFFFFFFFFFFF AND DUP2 MSTORE PUSH1 0x20 ADD SWAP1 DUP2 MSTORE PUSH1 0x20 ADD PUSH0 KECCAK256 PUSH0 PUSH2 0x100 EXP DUP2 SLOAD DUP2 PUSH1 0xFF MUL NOT AND SWAP1 DUP4 ISZERO ISZERO MUL OR SWAP1 SSTORE POP PUSH2 0x180F PUSH2 0x187C JUMP JUMPDEST PUSH20 0xFFFFFFFFFFFFFFFFFFFFFFFFFFFFFFFFFFFFFFFF AND DUP3 PUSH20 0xFFFFFFFFFFFFFFFFFFFFFFFFFFFFFFFFFFFFFFFF AND DUP5 PUSH32 0x2F8788117E7EFF1D82E926EC794901D17C78024A50270940304540A733656F0D PUSH1 0x40 MLOAD PUSH1 0x40 MLOAD DUP1 SWAP2 SUB SWAP1 LOG4 PUSH1 0x1 SWAP1 POP PUSH2 0x1876 JUMP JUMPDEST PUSH0 SWAP1 POP JUMPDEST SWAP3 SWAP2 POP POP JUMP JUMPDEST PUSH0 CALLER SWAP1 POP SWAP1 JUMP JUMPDEST PUSH0 PUSH2 0x188E DUP4 DUP4 PUSH2 0xF41 JUMP JUMPDEST ISZERO PUSH2 0x1962 JUMPI PUSH0 DUP1 PUSH0 DUP6 DUP2 MSTORE PUSH1 0x20 ADD SWAP1 DUP2 MSTORE PUSH1 0x20 ADD PUSH0 KECCAK256 PUSH0 ADD PUSH0 DUP5 PUSH20 0xFFFFFFFFFFFFFFFFFFFFFFFFFFFFFFFFFFFFFFFF AND PUSH20 0xFFFFFFFFFFFFFFFFFFFFFFFFFFFFFFFFFFFFFFFF AND DUP2 MSTORE PUSH1 0x20 ADD SWAP1 DUP2 MSTORE PUSH1 0x20 ADD PUSH0 KECCAK256 PUSH0 PUSH2 0x100 EXP DUP2 SLOAD DUP2 PUSH1 0xFF MUL NOT AND SWAP1 DUP4 ISZERO ISZERO MUL OR SWAP1 SSTORE POP PUSH2 0x18FF PUSH2 0x187C JUMP JUMPDEST PUSH20 0xFFFFFFFFFFFFFFFFFFFFFFFFFFFFFFFFFFFFFFFF AND DUP3 PUSH20 0xFFFFFFFFFFFFFFFFFFFFFFFFFFFFFFFFFFFFFFFF AND DUP5 PUSH32 0xF6391F5C32D9C69D2A47EA670B442974B53935D1EDC7FD64EB21E047A839171B PUSH1 0x40 MLOAD PUSH1 0x40 MLOAD DUP1 SWAP2 SUB SWAP1 LOG4 PUSH1 0x1 SWAP1 POP PUSH2 0x1966 JUMP JUMPDEST PUSH0 SWAP1 POP JUMPDEST SWAP3 SWAP2 POP POP JUMP JUMPDEST PUSH0 PUSH2 0x1997 PUSH32 0x114E74F6EA3BD819998F78687BFCB11B140DA08E9B7D222FA9C1F1BA1F2AA122 CALLER PUSH2 0xF41 JUMP JUMPDEST PUSH2 0x19D6 JUMPI PUSH1 0x40 MLOAD PUSH32 0x8C379A000000000000000000000000000000000000000000000000000000000 DUP2 MSTORE PUSH1 0x4 ADD PUSH2 0x19CD SWAP1 PUSH2 0x2618 JUMP JUMPDEST PUSH1 0x40 MLOAD DUP1 SWAP2 SUB SWAP1 REVERT JUMPDEST PUSH0 PUSH1 0x1 PUSH0 DUP8 DUP2 MSTORE PUSH1 0x20 ADD SWAP1 DUP2 MSTORE PUSH1 0x20 ADD PUSH0 KECCAK256 PUSH0 DUP7 PUSH20 0xFFFFFFFFFFFFFFFFFFFFFFFFFFFFFFFFFFFFFFFF AND PUSH20 0xFFFFFFFFFFFFFFFFFFFFFFFFFFFFFFFFFFFFFFFF AND DUP2 MSTORE PUSH1 0x20 ADD SWAP1 DUP2 MSTORE PUSH1 0x20 ADD PUSH0 KECCAK256 SWAP1 POP PUSH0 PUSH20 0xFFFFFFFFFFFFFFFFFFFFFFFFFFFFFFFFFFFFFFFF AND DUP2 PUSH1 0x1 ADD PUSH0 SWAP1 SLOAD SWAP1 PUSH2 0x100 EXP SWAP1 DIV PUSH20 0xFFFFFFFFFFFFFFFFFFFFFFFFFFFFFFFFFFFFFFFF AND PUSH20 0xFFFFFFFFFFFFFFFFFFFFFFFFFFFFFFFFFFFFFFFF AND SUB PUSH2 0x1AB6 JUMPI PUSH1 0x40 MLOAD PUSH32 0x8C379A000000000000000000000000000000000000000000000000000000000 DUP2 MSTORE PUSH1 0x4 ADD PUSH2 0x1AAD SWAP1 PUSH2 0x252E JUMP JUMPDEST PUSH1 0x40 MLOAD DUP1 SWAP2 SUB SWAP1 REVERT JUMPDEST PUSH0 DUP5 DUP5 DUP1 DUP1 PUSH1 0x1F ADD PUSH1 0x20 DUP1 SWAP2 DIV MUL PUSH1 0x20 ADD PUSH1 0x40 MLOAD SWAP1 DUP2 ADD PUSH1 0x40 MSTORE DUP1 SWAP4 SWAP3 SWAP2 SWAP1 DUP2 DUP2 MSTORE PUSH1 0x20 ADD DUP4 DUP4 DUP1 DUP3 DUP5 CALLDATACOPY PUSH0 DUP2 DUP5 ADD MSTORE PUSH1 0x1F NOT PUSH1 0x1F DUP3 ADD AND SWAP1 POP DUP1 DUP4 ADD SWAP3 POP POP POP POP POP POP POP SWAP1 POP PUSH0 DUP1 PUSH0 PUSH1 0x20 DUP5 ADD MLOAD SWAP3 POP PUSH1 0x40 DUP5 ADD MLOAD SWAP2 POP PUSH1 0x60 DUP5 ADD MLOAD PUSH0 BYTE SWAP1 POP PUSH0 PUSH1 0x40 MLOAD DUP1 PUSH1 0x60 ADD PUSH1 0x40 MSTORE DUP1 DUP6 DUP2 MSTORE PUSH1 0x20 ADD DUP5 DUP2 MSTORE PUSH1 0x20 ADD DUP4 PUSH1 0xFF AND DUP2 MSTORE POP SWAP1 POP PUSH0 DUP1 JUMPDEST DUP8 PUSH1 0x4 ADD DUP1 SLOAD SWAP1 POP DUP2 PUSH1 0xFF AND LT DUP1 ISZERO PUSH2 0x1B52 JUMPI POP DUP2 ISZERO JUMPDEST ISZERO PUSH2 0x1BD8 JUMPI DUP3 PUSH0 ADD MLOAD DUP9 PUSH1 0x4 ADD DUP3 PUSH1 0xFF AND DUP2 SLOAD DUP2 LT PUSH2 0x1B74 JUMPI PUSH2 0x1B73 PUSH2 0x254C JUMP JUMPDEST JUMPDEST SWAP1 PUSH0 MSTORE PUSH1 0x20 PUSH0 KECCAK256 SWAP1 PUSH1 0x3 MUL ADD PUSH0 ADD SLOAD EQ DUP1 ISZERO PUSH2 0x1BBB JUMPI POP DUP3 PUSH1 0x20 ADD MLOAD DUP9 PUSH1 0x4 ADD DUP3 PUSH1 0xFF AND DUP2 SLOAD DUP2 LT PUSH2 0x1BA9 JUMPI PUSH2 0x1BA8 PUSH2 0x254C JUMP JUMPDEST JUMPDEST SWAP1 PUSH0 MSTORE PUSH1 0x20 PUSH0 KECCAK256 SWAP1 PUSH1 0x3 MUL ADD PUSH1 0x1 ADD SLOAD EQ JUMPDEST ISZERO PUSH2 0x1BC5 JUMPI PUSH1 0x1 SWAP2 POP JUMPDEST DUP1 DUP1 PUSH2 0x1BD0 SWAP1 PUSH2 0x25A6 JUMP JUMPDEST SWAP2 POP POP PUSH2 0x1B3B JUMP JUMPDEST DUP2 ISZERO PUSH2 0x1BEE JUMPI PUSH0 SWAP9 POP POP POP POP POP POP POP POP POP PUSH2 0x1CB7 JUMP JUMPDEST DUP8 PUSH1 0x4 ADD DUP4 SWAP1 DUP1 PUSH1 0x1 DUP2 SLOAD ADD DUP1 DUP3 SSTORE DUP1 SWAP2 POP POP PUSH1 0x1 SWAP1 SUB SWAP1 PUSH0 MSTORE PUSH1 0x20 PUSH0 KECCAK256 SWAP1 PUSH1 0x3 MUL ADD PUSH0 SWAP1 SWAP2 SWAP1 SWAP2 SWAP1 SWAP2 POP PUSH0 DUP3 ADD MLOAD DUP2 PUSH0 ADD SSTORE PUSH1 0x20 DUP3 ADD MLOAD DUP2 PUSH1 0x1 ADD SSTORE PUSH1 0x40 DUP3 ADD MLOAD DUP2 PUSH1 0x2 ADD PUSH0 PUSH2 0x100 EXP DUP2 SLOAD DUP2 PUSH1 0xFF MUL NOT AND SWAP1 DUP4 PUSH1 0xFF AND MUL OR SWAP1 SSTORE POP POP POP PUSH32 0xFFACED37E4D6F4A46DE47C31D21FCCAAD48817A7DA7F346154835A547780ECD DUP9 PUSH0 ADD PUSH0 SWAP1 SLOAD SWAP1 PUSH2 0x100 EXP SWAP1 DIV PUSH20 0xFFFFFFFFFFFFFFFFFFFFFFFFFFFFFFFFFFFFFFFF AND DUP4 DUP6 PUSH1 0x40 MLOAD PUSH2 0x1CA2 SWAP4 SWAP3 SWAP2 SWAP1 PUSH2 0x28F9 JUMP JUMPDEST PUSH1 0x40 MLOAD DUP1 SWAP2 SUB SWAP1 LOG1 PUSH1 0x1 SWAP9 POP POP POP POP POP POP POP POP POP JUMPDEST SWAP5 SWAP4 POP POP POP POP JUMP JUMPDEST PUSH2 0x1CC9 DUP3 DUP3 PUSH2 0xF41 JUMP JUMPDEST PUSH2 0x1D0C JUMPI DUP1 DUP3 PUSH1 0x40 MLOAD PUSH32 0xE2517D3F00000000000000000000000000000000000000000000000000000000 DUP2 MSTORE PUSH1 0x4 ADD PUSH2 0x1D03 SWAP3 SWAP2 SWAP1 PUSH2 0x292E JUMP JUMPDEST PUSH1 0x40 MLOAD DUP1 SWAP2 SUB SWAP1 REVERT JUMPDEST POP POP JUMP JUMPDEST DUP3 DUP1 SLOAD DUP3 DUP3 SSTORE SWAP1 PUSH0 MSTORE PUSH1 0x20 PUSH0 KECCAK256 SWAP1 PUSH1 0x3 MUL DUP2 ADD SWAP3 DUP3 ISZERO PUSH2 0x1D91 JUMPI PUSH0 MSTORE PUSH1 0x20 PUSH0 KECCAK256 SWAP2 PUSH1 0x3 MUL DUP3 ADD JUMPDEST DUP3 DUP2 GT ISZERO PUSH2 0x1D90 JUMPI DUP3 DUP3 PUSH0 DUP3 ADD SLOAD DUP2 PUSH0 ADD SSTORE PUSH1 0x1 DUP3 ADD SLOAD DUP2 PUSH1 0x1 ADD SSTORE PUSH1 0x2 DUP3 ADD PUSH0 SWAP1 SLOAD SWAP1 PUSH2 0x100 EXP SWAP1 DIV PUSH1 0xFF AND DUP2 PUSH1 0x2 ADD PUSH0 PUSH2 0x100 EXP DUP2 SLOAD DUP2 PUSH1 0xFF MUL NOT AND SWAP1 DUP4 PUSH1 0xFF AND MUL OR SWAP1 SSTORE POP POP POP SWAP2 PUSH1 0x3 ADD SWAP2 SWAP1 PUSH1 0x3 ADD SWAP1 PUSH2 0x1D37 JUMP JUMPDEST JUMPDEST POP SWAP1 POP PUSH2 0x1D9E SWAP2 SWAP1 PUSH2 0x1DA2 JUMP JUMPDEST POP SWAP1 JUMP JUMPDEST JUMPDEST DUP1 DUP3 GT ISZERO PUSH2 0x1DD5 JUMPI PUSH0 DUP1 DUP3 ADD PUSH0 SWAP1 SSTORE PUSH1 0x1 DUP3 ADD PUSH0 SWAP1 SSTORE PUSH1 0x2 DUP3 ADD PUSH0 PUSH2 0x100 EXP DUP2 SLOAD SWAP1 PUSH1 0xFF MUL NOT AND SWAP1 SSTORE POP PUSH1 0x3 ADD PUSH2 0x1DA3 JUMP JUMPDEST POP SWAP1 JUMP JUMPDEST PUSH0 PUSH1 0x40 MLOAD SWAP1 POP SWAP1 JUMP JUMPDEST PUSH0 DUP1 REVERT JUMPDEST PUSH0 DUP1 REVERT JUMPDEST PUSH0 PUSH32 0xFFFFFFFF00000000000000000000000000000000000000000000000000000000 DUP3 AND SWAP1 POP SWAP2 SWAP1 POP JUMP JUMPDEST PUSH2 0x1E1E DUP2 PUSH2 0x1DEA JUMP JUMPDEST DUP2 EQ PUSH2 0x1E28 JUMPI PUSH0 DUP1 REVERT JUMPDEST POP JUMP JUMPDEST PUSH0 DUP2 CALLDATALOAD SWAP1 POP PUSH2 0x1E39 DUP2 PUSH2 0x1E15 JUMP JUMPDEST SWAP3 SWAP2 POP POP JUMP JUMPDEST PUSH0 PUSH1 0x20 DUP3 DUP5 SUB SLT ISZERO PUSH2 0x1E54 JUMPI PUSH2 0x1E53 PUSH2 0x1DE2 JUMP JUMPDEST JUMPDEST PUSH0 PUSH2 0x1E61 DUP5 DUP3 DUP6 ADD PUSH2 0x1E2B JUMP JUMPDEST SWAP2 POP POP SWAP3 SWAP2 POP POP JUMP JUMPDEST PUSH0 DUP2 ISZERO ISZERO SWAP1 POP SWAP2 SWAP1 POP JUMP JUMPDEST PUSH2 0x1E7E DUP2 PUSH2 0x1E6A JUMP JUMPDEST DUP3 MSTORE POP POP JUMP JUMPDEST PUSH0 PUSH1 0x20 DUP3 ADD SWAP1 POP PUSH2 0x1E97 PUSH0 DUP4 ADD DUP5 PUSH2 0x1E75 JUMP JUMPDEST SWAP3 SWAP2 POP POP JUMP JUMPDEST PUSH0 DUP2 SWAP1 POP SWAP2 SWAP1 POP JUMP JUMPDEST PUSH2 0x1EAF DUP2 PUSH2 0x1E9D JUMP JUMPDEST DUP2 EQ PUSH2 0x1EB9 JUMPI PUSH0 DUP1 REVERT JUMPDEST POP JUMP JUMPDEST PUSH0 DUP2 CALLDATALOAD SWAP1 POP PUSH2 0x1ECA DUP2 PUSH2 0x1EA6 JUMP JUMPDEST SWAP3 SWAP2 POP POP JUMP JUMPDEST PUSH0 PUSH20 0xFFFFFFFFFFFFFFFFFFFFFFFFFFFFFFFFFFFFFFFF DUP3 AND SWAP1 POP SWAP2 SWAP1 POP JUMP JUMPDEST PUSH0 PUSH2 0x1EF9 DUP3 PUSH2 0x1ED0 JUMP JUMPDEST SWAP1 POP SWAP2 SWAP1 POP JUMP JUMPDEST PUSH2 0x1F09 DUP2 PUSH2 0x1EEF JUMP JUMPDEST DUP2 EQ PUSH2 0x1F13 JUMPI PUSH0 DUP1 REVERT JUMPDEST POP JUMP JUMPDEST PUSH0 DUP2 CALLDATALOAD SWAP1 POP PUSH2 0x1F24 DUP2 PUSH2 0x1F00 JUMP JUMPDEST SWAP3 SWAP2 POP POP JUMP JUMPDEST PUSH0 DUP1 PUSH1 0x40 DUP4 DUP6 SUB SLT ISZERO PUSH2 0x1F40 JUMPI PUSH2 0x1F3F PUSH2 0x1DE2 JUMP JUMPDEST JUMPDEST PUSH0 PUSH2 0x1F4D DUP6 DUP3 DUP7 ADD PUSH2 0x1EBC JUMP JUMPDEST SWAP3 POP POP PUSH1 0x20 PUSH2 0x1F5E DUP6 DUP3 DUP7 ADD PUSH2 0x1F16 JUMP JUMPDEST SWAP2 POP POP SWAP3 POP SWAP3 SWAP1 POP JUMP JUMPDEST PUSH0 PUSH1 0xFF DUP3 AND SWAP1 POP SWAP2 SWAP1 POP JUMP JUMPDEST PUSH2 0x1F7D DUP2 PUSH2 0x1F68 JUMP JUMPDEST DUP3 MSTORE POP POP JUMP JUMPDEST PUSH0 PUSH1 0x20 DUP3 ADD SWAP1 POP PUSH2 0x1F96 PUSH0 DUP4 ADD DUP5 PUSH2 0x1F74 JUMP JUMPDEST SWAP3 SWAP2 POP POP JUMP JUMPDEST PUSH0 PUSH1 0x20 DUP3 DUP5 SUB SLT ISZERO PUSH2 0x1FB1 JUMPI PUSH2 0x1FB0 PUSH2 0x1DE2 JUMP JUMPDEST JUMPDEST PUSH0 PUSH2 0x1FBE DUP5 DUP3 DUP6 ADD PUSH2 0x1EBC JUMP JUMPDEST SWAP2 POP POP SWAP3 SWAP2 POP POP JUMP JUMPDEST PUSH2 0x1FD0 DUP2 PUSH2 0x1E9D JUMP JUMPDEST DUP3 MSTORE POP POP JUMP JUMPDEST PUSH0 PUSH1 0x20 DUP3 ADD SWAP1 POP PUSH2 0x1FE9 PUSH0 DUP4 ADD DUP5 PUSH2 0x1FC7 JUMP JUMPDEST SWAP3 SWAP2 POP POP JUMP JUMPDEST PUSH0 DUP1 REVERT JUMPDEST PUSH0 DUP1 REVERT JUMPDEST PUSH0 DUP1 REVERT JUMPDEST PUSH0 DUP1 DUP4 PUSH1 0x1F DUP5 ADD SLT PUSH2 0x2010 JUMPI PUSH2 0x200F PUSH2 0x1FEF JUMP JUMPDEST JUMPDEST DUP3 CALLDATALOAD SWAP1 POP PUSH8 0xFFFFFFFFFFFFFFFF DUP2 GT ISZERO PUSH2 0x202D JUMPI PUSH2 0x202C PUSH2 0x1FF3 JUMP JUMPDEST JUMPDEST PUSH1 0x20 DUP4 ADD SWAP2 POP DUP4 PUSH1 0x1 DUP3 MUL DUP4 ADD GT ISZERO PUSH2 0x2049 JUMPI PUSH2 0x2048 PUSH2 0x1FF7 JUMP JUMPDEST JUMPDEST SWAP3 POP SWAP3 SWAP1 POP JUMP JUMPDEST PUSH0 DUP1 PUSH0 DUP1 PUSH1 0x60 DUP6 DUP8 SUB SLT ISZERO PUSH2 0x2068 JUMPI PUSH2 0x2067 PUSH2 0x1DE2 JUMP JUMPDEST JUMPDEST PUSH0 PUSH2 0x2075 DUP8 DUP3 DUP9 ADD PUSH2 0x1EBC JUMP JUMPDEST SWAP5 POP POP PUSH1 0x20 PUSH2 0x2086 DUP8 DUP3 DUP9 ADD PUSH2 0x1F16 JUMP JUMPDEST SWAP4 POP POP PUSH1 0x40 DUP6 ADD CALLDATALOAD PUSH8 0xFFFFFFFFFFFFFFFF DUP2 GT ISZERO PUSH2 0x20A7 JUMPI PUSH2 0x20A6 PUSH2 0x1DE6 JUMP JUMPDEST JUMPDEST PUSH2 0x20B3 DUP8 DUP3 DUP9 ADD PUSH2 0x1FFB JUMP JUMPDEST SWAP3 POP SWAP3 POP POP SWAP3 SWAP6 SWAP2 SWAP5 POP SWAP3 POP JUMP JUMPDEST PUSH0 DUP1 REVERT JUMPDEST PUSH0 PUSH1 0x1F NOT PUSH1 0x1F DUP4 ADD AND SWAP1 POP SWAP2 SWAP1 POP JUMP JUMPDEST PUSH32 0x4E487B7100000000000000000000000000000000000000000000000000000000 PUSH0 MSTORE PUSH1 0x41 PUSH1 0x4 MSTORE PUSH1 0x24 PUSH0 REVERT JUMPDEST PUSH2 0x210B DUP3 PUSH2 0x20C5 JUMP JUMPDEST DUP2 ADD DUP2 DUP2 LT PUSH8 0xFFFFFFFFFFFFFFFF DUP3 GT OR ISZERO PUSH2 0x212A JUMPI PUSH2 0x2129 PUSH2 0x20D5 JUMP JUMPDEST JUMPDEST DUP1 PUSH1 0x40 MSTORE POP POP POP JUMP JUMPDEST PUSH0 PUSH2 0x213C PUSH2 0x1DD9 JUMP JUMPDEST SWAP1 POP PUSH2 0x2148 DUP3 DUP3 PUSH2 0x2102 JUMP JUMPDEST SWAP2 SWAP1 POP JUMP JUMPDEST PUSH0 PUSH8 0xFFFFFFFFFFFFFFFF DUP3 GT ISZERO PUSH2 0x2167 JUMPI PUSH2 0x2166 PUSH2 0x20D5 JUMP JUMPDEST JUMPDEST PUSH2 0x2170 DUP3 PUSH2 0x20C5 JUMP JUMPDEST SWAP1 POP PUSH1 0x20 DUP2 ADD SWAP1 POP SWAP2 SWAP1 POP JUMP JUMPDEST DUP3 DUP2 DUP4 CALLDATACOPY PUSH0 DUP4 DUP4 ADD MSTORE POP POP POP JUMP JUMPDEST PUSH0 PUSH2 0x219D PUSH2 0x2198 DUP5 PUSH2 0x214D JUMP JUMPDEST PUSH2 0x2133 JUMP JUMPDEST SWAP1 POP DUP3 DUP2 MSTORE PUSH1 0x20 DUP2 ADD DUP5 DUP5 DUP5 ADD GT ISZERO PUSH2 0x21B9 JUMPI PUSH2 0x21B8 PUSH2 0x20C1 JUMP JUMPDEST JUMPDEST PUSH2 0x21C4 DUP5 DUP3 DUP6 PUSH2 0x217D JUMP JUMPDEST POP SWAP4 SWAP3 POP POP POP JUMP JUMPDEST PUSH0 DUP3 PUSH1 0x1F DUP4 ADD SLT PUSH2 0x21E0 JUMPI PUSH2 0x21DF PUSH2 0x1FEF JUMP JUMPDEST JUMPDEST DUP2 CALLDATALOAD PUSH2 0x21F0 DUP5 DUP3 PUSH1 0x20 DUP7 ADD PUSH2 0x218B JUMP JUMPDEST SWAP2 POP POP SWAP3 SWAP2 POP POP JUMP JUMPDEST PUSH0 DUP1 PUSH0 PUSH1 0x60 DUP5 DUP7 SUB SLT ISZERO PUSH2 0x2210 JUMPI PUSH2 0x220F PUSH2 0x1DE2 JUMP JUMPDEST JUMPDEST PUSH0 PUSH2 0x221D DUP7 DUP3 DUP8 ADD PUSH2 0x1EBC JUMP JUMPDEST SWAP4 POP POP PUSH1 0x20 PUSH2 0x222E DUP7 DUP3 DUP8 ADD PUSH2 0x1F16 JUMP JUMPDEST SWAP3 POP POP PUSH1 0x40 DUP5 ADD CALLDATALOAD PUSH8 0xFFFFFFFFFFFFFFFF DUP2 GT ISZERO PUSH2 0x224F JUMPI PUSH2 0x224E PUSH2 0x1DE6 JUMP JUMPDEST JUMPDEST PUSH2 0x225B DUP7 DUP3 DUP8 ADD PUSH2 0x21CC JUMP JUMPDEST SWAP2 POP POP SWAP3 POP SWAP3 POP SWAP3 JUMP JUMPDEST PUSH0 DUP2 SWAP1 POP SWAP2 SWAP1 POP JUMP JUMPDEST PUSH2 0x2277 DUP2 PUSH2 0x2265 JUMP JUMPDEST DUP2 EQ PUSH2 0x2281 JUMPI PUSH0 DUP1 REVERT JUMPDEST POP JUMP JUMPDEST PUSH0 DUP2 CALLDATALOAD SWAP1 POP PUSH2 0x2292 DUP2 PUSH2 0x226E JUMP JUMPDEST SWAP3 SWAP2 POP POP JUMP JUMPDEST PUSH0 DUP1 PUSH0 DUP1 PUSH0 DUP1 PUSH0 PUSH1 0xC0 DUP9 DUP11 SUB SLT ISZERO PUSH2 0x22B3 JUMPI PUSH2 0x22B2 PUSH2 0x1DE2 JUMP JUMPDEST JUMPDEST PUSH0 PUSH2 0x22C0 DUP11 DUP3 DUP12 ADD PUSH2 0x1F16 JUMP JUMPDEST SWAP8 POP POP PUSH1 0x20 PUSH2 0x22D1 DUP11 DUP3 DUP12 ADD PUSH2 0x1F16 JUMP JUMPDEST SWAP7 POP POP PUSH1 0x40 PUSH2 0x22E2 DUP11 DUP3 DUP12 ADD PUSH2 0x1EBC JUMP JUMPDEST SWAP6 POP POP PUSH1 0x60 PUSH2 0x22F3 DUP11 DUP3 DUP12 ADD PUSH2 0x2284 JUMP JUMPDEST SWAP5 POP POP PUSH1 0x80 PUSH2 0x2304 DUP11 DUP3 DUP12 ADD PUSH2 0x2284 JUMP JUMPDEST SWAP4 POP POP PUSH1 0xA0 DUP9 ADD CALLDATALOAD PUSH8 0xFFFFFFFFFFFFFFFF DUP2 GT ISZERO PUSH2 0x2325 JUMPI PUSH2 0x2324 PUSH2 0x1DE6 JUMP JUMPDEST JUMPDEST PUSH2 0x2331 DUP11 DUP3 DUP12 ADD PUSH2 0x1FFB JUMP JUMPDEST SWAP3 POP SWAP3 POP POP SWAP3 SWAP6 SWAP9 SWAP2 SWAP5 SWAP8 POP SWAP3 SWAP6 POP JUMP JUMPDEST PUSH0 DUP1 PUSH1 0x40 DUP4 DUP6 SUB SLT ISZERO PUSH2 0x2358 JUMPI PUSH2 0x2357 PUSH2 0x1DE2 JUMP JUMPDEST JUMPDEST PUSH0 PUSH2 0x2365 DUP6 DUP3 DUP7 ADD PUSH2 0x1F16 JUMP JUMPDEST SWAP3 POP POP PUSH1 0x20 PUSH2 0x2376 DUP6 DUP3 DUP7 ADD PUSH2 0x1F16 JUMP JUMPDEST SWAP2 POP POP SWAP3 POP SWAP3 SWAP1 POP JUMP JUMPDEST PUSH2 0x2389 DUP2 PUSH2 0x1F68 JUMP JUMPDEST DUP2 EQ PUSH2 0x2393 JUMPI PUSH0 DUP1 REVERT JUMPDEST POP JUMP JUMPDEST PUSH0 DUP2 CALLDATALOAD SWAP1 POP PUSH2 0x23A4 DUP2 PUSH2 0x2380 JUMP JUMPDEST SWAP3 SWAP2 POP POP JUMP JUMPDEST PUSH0 DUP1 PUSH0 DUP1 PUSH1 0x80 DUP6 DUP8 SUB SLT ISZERO PUSH2 0x23C2 JUMPI PUSH2 0x23C1 PUSH2 0x1DE2 JUMP JUMPDEST JUMPDEST PUSH0 PUSH2 0x23CF DUP8 DUP3 DUP9 ADD PUSH2 0x1EBC JUMP JUMPDEST SWAP5 POP POP PUSH1 0x20 PUSH2 0x23E0 DUP8 DUP3 DUP9 ADD PUSH2 0x2396 JUMP JUMPDEST SWAP4 POP POP PUSH1 0x40 PUSH2 0x23F1 DUP8 DUP3 DUP9 ADD PUSH2 0x1EBC JUMP JUMPDEST SWAP3 POP POP PUSH1 0x60 PUSH2 0x2402 DUP8 DUP3 DUP9 ADD PUSH2 0x1EBC JUMP JUMPDEST SWAP2 POP POP SWAP3 SWAP6 SWAP2 SWAP5 POP SWAP3 POP JUMP JUMPDEST PUSH2 0x2417 DUP2 PUSH2 0x1EEF JUMP JUMPDEST DUP3 MSTORE POP POP JUMP JUMPDEST PUSH0 PUSH1 0x20 DUP3 ADD SWAP1 POP PUSH2 0x2430 PUSH0 DUP4 ADD DUP5 PUSH2 0x240E JUMP JUMPDEST SWAP3 SWAP2 POP POP JUMP JUMPDEST PUSH0 DUP1 PUSH1 0x40 DUP4 DUP6 SUB SLT ISZERO PUSH2 0x244C JUMPI PUSH2 0x244B PUSH2 0x1DE2 JUMP JUMPDEST JUMPDEST PUSH0 PUSH2 0x2459 DUP6 DUP3 DUP7 ADD PUSH2 0x1F16 JUMP JUMPDEST SWAP3 POP POP PUSH1 0x20 PUSH2 0x246A DUP6 DUP3 DUP7 ADD PUSH2 0x1EBC JUMP JUMPDEST SWAP2 POP POP SWAP3 POP SWAP3 SWAP1 POP JUMP JUMPDEST PUSH2 0x247D DUP2 PUSH2 0x2265 JUMP JUMPDEST DUP3 MSTORE POP POP JUMP JUMPDEST PUSH0 PUSH1 0xA0 DUP3 ADD SWAP1 POP PUSH2 0x2496 PUSH0 DUP4 ADD DUP9 PUSH2 0x240E JUMP JUMPDEST PUSH2 0x24A3 PUSH1 0x20 DUP4 ADD DUP8 PUSH2 0x240E JUMP JUMPDEST PUSH2 0x24B0 PUSH1 0x40 DUP4 ADD DUP7 PUSH2 0x2474 JUMP JUMPDEST PUSH2 0x24BD PUSH1 0x60 DUP4 ADD DUP6 PUSH2 0x2474 JUMP JUMPDEST PUSH2 0x24CA PUSH1 0x80 DUP4 ADD DUP5 PUSH2 0x1E75 JUMP JUMPDEST SWAP7 SWAP6 POP POP POP POP POP POP JUMP JUMPDEST PUSH0 DUP3 DUP3 MSTORE PUSH1 0x20 DUP3 ADD SWAP1 POP SWAP3 SWAP2 POP POP JUMP JUMPDEST PUSH32 0x43726564656E7469616C20646F65736E27742065786973747300000000000000 PUSH0 DUP3 ADD MSTORE POP JUMP JUMPDEST PUSH0 PUSH2 0x2518 PUSH1 0x19 DUP4 PUSH2 0x24D4 JUMP JUMPDEST SWAP2 POP PUSH2 0x2523 DUP3 PUSH2 0x24E4 JUMP JUMPDEST PUSH1 0x20 DUP3 ADD SWAP1 POP SWAP2 SWAP1 POP JUMP JUMPDEST PUSH0 PUSH1 0x20 DUP3 ADD SWAP1 POP DUP2 DUP2 SUB PUSH0 DUP4 ADD MSTORE PUSH2 0x2545 DUP2 PUSH2 0x250C JUMP JUMPDEST SWAP1 POP SWAP2 SWAP1 POP JUMP JUMPDEST PUSH32 0x4E487B7100000000000000000000000000000000000000000000000000000000 PUSH0 MSTORE PUSH1 0x32 PUSH1 0x4 MSTORE PUSH1 0x24 PUSH0 REVERT JUMPDEST PUSH32 0x4E487B7100000000000000000000000000000000000000000000000000000000 PUSH0 MSTORE PUSH1 0x11 PUSH1 0x4 MSTORE PUSH1 0x24 PUSH0 REVERT JUMPDEST PUSH0 PUSH2 0x25B0 DUP3 PUSH2 0x1F68 JUMP JUMPDEST SWAP2 POP PUSH1 0xFF DUP3 SUB PUSH2 0x25C3 JUMPI PUSH2 0x25C2 PUSH2 0x2579 JUMP JUMPDEST JUMPDEST PUSH1 0x1 DUP3 ADD SWAP1 POP SWAP2 SWAP1 POP JUMP JUMPDEST PUSH32 0x43616C6C6572206973206E6F7420612069737375657220320000000000000000 PUSH0 DUP3 ADD MSTORE POP JUMP JUMPDEST PUSH0 PUSH2 0x2602 PUSH1 0x18 DUP4 PUSH2 0x24D4 JUMP JUMPDEST SWAP2 POP PUSH2 0x260D DUP3 PUSH2 0x25CE JUMP JUMPDEST PUSH1 0x20 DUP3 ADD SWAP1 POP SWAP2 SWAP1 POP JUMP JUMPDEST PUSH0 PUSH1 0x20 DUP3 ADD SWAP1 POP DUP2 DUP2 SUB PUSH0 DUP4 ADD MSTORE PUSH2 0x262F DUP2 PUSH2 0x25F6 JUMP JUMPDEST SWAP1 POP SWAP2 SWAP1 POP JUMP JUMPDEST PUSH32 0x43726564656E7469616C20616C72656164792065786973747300000000000000 PUSH0 DUP3 ADD MSTORE POP JUMP JUMPDEST PUSH0 PUSH2 0x266A PUSH1 0x19 DUP4 PUSH2 0x24D4 JUMP JUMPDEST SWAP2 POP PUSH2 0x2675 DUP3 PUSH2 0x2636 JUMP JUMPDEST PUSH1 0x20 DUP3 ADD SWAP1 POP SWAP2 SWAP1 POP JUMP JUMPDEST PUSH0 PUSH1 0x20 DUP3 ADD SWAP1 POP DUP2 DUP2 SUB PUSH0 DUP4 ADD MSTORE PUSH2 0x2697 DUP2 PUSH2 0x265E JUMP JUMPDEST SWAP1 POP SWAP2 SWAP1 POP JUMP JUMPDEST PUSH32 0x496D706F7369626C6520746F20636F6D706C65746520746865207369676E6174 PUSH0 DUP3 ADD MSTORE PUSH32 0x7572650000000000000000000000000000000000000000000000000000000000 PUSH1 0x20 DUP3 ADD MSTORE POP JUMP JUMPDEST PUSH0 PUSH2 0x26F8 PUSH1 0x23 DUP4 PUSH2 0x24D4 JUMP JUMPDEST SWAP2 POP PUSH2 0x2703 DUP3 PUSH2 0x269E JUMP JUMPDEST PUSH1 0x40 DUP3 ADD SWAP1 POP SWAP2 SWAP1 POP JUMP JUMPDEST PUSH0 PUSH1 0x20 DUP3 ADD SWAP1 POP DUP2 DUP2 SUB PUSH0 DUP4 ADD MSTORE PUSH2 0x2725 DUP2 PUSH2 0x26EC JUMP JUMPDEST SWAP1 POP SWAP2 SWAP1 POP JUMP JUMPDEST PUSH0 PUSH1 0x60 DUP3 ADD SWAP1 POP PUSH2 0x273F PUSH0 DUP4 ADD DUP7 PUSH2 0x240E JUMP JUMPDEST PUSH2 0x274C PUSH1 0x20 DUP4 ADD DUP6 PUSH2 0x240E JUMP JUMPDEST PUSH2 0x2759 PUSH1 0x40 DUP4 ADD DUP5 PUSH2 0x2474 JUMP JUMPDEST SWAP5 SWAP4 POP POP POP POP JUMP JUMPDEST PUSH0 PUSH1 0x80 DUP3 ADD SWAP1 POP PUSH2 0x2774 PUSH0 DUP4 ADD DUP8 PUSH2 0x1FC7 JUMP JUMPDEST PUSH2 0x2781 PUSH1 0x20 DUP4 ADD DUP7 PUSH2 0x1F74 JUMP JUMPDEST PUSH2 0x278E PUSH1 0x40 DUP4 ADD DUP6 PUSH2 0x1FC7 JUMP JUMPDEST PUSH2 0x279B PUSH1 0x60 DUP4 ADD DUP5 PUSH2 0x1FC7 JUMP JUMPDEST SWAP6 SWAP5 POP POP POP POP POP JUMP JUMPDEST PUSH32 0x63726564656E7469616C206861736820646F65736E2774206578697374000000 PUSH0 DUP3 ADD MSTORE POP JUMP JUMPDEST PUSH0 PUSH2 0x27D8 PUSH1 0x1D DUP4 PUSH2 0x24D4 JUMP JUMPDEST SWAP2 POP PUSH2 0x27E3 DUP3 PUSH2 0x27A4 JUMP JUMPDEST PUSH1 0x20 DUP3 ADD SWAP1 POP SWAP2 SWAP1 POP JUMP JUMPDEST PUSH0 PUSH1 0x20 DUP3 ADD SWAP1 POP DUP2 DUP2 SUB PUSH0 DUP4 ADD MSTORE PUSH2 0x2805 DUP2 PUSH2 0x27CC JUMP JUMPDEST SWAP1 POP SWAP2 SWAP1 POP JUMP JUMPDEST PUSH32 0x43726564656E7469616C20697320616C7265616479207265766F6B6564000000 PUSH0 DUP3 ADD MSTORE POP JUMP JUMPDEST PUSH0 PUSH2 0x2840 PUSH1 0x1D DUP4 PUSH2 0x24D4 JUMP JUMPDEST SWAP2 POP PUSH2 0x284B DUP3 PUSH2 0x280C JUMP JUMPDEST PUSH1 0x20 DUP3 ADD SWAP1 POP SWAP2 SWAP1 POP JUMP JUMPDEST PUSH0 PUSH1 0x20 DUP3 ADD SWAP1 POP DUP2 DUP2 SUB PUSH0 DUP4 ADD MSTORE PUSH2 0x286D DUP2 PUSH2 0x2834 JUMP JUMPDEST SWAP1 POP SWAP2 SWAP1 POP JUMP JUMPDEST PUSH0 PUSH1 0x40 DUP3 ADD SWAP1 POP PUSH2 0x2887 PUSH0 DUP4 ADD DUP6 PUSH2 0x240E JUMP JUMPDEST PUSH2 0x2894 PUSH1 0x20 DUP4 ADD DUP5 PUSH2 0x2474 JUMP JUMPDEST SWAP4 SWAP3 POP POP POP JUMP JUMPDEST PUSH2 0x28A4 DUP2 PUSH2 0x1E9D JUMP JUMPDEST DUP3 MSTORE POP POP JUMP JUMPDEST PUSH2 0x28B3 DUP2 PUSH2 0x1F68 JUMP JUMPDEST DUP3 MSTORE POP POP JUMP JUMPDEST PUSH1 0x60 DUP3 ADD PUSH0 DUP3 ADD MLOAD PUSH2 0x28CD PUSH0 DUP6 ADD DUP3 PUSH2 0x289B JUMP JUMPDEST POP PUSH1 0x20 DUP3 ADD MLOAD PUSH2 0x28E0 PUSH1 0x20 DUP6 ADD DUP3 PUSH2 0x289B JUMP JUMPDEST POP PUSH1 0x40 DUP3 ADD MLOAD PUSH2 0x28F3 PUSH1 0x40 DUP6 ADD DUP3 PUSH2 0x28AA JUMP JUMPDEST POP POP POP POP JUMP JUMPDEST PUSH0 PUSH1 0xA0 DUP3 ADD SWAP1 POP PUSH2 0x290C PUSH0 DUP4 ADD DUP7 PUSH2 0x240E JUMP JUMPDEST PUSH2 0x2919 PUSH1 0x20 DUP4 ADD DUP6 PUSH2 0x1E75 JUMP JUMPDEST PUSH2 0x2926 PUSH1 0x40 DUP4 ADD DUP5 PUSH2 0x28B9 JUMP JUMPDEST SWAP5 SWAP4 POP POP POP POP JUMP JUMPDEST PUSH0 PUSH1 0x40 DUP3 ADD SWAP1 POP PUSH2 0x2941 PUSH0 DUP4 ADD DUP6 PUSH2 0x240E JUMP JUMPDEST PUSH2 0x294E PUSH1 0x20 DUP4 ADD DUP5 PUSH2 0x1FC7 JUMP JUMPDEST SWAP4 SWAP3 POP POP POP JUMP INVALID LOG2 PUSH5 0x6970667358 0x22 SLT KECCAK256 PUSH8 0xF8402193531FCA10 PUSH1 0xF5 0xD0 PUSH10 0xFA16F4EA254A0A9B387E 0xB6 PUSH4 0x2D1CE734 0xC7 PUSH15 0xA564736F6C63430008150033000000 "
				},
				"gasEstimates": {
					"creation": {
						"codeDepositCost": "2127000",
						"executionCost": "infinite",
						"totalCost": "infinite"
					},
					"external": {
						"DEFAULT_ADMIN_ROLE()": "352",
						"ISSUER_ROLE()": "436",
						"credentials(bytes32,address)": "infinite",
						"exist(bytes32,address)": "infinite",
						"getIssuer(bytes32,uint8,bytes32,bytes32)": "infinite",
						"getRoleAdmin(bytes32)": "infinite",
						"getSigners(bytes32,address)": "infinite",
						"grantRole(bytes32,address)": "infinite",
						"hasRole(bytes32,address)": "3189",
						"isSigner(bytes32,address,bytes)": "infinite",
						"registerCredential(address,address,bytes32,uint256,uint256,bytes)": "infinite",
						"registerSignature(bytes32,address,bytes)": "infinite",
						"renounceRole(bytes32,address)": "infinite",
						"revokeCredential(bytes32)": "infinite",
						"revokeRole(bytes32,address)": "infinite",
						"status(address,bytes32)": "infinite",
						"supportsInterface(bytes4)": "741",
						"verifyIssuer(address,address)": "infinite"
					},
					"internal": {
						"_registerSignature(bytes32,address,bytes calldata)": "infinite"
					}
				},
				"methodIdentifiers": {
					"DEFAULT_ADMIN_ROLE()": "a217fddf",
					"ISSUER_ROLE()": "82aefa24",
					"credentials(bytes32,address)": "f078e5db",
					"exist(bytes32,address)": "957839d9",
					"getIssuer(bytes32,uint8,bytes32,bytes32)": "9052944e",
					"getRoleAdmin(bytes32)": "248a9ca3",
					"getSigners(bytes32,address)": "06b15df4",
					"grantRole(bytes32,address)": "2f2ff15d",
					"hasRole(bytes32,address)": "91d14854",
					"isSigner(bytes32,address,bytes)": "701ee463",
					"registerCredential(address,address,bytes32,uint256,uint256,bytes)": "75130747",
					"registerSignature(bytes32,address,bytes)": "448684ac",
					"renounceRole(bytes32,address)": "36568abe",
					"revokeCredential(bytes32)": "ca6eec78",
					"revokeRole(bytes32,address)": "d547741f",
					"status(address,bytes32)": "d6d76ed5",
					"supportsInterface(bytes4)": "01ffc9a7",
					"verifyIssuer(address,address)": "87cf356e"
				}
			},
			"storageLayout": {
				"storage": [
					{
						"astId": 26,
						"contract": "contracts/VC/CredentialRegistry.sol:CredentialRegistry",
						"label": "_roles",
						"offset": 0,
						"slot": "0",
						"type": "t_mapping(t_bytes32,t_struct(RoleData)21_storage)"
					},
					{
						"astId": 715,
						"contract": "contracts/VC/CredentialRegistry.sol:CredentialRegistry",
						"label": "credentials",
						"offset": 0,
						"slot": "1",
						"type": "t_mapping(t_bytes32,t_mapping(t_address,t_struct(CredentialMetadata)1299_storage))"
					}
				],
				"types": {
					"t_address": {
						"encoding": "inplace",
						"label": "address",
						"numberOfBytes": "20"
					},
					"t_array(t_struct(Signature)1284_storage)dyn_storage": {
						"base": "t_struct(Signature)1284_storage",
						"encoding": "dynamic_array",
						"label": "struct ICredentialRegistry.Signature[]",
						"numberOfBytes": "32"
					},
					"t_bool": {
						"encoding": "inplace",
						"label": "bool",
						"numberOfBytes": "1"
					},
					"t_bytes32": {
						"encoding": "inplace",
						"label": "bytes32",
						"numberOfBytes": "32"
					},
					"t_mapping(t_address,t_bool)": {
						"encoding": "mapping",
						"key": "t_address",
						"label": "mapping(address => bool)",
						"numberOfBytes": "32",
						"value": "t_bool"
					},
					"t_mapping(t_address,t_struct(CredentialMetadata)1299_storage)": {
						"encoding": "mapping",
						"key": "t_address",
						"label": "mapping(address => struct ICredentialRegistry.CredentialMetadata)",
						"numberOfBytes": "32",
						"value": "t_struct(CredentialMetadata)1299_storage"
					},
					"t_mapping(t_bytes32,t_mapping(t_address,t_struct(CredentialMetadata)1299_storage))": {
						"encoding": "mapping",
						"key": "t_bytes32",
						"label": "mapping(bytes32 => mapping(address => struct ICredentialRegistry.CredentialMetadata))",
						"numberOfBytes": "32",
						"value": "t_mapping(t_address,t_struct(CredentialMetadata)1299_storage)"
					},
					"t_mapping(t_bytes32,t_struct(RoleData)21_storage)": {
						"encoding": "mapping",
						"key": "t_bytes32",
						"label": "mapping(bytes32 => struct AccessControl.RoleData)",
						"numberOfBytes": "32",
						"value": "t_struct(RoleData)21_storage"
					},
					"t_struct(CredentialMetadata)1299_storage": {
						"encoding": "inplace",
						"label": "struct ICredentialRegistry.CredentialMetadata",
						"members": [
							{
								"astId": 1286,
								"contract": "contracts/VC/CredentialRegistry.sol:CredentialRegistry",
								"label": "issuer",
								"offset": 0,
								"slot": "0",
								"type": "t_address"
							},
							{
								"astId": 1288,
								"contract": "contracts/VC/CredentialRegistry.sol:CredentialRegistry",
								"label": "subject",
								"offset": 0,
								"slot": "1",
								"type": "t_address"
							},
							{
								"astId": 1290,
								"contract": "contracts/VC/CredentialRegistry.sol:CredentialRegistry",
								"label": "validFrom",
								"offset": 0,
								"slot": "2",
								"type": "t_uint256"
							},
							{
								"astId": 1292,
								"contract": "contracts/VC/CredentialRegistry.sol:CredentialRegistry",
								"label": "validTo",
								"offset": 0,
								"slot": "3",
								"type": "t_uint256"
							},
							{
								"astId": 1296,
								"contract": "contracts/VC/CredentialRegistry.sol:CredentialRegistry",
								"label": "signatures",
								"offset": 0,
								"slot": "4",
								"type": "t_array(t_struct(Signature)1284_storage)dyn_storage"
							},
							{
								"astId": 1298,
								"contract": "contracts/VC/CredentialRegistry.sol:CredentialRegistry",
								"label": "status",
								"offset": 0,
								"slot": "5",
								"type": "t_bool"
							}
						],
						"numberOfBytes": "192"
					},
					"t_struct(RoleData)21_storage": {
						"encoding": "inplace",
						"label": "struct AccessControl.RoleData",
						"members": [
							{
								"astId": 18,
								"contract": "contracts/VC/CredentialRegistry.sol:CredentialRegistry",
								"label": "hasRole",
								"offset": 0,
								"slot": "0",
								"type": "t_mapping(t_address,t_bool)"
							},
							{
								"astId": 20,
								"contract": "contracts/VC/CredentialRegistry.sol:CredentialRegistry",
								"label": "adminRole",
								"offset": 0,
								"slot": "1",
								"type": "t_bytes32"
							}
						],
						"numberOfBytes": "64"
					},
					"t_struct(Signature)1284_storage": {
						"encoding": "inplace",
						"label": "struct ICredentialRegistry.Signature",
						"members": [
							{
								"astId": 1279,
								"contract": "contracts/VC/CredentialRegistry.sol:CredentialRegistry",
								"label": "r",
								"offset": 0,
								"slot": "0",
								"type": "t_bytes32"
							},
							{
								"astId": 1281,
								"contract": "contracts/VC/CredentialRegistry.sol:CredentialRegistry",
								"label": "s",
								"offset": 0,
								"slot": "1",
								"type": "t_bytes32"
							},
							{
								"astId": 1283,
								"contract": "contracts/VC/CredentialRegistry.sol:CredentialRegistry",
								"label": "v",
								"offset": 0,
								"slot": "2",
								"type": "t_uint8"
							}
						],
						"numberOfBytes": "96"
					},
					"t_uint256": {
						"encoding": "inplace",
						"label": "uint256",
						"numberOfBytes": "32"
					},
					"t_uint8": {
						"encoding": "inplace",
						"label": "uint8",
						"numberOfBytes": "1"
					}
				}
			},
			"userdoc": {
				"kind": "user",
				"methods": {},
				"version": 1
			}
		}
	}
}